:1000000010040020512B0000692B0000692B000018
:10001000692B0000692B0000692B00000000000024
:10002000000000000000000000000000692B00003C
:10003000692B000000000000692B0000692B000004
:10004000692B0000692B0000692B0000692B000060
:10005000692B0000692B0000692B0000692B000050
:10006000692B0000692B0000000000006F270000D2
:10007000692B0000692B0000692B0000692B000030
:10008000692B00003B270000692B0000692B000052
:10009000692B0000692B0000692B0000692B000010
:1000A000692B0000692B0000692B0000692B000000
:1000B000692B0000692B0000692B0000692B0000F0
:1000C000692B0000692B0000692B0000692B0000E0
:1000D000692B0000692B0000692B00000000000064
:1000E000012110F01F029140DFF87C2740B2400947
:1000F00042F8201070470321B0FBF1F00100481EC8
:100100000029FBD170470021DFF814281180DFF8A7
:10011000101809888142FAD3704780B58021DFF832
:10012000040802F05DFB1E20FFF7E5FF0221DFF867
:100130003C0702F052FB0120FFF7E5FF0221DFF848
:100140002C0702F04DFB0120FFF7DDFF0221DFF855
:100150001C0702F042FB0120FFF7D5FF8021DFF8EA
:10016000C40702F03AFB2021DFF8B80702F035FBA4
:1001700001BD38B504008021DFF8A80702F030FB8C
:100180000120FFF7B8FF2021DFF8980702F025FBD8
:100190000120FFF7B0FF00250BE04021DFF88407C6
:1001A00002F01EFB0121DFF8C40602F016FB64001A
:1001B0006D1C082D0CDA0121DFF8B00602F010FBEF
:1001C0002006EAD54021DFF85C0702F006FBE9E7EC
:1001D0008021DFF8500702F000FB31BD38B5040084
:1001E0008021DFF8400702F0FBFA0120FFF783FFD0
:1001F0002021DFF8300702F0F3FA0120FFF77BFF40
:1002000000250BE04021DFF81C0702F0E9FA01218C
:10021000DFF8580602F0E1FA64006D1C082D0CDAD4
:100220000121DFF8480602F0DBFA2006EAD540217A
:10023000DFF8F00602F0D1FAE9E72021DFF8E40662
:1002400002F0CBFA8021DFF8DC0602F0C6FA31BDFD
:1002500080B5FFF762FFE220FFF7C0FFA120FFF7A4
:10026000BDFFA220FFF7BAFFC020FFF7B7FF2F2086
:10027000FFF7B4FF6420FFF746FFA420FFF7AEFFAF
:100280008120FFF7ABFF2020FFF7A8FF2320FFF717
:10029000A5FFAF20FFF7A2FFA620FFF79FFFB0202A
:1002A000FFF79CFF1020FFF799FF0020FFF796FF54
:1002B0004020FFF793FF01BD38B504000D00EDB2FB
:1002C000DFF8F8060580E4B2DFF8F40604802000C9
:1002D000C0B2000950F01000C0B2FFF77FFF14F069
:1002E0000F00FFF77BFF55F0B000C0B2FFF776FFBD
:1002F00031BD38B500240025002507E00020FFF7B8
:1003000038FF641CE4B2842CF8DB6D1CEDB2082DC0
:1003100006DA2900C9B20020FFF7CEFF0024F1E77A
:1003200031BDDFF8C41A08607047DFF8BC0A006806
:100330007047DFF8B41A48607047DFF8AC0A4068CD
:100340007047DFF8A41A88607047DFF89C0A80685D
:100350007047DFF8941AC8607047DFF88C0AC068ED
:100360007047DFF8841A81F830007047DFF8780AA8
:1003700090F830007047DFF8701A81F8310070474C
:10038000DFF8640A90F831007047DFF85C1A81F8F2
:1003900032007047DFF8500A90F832007047DFF8FB
:1003A000481A81F833007047DFF83C0A90F83300B0
:1003B0007047DFF8341A81F834007047DFF8280AF4
:1003C00090F834007047DFF8201A81F83500704744
:1003D000DFF8140A90F835007047DFF80C1A81F83E
:1003E00036007047DFF8000A90F836007047DFF8F3
:1003F000F81981F837007047DFF8EC0990F83700FA
:100400007047DFF8E41908617047DFF8DC0900691C
:100410007047DFF8D41908617047DFF8CC094069EC
:100420007047DFF8C41981F83D007047DFF8B8095C
:1004300090F83D007047DFF8B01981F83C00704734
:10044000DFF8A40990F83C007047DFF89C1981F8A8
:100450003B007047DFF8900990F83B007047DFF8E9
:10046000881981F838007047DFF87C0990F8380067
:100470007047DFF8741981F839007047DFF86809B0
:1004800090F839007047DFF8601981F83A0070473A
:10049000DFF8540990F83A007047DFF84C1981F8FA
:1004A0003F007047DFF8400990F83F007047DFF8E1
:1004B000381981F841007047DFF82C0990F84100A5
:1004C0007047DFF8241981F842007047DFF81809F7
:1004D00090F842007047DFF8101981F84400704727
:1004E000DFF8040990F844007047DFF8FC1881F841
:1004F00045007047DFF8F00890F844007047DFF8D7
:10050000E81881F843007047DFF8DC0890F84300F2
:100510007047DFF8D41881F846007047DFF8C80844
:1005200090F846007047DFF8C01881F83E00704729
:10053000DFF8B418C86170470021002108E0C9B293
:100540000A5CDFF8A438C9B2CB1883F84720491CED
:10055000C9B21829F3DB7047DFF8240B704700217C
:10056000002108E0C9B20A5CDFF87C38C9B2CB18B8
:1005700083F85F20491CC9B20629F3DB7047DFF816
:10058000040B70470021002108E0C9B20A5CDFF8C3
:100590005838C9B2CB1883F88520491CC9B20C2938
:1005A000F3DB7047DFF8E00A70470021002108E024
:1005B000C9B20A5CDFF83038C9B2CB1883F8912091
:1005C000491CC9B20329F3DB7047DFF8C00A704742
:1005D0000021002108E0C9B20A5CDFF80C38C9B27A
:1005E000CB1883F86520491CC9B22029F3DB70477A
:1005F000DFF89C0A70470021002108E0C9B20A5CBC
:10060000DFF8E437C9B2CB1883F89420491CC9B28B
:100610000329F3DB7047DFF87C0A7047DFF8C8175F
:10062000C1F8A0007047DFF8C007D0F8A0007047FD
:10063000DFF8B417C1F8A4007047DFF8AC07D0F8B2
:10064000A4007047DFF8A017C1F8AC007047DFF8CE
:100650009807D0F8AC007047DFF88C17C1F8B000ED
:100660007047DFF88407D0F8B0007047DFF87817DC
:10067000C1F8B4007047DFF87007D0F8B4007047D5
:10068000DFF86417C1F8A8007047DFF85C07D0F8FE
:10069000A8007047DFF8501781F8B8007047DFF8FE
:1006A000480790F8B8007047DFF83C1781F8B900A8
:1006B0007047DFF8340790F8B9007047DFF8281763
:1006C00081F8BA007047DFF8200790F8BA00704749
:1006D000DFF8141781F8BB007047DFF80C0790F8BB
:1006E000BB0070470021002108E0C9B20A5CDFF8B6
:1006F000F836C9B2CB1883F8BC20491CC9B203290B
:10070000F3DB7047DFF8E80C7047DFF8DC16886130
:100710007047DFF8D40680697047DFF8CC06406A7E
:100720007047DFF8C406C06A7047002108E0C9B20C
:100730000A5CDFF8B436C9B2CB1883F89720491C9D
:10074000C9B20629F3DB7047DFF8A80C7047DFF861
:10075000981681F840007047DFF88C0690F840004A
:100760007047DFF8940C807910F08000704700200B
:100770000DE00021DFF8842CC0B222F82010002107
:10078000DFF8782CC0B212EB80029170401CC0B22E
:100790000328EEDB704780B520215FF0804002F037
:1007A00035F81823002240215FF0804002F01EF847
:1007B00001BD80B5FFF7EFFF00F0CEFB0B20FFF788
:1007C0008FFC1120FFF78CFCFFF742FDFFF791FD36
:1007D0000021012000F0D5FB0020FFF722FE0520BC
:1007E000FFF733FE0020FFF744FE01BD80B5DFF8C0
:1007F000A8080088002835D0DFF89C080088401E33
:10080000DFF894180880DFF8F80B0078002801D191
:1008100000F02EF8DFF8E80B0078012822D100F074
:1008200083F8FFF717FEDFF88C1B0870DFF8D40B96
:100830008078DFF8D01B09790818001DDFF8881BC5
:100840000880DFF8880BDFF8881B08602021DFF8BC
:10085000B80B01F0C5FF0520FFF755FC0121002072
:1008600000F08FFB01BD000000E100E0606000408F
:1008700080B5FFF7DBFD00280CD00120DFF88C1BD2
:1008800008700021022000F0E0FD0120DFF8801B4D
:10089000087003E00020DFF8741B0870DFF86C0BB1
:1008A0000078002816D0022000F0EEFD002811D0BC
:1008B0000120DFF8601B0870DFF8540B0078C0439C
:1008C00010F00100DFF8481B08704B21022000F0F7
:1008D000BCFD23E0DFF8400B007802280AD0062890
:1008E00002D0FF281AD119E04FF48271012000F0E4
:1008F000ACFD13E000F062FA002809D04FF48271D9
:10090000012000F0A2FD0120DFF8F41A087004E0D5
:1009100040F23111022000F098FDFFE701BD000018
:10092000920500203060004010B5DFF8CC0A8078D6
:10093000DFF8C41ADFF8C02A92785118C97908186C
:10094000C41C012000F0A0FD002804D00020DFF826
:10095000B01A087017E0E4B2210089B2DFF8BC0ACF
:1009600000F044FADFF8901AE4B261184979C0B295
:10097000884204D10620DFF89C1A087003E0EE20BC
:10098000DFF8901A087000F0E9F9DFF8780A80784B
:10099000DFF8701A09790818C41CE4B2210089B282
:1009A000DFF8280A00F022FADFF8581AE4B26118DA
:1009B00048710020DFF8481A087010BD9605002025
:1009C0009405002072B6704762B6704738B50500CE
:1009D0000C000020DFF8D81A0880FFF727FD002858
:1009E00034D0EDB26D2D04D1DFF8980ADFF8C41AC7
:1009F0000860FFF725FD012804D01ED3032813D07B
:100A000009D31AE0012004F8020CDFF8140ADFF819
:100A1000A41A086095E1022004F8020CDFF8040A29
:100A2000DFF8901A08608CE1032004F8020CDFF86C
:100A3000F809DFF8801A086083E1012004F8020C4D
:100A4000DFF8DC09DFF86C1A08607AE1EDB2002DFE
:100A50007BD0012D00F07F80022D00F08280032DDD
:100A600000F08580062D00F08880072D00F08B8037
:100A7000082D00F08E80092D00F091800B2D00F0E4
:100A800094800C2D00F097800D2D00F09A800E2D93
:100A900000F09D800F2D00F0A080102D00F0A380AD
:100AA000112D00F0A680122D00F0A980132D00F06A
:100AB000AC80142D00F0AF80152D00F0B280162D03
:100AC00000F0B580212D00F0B880222D00F0BB8011
:100AD000232D00F0BE80242D00F0C180252D00F0D4
:100AE000C480262D00F0C780282D00F0CA80292D53
:100AF00000F0CD802A2D00F0D0802B2D00F0D38087
:100B00002C2D00F0D6802D2D00F0D9802E2D00F058
:100B1000DC802F2D00F0DF80302D00F0E280312DC1
:100B200000F0E580322D00F0E880332D00F0EB80FE
:100B30003B2D00F0EE806C2D00F0F1806D2D00F06B
:100B4000F480C82D00F0F780FBE0DFF86C09DFF8D7
:100B500064190860F5E0DFF8C808DFF85819086084
:100B6000EFE0DFF8C008DFF84C190860E9E0DFF8D3
:100B7000B808DFF840190860E3E0DFF84009DFF863
:100B800034190860DDE0DFF83809DFF8281908605B
:100B9000D7E0DFF83009DFF81C190860D1E0DFF892
:100BA0002809DFF810190860CBE0DFF80C09DFF83E
:100BB00004190860C5E0DFF81409DFF8F8180860C8
:100BC000BFE0DFF80C09DFF8EC180860B9E0DFF8E7
:100BD0000409DFF8E0180860B3E0DFF8FC08DFF88C
:100BE000D4180860ADE0DFF8F408DFF8C818086032
:100BF000A7E0DFF8EC08DFF8BC180860A1E0DFF838
:100C0000E408DFF8B01808609BE0DFF8DC08DFF8E4
:100C1000A418086095E0DFF8D408DFF89818086099
:100C20008FE0DFF89408DFF88C18086089E0DFF8BF
:100C3000C008DFF88018086083E0DFF8B808DFF844
:100C4000741808607DE0DFF8B008DFF86818086005
:100C500077E0DFF8A808DFF85C18086071E0DFF8DB
:100C6000A008DFF8501808606BE0DFF89808DFF89C
:100C70004418086065E0DFF8B00ADFF8381808604B
:100C80005FE0DFF8C40ADFF82C18086059E0DFF8ED
:100C9000BC0ADFF82018086053E0DFF8B40ADFF878
:100CA000141808604DE0DFF8AC0ADFF80818086097
:100CB00047E0DFF8A40ADFF8FC17086041E0DFF83E
:100CC0009C0ADFF8F01708603BE0DFF8940ADFF8D1
:100CD000E417086035E0DFF8100BDFF8D81708607C
:100CE0002FE0DFF8080BDFF8CC17086029E0DFF809
:100CF000000BDFF8C017086023E0DFF80C0BDFF80B
:100D0000B41708601DE0DFF8040BDFF8A8170860CF
:100D100017E0DFF8FC0ADFF89C17086011E0DFF845
:100D2000F40ADFF8901708600BE0DFF85807DFF8E7
:100D30008417086005E0DFF8E00ADFF8781708603C
:100D4000FFE7FFF73FFE2000DFF8681709688847D4
:100D5000FFF73AFEDFF85807008832BD80B5DFF8AC
:100D600098068078052814D1DFF88C06C07ADFF861
:100D7000AC1ADFF89026D072C0B2FFF727FEDFF87A
:100D800084160871DFF87C060079DFF8781608739E
:100D900013E0DFF86406C079DFF8841ADFF8642610
:100DA000D071C0B2FFF712FEDFF858160871DFF8F5
:100DB00054060079DFF84C16087201BD80B5FFF7C4
:100DC0005DFBDFF83416897801290BD1C0B2DFF85A
:100DD0002816897911F03F01884201D1012002E0F3
:100DE000002000E0012002BD1004002010B4002209
:100DF000002303E0DBB21C5C62405B1C1C00E4B21D
:100E0000A4B289B28C42F5D31000C0B210BC7047B6
:100E100080B50020FFF785FA0020FFF78AFA00204E
:100E2000FFF78FFA0020FFF794FA5FF08140FFF799
:100E3000E8FA0020FFF7EDFA5FF08140FFF765FC6C
:100E40000020FFF775FB0020DFF8681B0862002018
:100E5000DFF8601B48620020DFF8581B8862002022
:100E6000DFF8501BC8620020FFF77BFA0020FFF775
:100E700082FA0020FFF789FA0020FFF790FA00209D
:100E8000FFF797FA0020FFF79EFA0020FFF7A5FA78
:100E90000020FFF7ACFA0020FFF7E1FA0020FFF78F
:100EA000E8FA0020FFF7EFFA0520FFF7CEFA00205E
:100EB000FFF7C1FA0020FFF7B4FA0020FFF733FB79
:100EC0000120FFF7EAFA0020FFF741FC0020FFF7BE
:100ED000EEFA0020FFF7F5FA0020FFF7FCFA0020F9
:100EE000FFF703FB0020FFF70AFB0020FFF711FBD1
:100EF0000020FFF721FB0020FFF731FB0020FFF768
:100F000067FB0020FFF751FB0020FFF774FB002078
:100F1000FFF70BFC0020FFF781FB0020FFF788FBA9
:100F20000020FFF7ADFB0020FFF78CFB0020FFF750
:100F300093FB0020FFF79AFBFB20FFF7ABFB0020A1
:100F4000FFF7B2FB0120FFF7B9FB0120FFF7C0FB61
:100F50000020FFF7C7FB01BD80B5082303224FF433
:100F60009661DFF8640B01F057FC00220121DFF8E5
:100F7000580B01F0AFFC0321DFF84C0B01F0AFFC84
:100F800001BD80B5C0B2002808D0C9B2002905D083
:100F90000321DFF8340B01F0A2FC1CE0C0B20028F2
:100FA00008D1C9B2002905D00221DFF81C0B01F0DD
:100FB00096FC10E0C0B2002808D0C9B2002905D1C3
:100FC0000121DFF8040B01F08AFC04E00021DFF8C6
:100FD000F80A01F084FC01BD80B5DFF8280400792F
:100FE00002284CDBDFF82C0B0078002802D0012807
:100FF00004D044E00120DFF81C1B0870DFF8B403C4
:10100000007800280AD0FF2000F0D6F9DFF8A4030A
:101010000078401EDFF89C1308701DE0DFF8A8037D
:101020000088002814D0DFF8A8030068007800F0DA
:10103000C3F9DFF89C030068401CDFF894130860D4
:10104000DFF884030088401EDFF87C13088003E08B
:101050000220DFF8C01A0870DFF8B80A007802280A
:101060000CD100210120FFF78CFF2021DFF898032D
:1010700001F0B3FB0020DFF89C1A0870FFE701BD08
:10108000570400206F04002095040020A1040020D4
:1010900075040020A40400208C05002010B5DFF8A2
:1010A000280A01F015FC0400DFF8E40A00780028A3
:1010B00004D0022800F0158110D379E1E4B2FF2CAE
:1010C0000BD10120DFF81C1B08700120DFF8C01ACB
:1010D00008701221002000F0B8F969E1002000F04A
:1010E000D3F9002803D0FF20CB490870F4E0E4B224
:1010F000FF2C07D1DFF8EC0A0078401CDFF8E41A77
:101100000870E9E0E4B22000012852D002280AD099
:1011100006282BD0812800F0B58082286CD0862844
:1011200000F08D80D1E0DFF8BC0A0078022819DBDE
:101130000120B14988700220B74908700020DFF80B
:10114000A81A0880DFF8A00A0088411CDFF8982A56
:101150001180A94980B2401844710220DFF8301A8A
:10116000087002E0FF20AC490870B5E0DFF8740AAF
:101170000078022819DB01209F4988700620A649C3
:1011800008700020DFF8601A0880DFF85C0A008829
:10119000411CDFF8542A1180974980B240184471ED
:1011A0000220DFF8EC19087002E0FF209A4908706D
:1011B00092E0DFF8300A0078022819DB01208E491E
:1011C00088700120944908700020DFF81C1A0880FC
:1011D000DFF8140A0088411CDFF80C2A11808649C8
:1011E00080B2401844710220DFF8A419087002E0B0
:1011F000FF20894908706FE0DFF8E80900780228CD
:1012000019DB05207C498870022083490870002082
:10121000DFF8D4190880DFF8D0090088411CDFF816
:10122000C8291180744980B2401844710220DFF847
:101230006019087002E0FF20774908704CE0DFF881
:10124000A4090078022819DB05206B498870062064
:10125000714908700020DFF890190880DFF88809CC
:101260000088411CDFF880291180634980B2401852
:1012700044710220DFF81819087002E0FF20664967
:10128000087029E0DFF85C090078022819DB0520E6
:10129000594988700120604908700020DFF848191A
:1012A0000880DFF844090088411CDFF83C291180E0
:1012B000514980B2401844710220DFF8D4180870F8
:1012C00002E0FF205449087006E0FF2052490870F0
:1012D0000320DFF8BC1808701221002000F0B5F8D8
:1012E00066E0002000F0D0F8002803D0FF204A4933
:1012F00008703BE0DFF8F0080088411CDFF8E828C0
:1013000011803D4980B2401844713B4880780128E3
:1013100016D1DFF8D4080088042803D1E4B2DFF83E
:10132000900B0480DFF8880B0088001DDFF8B818E8
:10133000098888421ADA0320DFF85418087015E08B
:10134000DFF8A4080088082803D1E4B2DFF8600BB6
:101350000480DFF85C0B00880830DFF88C180988FF
:10136000884203DA0320DFF82818087012210020D1
:1013700000F06BF8DFF818080078032817D1002078
:1013800000F082F800201E4908700020DFF80018E5
:1013900008700020DFF84C1808700020DFF8101BE0
:1013A000088000F017F800210020FFF7EAFDFFE7B2
:1013B00010BD00009F05002080B5C0B20100DFF81D
:1013C000D40701F07DFA01BD88050020D504002076
:1013D0008405002080B5FFF7F5FADFF8A40B00883C
:1013E000401CDFF89C1B0880FFF7EEFA01BD0000EF
:1013F000CC040020A70400203C0500207405002038
:101400009C050020D004002000600040A0050020C2
:10141000080000209B0500209A05002041050020BF
:101420004719000081190000B919000081780029CE
:101430000AD10188002907D00188491E018001884E
:10144000002901D1012181707047C0B2032816DA4A
:10145000DFF8602DC0B222F8201089B2002907D031
:101460000021DFF8502DC0B212EB8000817006E041
:101470000121DFF8402DC0B212EB8000817070476F
:1014800000000000AB260000DFF8281DC0B211EB01
:1014900080018978012908D10021DFF8182DC0B218
:1014A00012EB80008170012000E0002070470000F6
:1014B0008E050020800500202B190000711A000005
:1014C000D11A0000191B0000991B0000A11B00008D
:1014D000ED1B0000871C0000091D0000CF1D00004F
:1014E0000F1E0000571E0000B51E0000FD1E00006C
:1014F0003F1F0000851F000081210000B92100006E
:101500001F2200003D22000038B50400FE20DFF855
:101510007C1D09880855DFF8740D0088401CDFF831
:101520006C1D0880E320DFF8641D09880855DFF88A
:101530005C0D0088401CDFF8541D08807D20DFF81A
:101540004C1D09880855DFF8440D0088401CDFF861
:101550003C1D0880DFF8340D0588681CDFF82C1D61
:101560000880FEF777FFADB228550720DFF81C1D75
:1015700009880855DFF8140D0088401CDFF80C1DA1
:1015800008800020DFF8041D09880855DFF8FC0CEE
:101590000088401CDFF8F41C08800020DFF8EC1CF9
:1015A00009880855DFF8E40C0088401CDFF8DC1CD3
:1015B00008800020DFF8D41C09880855DFF8CC0C1F
:1015C0000088401CDFF8C41C08801420DFF8BC1C15
:1015D00009880855DFF8B40C0088401CDFF8AC1C03
:1015E00008807020DFF8A41C09880855DFF89C0CDF
:1015F0000088401CDFF8941C08800020DFF88C1C59
:1016000009880855DFF8840C0088401CDFF87C1C32
:1016100008800020DFF8741C09880855DFF86C0C7E
:101620000088401CDFF8641C0880DFF8600C058827
:10163000681CDFF8581C0880FEF70CFFADB2285577
:101640000620DFF8481C09880855DFF8400C0088A0
:10165000401CDFF8381C0880DFF8940C008880B24A
:10166000000ADFF8281C09880855DFF8200C0088DC
:10167000401CDFF8181C0880DFF8740C0088DFF8C5
:101680000C1C09880855DFF8040C0088401CDFF8A2
:10169000FC1B08800220DFF8F41B09880855DFF8DE
:1016A000EC0B0088401CDFF8E41B08806020DFF8AA
:1016B000DC1B09880855DFF8D40B0088401CDFF8D4
:1016C000CC1B0880DE20DFF8C41B09880855DFF832
:1016D000BC0B0088401CDFF8B41B08806020DFF8DA
:1016E000AC1B09880855DFF8A40B0088401CDFF804
:1016F0009C1B0880DE20DFF8941B09880855DFF862
:101700008C0B0088401CDFF8841B08800120DFF868
:101710007C1B09880855DFF8740B0088401CDFF833
:101720006C1B088031BD00005B22000080B5DFF833
:10173000F00C007850F04000DFF8E41C0870C02086
:10174000FEF7F1FE01BD000091220000C72200005B
:10175000CF220000D7220000F52200002F23000036
:101760008B23000081B0002106E0C9B2421AD27872
:101770006B46C9B2CA54491CC9B20429F5DB0098AA
:1017800001B07047CA78DFF8043B1B881A54DFF8B1
:10179000FC2A1288521CDFF8F43A1A808A78DFF8A3
:1017A000EC3A1B881A54DFF8E42A1288521CDFF83E
:1017B000DC3A1A804A78DFF8D43A1B881A54DFF8EA
:1017C000CC2A1288521CDFF8C43A1A800978DFF854
:1017D000BC2A12881154DFF8B40A0088401CDFF8D4
:1017E000AC1A088070470000E72300003524000091
:1017F000092500000B488078052802D1DFF8240C69
:1018000001E0DFF8FC0C704769250000C5250000E9
:101810004326000077260000DB260000DD040020C0
:10182000D90400203C05002080B5FEF727FEDFF834
:10183000F81B8978052903D10521A44A917002E09B
:101840000121A24A9170DFF8E41B0978002903D036
:1018500001219E4A517010E006219C4A5170DFF828
:10186000C81B8979090604D50121DFF8C42B117042
:1018700003E00021DFF8B82B11709449897805291D
:1018800026D19248407850F0800090494871DFF8A6
:10189000740C007810F03F00DFF8941B097850EAD0
:1018A000C1108A498871DFF85C0C40788749C8719B
:1018B000DFF8500C807885490872DFF8480CC07852
:1018C00082494872DFF83C0C0079804988720AE04E
:1018D0007E4949787D4A5171DFF8541B097850EAF6
:1018E000C1107A49887101BD10B50400FFF79CFF53
:1018F000DFF86C0C0078DFF8941909880855DFF8D8
:101900008C090088401CDFF884190880DFF8100B70
:101910000078DFF8781909880855DFF87009008821
:10192000401CDFF86819088010BD10B504002000C5
:10193000FFF7DAFFDFF8280C0078002802D120003A
:10194000FFF7E2FD10BD38B504002000FFF7CCFF23
:10195000DFF80C0C0078002811D1FEF7E6FC0090AF
:10196000DFF828090588681CDFF820190880FEF7D1
:10197000FDFCADB2285569462000FFF703FF31BDDD
:101980001CB504002000FFF7AFFFDFF8D40B007890
:1019900000280DD1FEF739FD0190FEF73EFD0090C5
:1019A00001A92000FFF7EEFE69462000FFF7EAFEDE
:1019B00013BD00001004002030B585B004002000E5
:1019C000FFF792FFDFF8980B007800284ED1FEF762
:1019D0001CFD0490FEF7A9FC0390FEF7AEFC0290FC
:1019E000FEF7B3FC0190FEF7B8FC009004A92000BC
:1019F000FFF7C8FEDFF894080588681CDFF88C182C
:101A00000880FEF7B3FCADB2285503A92000FFF70C
:101A1000B9FEDFF878080588681CDFF870180880C0
:101A2000FEF7AEFCADB2285502A92000FFF7AAFED2
:101A3000DFF858080588681CDFF850180880FEF7A2
:101A4000A9FCADB2285501A92000FFF79BFEDFF8E5
:101A50003C080588681CDFF834180880FEF7A4FCF1
:101A6000ADB2285569462000FFF78CFE05B030BDA9
:101A700038B504002000FFF737FFDFF8E40A0078EC
:101A8000002820D1FFF7B6FE05002878DFF8FC1704
:101A900009880855DFF8F4070088401CDFF8EC17C8
:101AA00008806878DFF8E41709880855DFF8DC0754
:101AB0000088401CDFF8D41708802878FEF7D9FC8E
:101AC0006878FEF7E0FC31BD00500040D0040020F3
:101AD00038B504002000FFF707FFDFF8840A00781C
:101AE000002815D1DFF8A4070588681CDFF89C17CB
:101AF0000880FEF7C3FCADB22855DFF890070588D3
:101B0000681CDFF888170880FEF7C2FCADB22855C4
:101B100031BD00009E05002010B504002000FFF735
:101B2000E3FEDFF83C0A007800282FD12820DFF8F8
:101B30005C1709880855DFF854070088401CDFF857
:101B40004C1708802920DFF8441709880855DFF86A
:101B50003C070088401CDFF8341708802A20DFF893
:101B60002C1709880855DFF824070088401CDFF887
:101B70001C1708802B20DFF8141709880855DFF898
:101B80000C070088401CDFF80417088010BD000017
:101B90009D0500200050004080B5FFF7A5FE01BD67
:101BA00010B5040000212000FFF79EFEDFF8B00909
:101BB0000078002814D1FEF7CFFC00210DE0C9B257
:101BC0000A5CDFF8C8361B881A55DFF8C026128871
:101BD000521CDFF8B8361A80491CC9B21829EEDB4E
:101BE00010BD0000A30500208A05002070B5040088
:101BF00000212000FFF778FEDFF864090078002854
:101C000040D1FEF7BCFC0500FEF7CCFC0600FEF759
:101C1000DCFC00210DE0C9B24A5DDFF870361B889C
:101C20001A55DFF868261288521CDFF860361A80D1
:101C3000491CC9B20629EEDB00210DE0C9B28A5D5C
:101C4000DFF848361B881A55DFF840261288521CE8
:101C5000DFF838361A80491CC9B20C29EEDB0021A6
:101C60000DE0C9B20A5CDFF824361B881A55DFF88C
:101C70001C261288521CDFF814361A80491CC9B27F
:101C80000329EEDB70BD38B5040000212000FFF70A
:101C90002BFEDFF8CC080078002834D1FEF7BBFC1F
:101CA00000210DE0C9B20A5CDFF8E0351B881A5547
:101CB000DFF8D8251288521CDFF8D0351A80491C6D
:101CC000C9B20329EEDBDFF8C4050588681CDFF81C
:101CD000BC150880FEF74AFBADB22855FEF7A3FC01
:101CE000009069462000FFF74DFDFEF7A6FC00902E
:101CF00069462000FFF746FDFEF7C7FC00906946E5
:101D00002000FFF73FFD31BD3EB504002000FFF786
:101D1000EBFDDFF84C080078002857D1FEF797FC60
:101D20000290FEF79EFC0190FEF7A5FC0090DFF804
:101D30005C050588681CDFF854150880FEF7AFFCC9
:101D4000ADB22855DFF844050588681CDFF83C155E
:101D50000880FEF7AEFCADB22855DFF830050588E7
:101D6000681CDFF828150880FEF77EFBADB2285509
:101D700002A92000FFF706FD01A92000FFF702FDE0
:101D800069462000FFF7FEFCDFF800050588681CA7
:101D9000DFF8F8140880FEF796FCADB22855FA205B
:101DA000DFF8E81409880855DFF8E0040088401CD3
:101DB000DFF8D8140880DFF8D4040588681CDFF841
:101DC000CC140880FEF789FCADB2285537BD10B59C
:101DD00004002000FFF788FDDFF884070078002862
:101DE00014D1FEF78FFC00210DE0C9B20A5CDFF8C8
:101DF0009C341B881A55DFF894241288521CDFF893
:101E00008C341A80491CC9B20329EEDB10BD10B511
:101E100004002000FFF768FDDFF844070078002881
:101E200018D1FFF7E7FC00210DE0C9B20A5CDFF82A
:101E30005C341B881A55DFF854241288521CDFF8D2
:101E40004C341A80491CC9B21829EEDBFEF774FB2A
:101E5000FFF76CFC10BD38B504002000FFF744FD0F
:101E6000DFF8FC060078002821D1FFF7C3FC05004D
:101E700000200DE0C0B2415DDFF81024128811553A
:101E8000DFF808140988491CDFF800241180401C81
:101E9000C0B21528EEDB2800FEF761FBA81DFEF797
:101EA00071FB15F11200FEF780FBFFF73FFC31BD1F
:101EB0009805002010B504002000FFF715FDDFF89D
:101EC000A0060078002818D1FFF794FC00210DE04F
:101ED000C9B20A5CDFF8B4331B881A55DFF8AC23AB
:101EE0001288521CDFF8A4331A80491CC9B2032996
:101EF000EEDBFEF7F7FBFFF719FC10BD10B5040091
:101F000000212000FFF7F0FCDFF8540600780028DD
:101F100014D1FEF76DFB00210DE0C9B20A5CDFF8B9
:101F20006C331B881A55DFF864231288521CDFF8C3
:101F30005C331A80491CC9B22029EEDB10BD10B5F4
:101F400004002000FFF7D0FCDFF81406007800281A
:101F500015D1FFF74FFC00210AE0C9B20A5CCB4B58
:101F60001B881A55C94A1288521CC84B1A80491C32
:101F7000C9B22029F1DBFEF72BFBFFF7D7FB10BD21
:101F80008C050020F8B504002000FFF7ADFCDFF859
:101F9000D0050078002840F0F280FFF72BFC050008
:101FA000002637E0F6B2705DB84909880855B74891
:101FB0000088401CB5490880FA20B44909880855B2
:101FC000B2480088401CB14908807F20AF49098889
:101FD0000855AE480088401CAC490880A020AB4999
:101FE00009880855A9480088401CA8490880002095
:101FF000A64909880855A5480088401CA3490880BF
:102000000020A24909880855A0480088401C9F4923
:102010000880761CF6B2042E80F2B180F6B2705DB4
:10202000F4280AD0BED3F6283DD021D3F82870D0AA
:1020300054D3F92800F08880B4E7F6B2705D934974
:102040000988085591480088401C9049088039202B
:102050008E49098808558D480088401C8B490880A6
:10206000FEF7DBF9009069462000FFF78BFBD0E715
:10207000F6B2705D85490988085584480088401C7F
:102080008249088027208149098808557F480088AF
:10209000401C7E490880FEF7B8F900906946200090
:1020A000FFF770FBB5E7F6B2705D7849098808550F
:1020B00076480088401C7549088074480788781C59
:1020C00072490880FEF752F9BFB23855FEF72DF974
:1020D000009069462000FFF755FB9AE7F6B2705D65
:1020E0006A490988085569480088401C6749088082
:1020F00066480788781C65490880FEF741F9BFB239
:102100003855FEF71AF9009069462000FFF73AFBB0
:102110007FE7F6B2705D5D49098808555B48008825
:10212000401C5A49088059480788781C574908803C
:10213000FEF730F9BFB23855FEF707F9009069464F
:102140002000FFF71FFB64E7F6B2705D4F49098876
:1021500008554E480088401C4C4908804B48078869
:10216000781C4A490880FEF71FF9BFB23855FEF7C0
:10217000F4F8009069462000FFF704FB49E7F1BD41
:1021800010B582B004002000FFF7AEFBDFF81006A8
:10219000007800280DD1FFF72DFBFFF7E3FA009040
:1021A00069462000FFF7EEFA0098FEF75FFAFFF7A6
:1021B000BDFA13BD7405002030B583B004002000C3
:1021C000FFF792FBDFF898030078002826D1FFF78D
:1021D00011FB0500681CFFF7C5FA0190681DFFF7A9
:1021E000C1FA0090287829490988085527480088AD
:1021F000401C2649088001A92000FFF7C3FA694660
:102200002000FFF7BFFA2878FEF729F90198FEF7BA
:1022100019FA0098FEF720FAFFF788FA37BD80B563
:10222000FFF762FBDFF878050078002805D1FEF79C
:102230007CF8FEF707FAFFF779FA01BD80B5FFF7E2
:1022400053FBDFF85C050078002805D1FEF76DF838
:10225000FEF702FAFFF76AFA01BD80B5FFF744FB0B
:10226000BF480078002810D1BE48007810F0BF00A9
:10227000BC490870FEF775FA002803D08020FEF7ED
:1022800052F902E04020FEF74EF901BD8E05002014
:1022900010B582B004002000FFF726FBDFF8000530
:1022A000007800280ED1FEF7B0F8009069462000B3
:1022B000FFF768FAFFF79EFAFFF754FA00900098CC
:1022C000FEF723FA13BD80B5FFF70EFB01BD80B505
:1022D000FFF70AFB01BD80B5FFF706FBDFF8C0047E
:1022E0000078002803D1FEF720F8FEF721F901BDA0
:1022F0009005002010B504002000FFF7F5FA98487B
:102300000078002812D1FFF775FA0178DFF89424DD
:1023100012881155DFF88C140988491CDFF88424D1
:1023200011800078FEF71DF8FFF700FA10BD10B518
:1023300082B004002000FFF7D7FA8948007800280F
:1023400022D1FEF7E6F900900098DFF85C1400F067
:10235000CBFA12D80098DFF8541400F0D7FA0CD258
:10236000FFF748FAFFF7FEF90090FEF7D6F9009064
:1023700069462000FFF706FA06E0DFF83404009013
:1023800069462000FFF7FEF913BD10B582B00400C6
:102390002000FFF7A9FA72480078002822D1FEF742
:1023A000B8F900900098DFF80C1400F09DFA12D8EC
:1023B0000098DFF8041400F0A9FA0CD2FFF71AFA1B
:1023C000FFF7D0F90090FEF7ACF9009069462000C5
:1023D000FFF7D8F906E0DFF8D8030090694620003F
:1023E000FFF7D0F913BD10B504002000FFF77CFA09
:1023F0005B480078002812D1FFF7FCF90178DFF87C
:10240000A42312881155DFF89C130988491CDFF8B2
:10241000942311800078FEF747F9FFF787F910BD84
:10242000A2050020490500203C050020A005002051
:102430000800002038B504004948007800285DD124
:10244000FEF782F900210DE0C9B20A5CDFF85433CF
:102450001B881A55DFF84C231288521CDFF84433CE
:102460001A80491CC9B20629EEDBDFF8380305885B
:10247000681CCC490880FEF715F8ADB22855C9484C
:102480000588681CC7490880FEF766F9ADB2285573
:10249000C4480588681CC3490880FEF70DF8ADB232
:1024A0002855C0480588681CBE490880FEF70EF80C
:1024B000ADB22855BB480588681CBA490880FEF7AC
:1024C00023F8ADB22855B7480588681CB54908807F
:1024D000FEF706F8ADB22855B2480588681CB14928
:1024E0000880FEF707F8ADB22855AE480588681C8D
:1024F000AC490880FEF712F8ADB2285531BD000096
:10250000450500200000002010B504002000FFF762
:10251000EBF913480078002820D1FFF76BF9017818
:10252000A04A128811559F490988491C9D4A11806B
:1025300041789C4A128811559A490988491C994A40
:1025400011808178974A1288115596490988491C4B
:10255000944A1180FEF74FF8FFF7E8F810BD00002D
:10256000A1050020A205002038B504002000FFF7D7
:10257000BBF98B480078002823D18A480588681C5D
:1025800088490880FDF71AFFADB2285585480588AF
:10259000681C84490880FDF71BFFADB228558148AF
:1025A0000588681C7F490880FDF71CFFADB22855DF
:1025B0007C480588681C7B490880FDF71DFFADB28B
:1025C000285531BD38B504002000FFF78DF9744857
:1025D0000078002834D1FFF70DF9050028787149FB
:1025E000098808556F480088401C6E490880687843
:1025F0006C49098808556B480088401C6949088067
:10260000A87868490988085566480088401C6549CB
:102610000880E87863490988085562480088401CAA
:10262000604908802878FDF7C4FE6878FDF7CBFE86
:10263000A878FDF7D2FEE878FDF7D9FEFFF776F827
:1026400031BD10B504002000FFF74EF95448007862
:1026500000280FD1FFF7CEF80178524A12881155A1
:1026600050490988491C4F4A11800078FDF7EDFE5A
:10267000FFF75CF810BD10B504002000FFF734F937
:102680004748007800280FD1FFF7B4F80178454A91
:102690001288115543490988491C424A1180007823
:1026A000FDF7C9FEFFF742F810BD10B50400200089
:1026B000FFF71AF93A48007800280DD1FFF79AF889
:1026C0000178384A1288115536490988491C354A1B
:1026D00011800078FDF7A5FE10BD10B504002000A4
:1026E000FFF702F92E480078002825D1FFF782F87D
:1026F00001782C4A128811552A490988491C294A0F
:1027000011804178274A1288115526490988491CA9
:10271000244A11808178234A128811552149098859
:10272000491C204A1180C0781E49098808551D4857
:102730000088401C1B49088010BD80B500208DF822
:1027400000001E4800F0CEF88DF800009DF8000053
:1027500010F00700022801D1FEF73EFC9DF80000B2
:1027600010F00700042801D1FEF798FC01BD10B558
:1027700001215FF0804000F04CF811480088401CB7
:102780000F490880002406E00E48E4B210EB8400F4
:10279000FEF74CFE641CE4B2032CF5DB10BD000018
:1027A000A10500208E050020000040400100A0404F
:1027B00000001041000098410100A8410050004075
:1027C00092050020740500200180012070470171EE
:1027D000012070470172012070470177007F704728
:1027E00080F8201090F820007047000010B4848B0F
:1027F000640601D5002007E0048914F470640C43DA
:1028000014431C430481012010BC70470180012047
:10281000704781810120704770B4264C2488A4B28F
:1028200014F460656D12002D0BD0022D0DD00AD36B
:10283000042D0ED00BD3062D0FD00CD3072D0ED0A8
:102840000FE001250DE002250BE0042509E0082535
:1028500007E0102505E0202503E0402501E0802564
:10286000FFE7154C2488A4B2E40700D56D00134C93
:102870006E0194FBF6F494FBF1F404854FF40066CA
:102880006D0196FBF5F50D4E754395FBF4F494FB45
:10289000F1F1B1F5006151F4084181840021017129
:1028A00013F03C0112F0030211430173007D70BC70
:1028B0007047000004200040442400400024F4003D
:1028C000027D920602D50170012000E000207047D1
:1028D00000787047002A00D00174007E70470171B3
:1028E00001207047007A70474FF0807C1CEB400F4E
:1028F00094BF1CEB410F05E040EA010C5FEA4C0C71
:1029000001D28142704718BF884270474FF0807CE7
:102910001CEB400F94BF1CEB410F05E040EA010C9B
:102920005FEA4C0C01D28842704718BF8142704761
:1029300080B500220221002000F04CF8D72000F0E2
:102940007FF8022301220021022000F053F8072320
:1029500000220721072000F05DF84FF410411448D1
:10296000FFF732FFA4211248FFF731FF0021104882
:10297000FFF730FF00210F48FFF726FFEB210D483E
:10298000FFF725FF00210B48FFF724FF00210A482D
:10299000FFF71AFFFF210848FFF719FF002106483B
:1029A000FFF718FF20210248FFF717FF01BD0000C5
:1029B00000600040306000406060004080B5FFF77C
:1029C000B7FFFDF7F6FEFDF7D2FEFEF721FAFDF7A1
:1029D0000DFFFCE7064B1B889BB213F0200353F05E
:1029E000400303430B431343014803800120704716
:1029F0008825004010F0070011F0030150EAC100E3
:102A000013F0070150EA41100F4908800F48028077
:102A10000120704710B410F0070454EAC00411F00C
:102A2000070054EA801412F0070054EA402413F01F
:102A3000070054EA003406480480012010BC7047A7
:102A4000014988850120704700200040442400404F
:102A50000420004019E050F8041BCB0744BFA9F143
:102A600001035918121F0023042A41F8043BF9D22C
:102A70005FEA827C0B4604D54FF0000CA1F800C041
:102A80009B1CD10744BF0021197050F8042B002A69
:102A9000E1D1704710B450F8041B79B10268436863
:102AA00012180830DC0744BFA9F10104E31852F8FA
:102AB000044B43F8044B091FF9D1ECE710BC7047F5
:102AC00010B5074979441831064C7C44163404E0AB
:102AD0000A68081D511888470146A142F8D110BD67
:102AE00008000000280000006DFFFFFF94010000B7
:102AF00010040020000000009DFFFFFF0C000000FC
:102B00005C000000000000200000000000F00BF856
:102B1000002801D0FFF7D4FF0020C046C046FFF7D1
:102B20004DFF00F002F80120704700F001B80000EE
:102B30000746384600F002F8FBE7000080B5C046C3
:102B4000C046024A11001820ABBEFBE72600020077
:102B5000C046C046C046C046FFF7D8FFE37D7000C0
:0C2B60000000000001000000FFF7FEBFB5
:0400000500002B517B
:00000001FF
