:1000000008050020895B0000995B0000995B0000F7
:10001000995B0000995B0000995B00000000000004
:10002000000000000000000000000000995B0000DC
:10003000995B000000000000995B0000995B0000E4
:10004000995B0000995B0000995B0000995B0000E0
:10005000995B0000995B0000995B0000995B0000D0
:10006000995B0000995B000000000000C5300000B3
:10007000995B0000995B0000995B0000995B0000B0
:10008000995B000091300000995B0000995B0000D3
:10009000995B0000995B0000995B0000995B000090
:1000A000995B0000995B0000995B0000995B000080
:1000B000995B0000995B0000995B0000995B000070
:1000C000995B0000995B0000995B0000995B000060
:1000D000995B0000995B0000995B00000000000044
:1000E000012110F01F029140DFF8B02740B2400913
:1000F00042F820107047BFF34F8FDFF8B007006859
:1001000010F4E060DFF868170843DFF8A017086014
:10011000BFF34F8F00BFFDE70321B0FBF1F00100FB
:10012000481E0029FBD170470021DFF8B427118059
:10013000DFF8AC1709888142FAD3704780B5802177
:10014000DFF8AC0702F0F8FF1E20FFF7E5FF022101
:10015000DFF8680702F0EDFF0120FFF7E5FF02215D
:10016000DFF8580702F0E8FF0120FFF7DDFF02216A
:10017000DFF8480702F0DDFF0120FFF7D5FF8021FF
:10018000DFF86C0702F0D5FF2021DFF8640702F0EA
:10019000D0FF01BD38B504008021DFF8540702F01C
:1001A000CBFF0120FFF7B8FF2021DFF8440702F062
:1001B000C0FF0120FFF7B0FF00250BE04021DFF872
:1001C000300702F0B9FF0121DFF8F00602F0B1FFBD
:1001D00064006D1C082D0CDA0121DFF8E00602F046
:1001E000ABFF2006EAD54021DFF8040702F0A1FFAB
:1001F000E9E78021DFF8F80602F09BFF31BD38B552
:1002000004008021DFF8E80602F096FF0120FFF7E6
:1002100083FF2021DFF8D80602F08EFF0120FFF7D0
:100220007BFF00250BE04021DFF8C40602F084FFCD
:100230000121DFF8880602F07CFF64006D1C082DA8
:100240000CDA0121DFF8740602F076FF2006EAD509
:100250004021DFF89C0602F06CFFE9E72021DFF87F
:10026000900602F066FF8021DFF8840602F061FF4D
:1002700031BD80B5FFF762FFE220FFF7C0FFA1208C
:10028000FFF7BDFFA220FFF7BAFFC020FFF7B7FFBF
:100290002F20FFF7B4FF6420FFF746FFA420FFF7ED
:1002A000AEFF8120FFF7ABFF2020FFF7A8FF232040
:1002B000FFF7A5FFAF20FFF7A2FFA620FFF79FFFE4
:1002C000B020FFF79CFF1020FFF799FF0020FFF7F9
:1002D00096FF4020FFF793FF01BD38B504000D00E5
:1002E000EDB2DFF8E0060580E4B2DFF8DC0604805A
:1002F0002000C0B2000950F01000C0B2FFF77FFF2D
:1003000014F00F00FFF77BFF55F0B000C0B2FFF70D
:1003100076FF31BD38B500240025002507E0002018
:10032000FFF738FF641CE4B2842CF8DB6D1CEDB2DF
:10033000082D06DA2900C9B20020FFF7CEFF0024FD
:10034000F1E731BD38B5040000250FE0DFF8040700
:10035000E4B20521EDB201FB045110EB8100B0F5D0
:1003600020700068C0B2FFF715FF6D1CEDB2052DBF
:10037000ECDB0020FFF70EFF31BD10B5040003E0F9
:100380002078FFF7DFFF641C20780028F8D110BD2B
:10039000DFF8E01808607047DFF8D8080068704799
:1003A000DFF8D01848607047DFF8C81888607047D9
:1003B000DFF8C018C8607047DFF8B81881F8280067
:1003C0007047DFF8B00890F828007047DFF8A418ED
:1003D00081F829007047DFF89C1881F82A007047DF
:1003E000DFF8901881F82B007047DFF8881881F843
:1003F0002C007047DFF87C0890F82C007047DFF87D
:10040000741881F82D007047DFF8681881F82E0005
:100410007047DFF8601881F82F007047DFF8541834
:1004200081F830007047DFF84C0890F830007047D2
:10043000DFF8401808617047DFF838080069704736
:10044000DFF8301808617047DFF828084069704706
:10045000DFF8201881F836007047DFF8180890F8A8
:1004600036007047DFF80C1881F835007047DFF868
:10047000040890F835007047DFF8F81781F8340069
:100480007047DFF8F00790F834007047DFF8E417A2
:1004900081F831007047DFF8DC0790F831007047D1
:1004A000DFF8D01781F832007047DFF8C80790F8FE
:1004B00032007047DFF8BC1781F833007047DFF86F
:1004C000B40790F833007047DFF8A81781F83A00B6
:1004D0007047DFF8A00790F83A007047DFF89417EC
:1004E00081F83C007047DFF88C0790F83C007047BB
:1004F000DFF8801781F83D007047DFF8780790F843
:100500003D007047DFF86C1781F83F007047DFF857
:10051000640790F83F007047DFF8581781F84000F3
:100520007047DFF8500790F83F007047DFF8441736
:1005300081F83E007047DFF83C0790F83E007047B6
:10054000DFF8301781F841007047DFF8280790F88E
:1005500041007047DFF81C1781F837007047DFF85B
:10056000141708877047DFF80C07008F7047DFF813
:100570000417C86170470021002108E0C9B20A5C75
:10058000DFF8F036C9B2CB1883F84220491CC9B253
:100590001829F3DB7047DFF8500B7047002100216A
:1005A00008E0C9B20A5CDFF8CC36C9B2CB1883F8D0
:1005B0005A20491CC9B20629F3DB7047DFF82C0B1F
:1005C00070470021002108E0C9B20A5CDFF8A436B8
:1005D000C9B2CB1883F88020491CC9B20C29F3DBBF
:1005E0007047DFF80C0B70470021002108E0C9B20A
:1005F0000A5CDFF88036C9B2CB1883F88C20491C1E
:10060000C9B20329F3DB7047DFF8E80A704700211D
:10061000002108E0C9B20A5CDFF85836C9B2CB182D
:1006200083F86020491CC9B22029F3DB7047DFF84A
:10063000C80A70470021002108E0C9B20A5CDFF84F
:100640003436C9B2CB1883F88F20491CC9B20329AC
:10065000F3DB7047DFF8A40A7047DFF81816C1F81B
:1006600098007047DFF80C06D0F898007047DFF864
:100670000416C1F89C007047DFF8F805D0F89C001C
:100680007047DFF8F015C1F8A4007047DFF8E40503
:10069000D0F8A4007047DFF8DC15C1F8A800704757
:1006A000DFF8D005D0F8A8007047DFF8C815C1F80A
:1006B000AC007047DFF8BC05D0F8AC007047DFF83D
:1006C000B415C1F8A0007047DFF8A805D0F8A00065
:1006D0007047DFF8A01581F8B0007047DFF8940587
:1006E00090F8B0007047DFF88C1581F8B1007047C2
:1006F000DFF8800590F8B1007047DFF8781581F8D1
:10070000B2007047DFF86C0590F8B2007047DFF870
:10071000641581F8B3007047DFF8580590F8B3000E
:1007200070470021002108E0C9B20A5CDFF84435B7
:10073000C9B2CB1883F8B420491CC9B20329F3DB32
:100740007047DFF8680C7047DFF82815886170473C
:10075000DFF8200580697047DFF8181508627047D8
:10076000DFF81005006A7047DFF808154862704727
:10077000DFF80005406A7047002108E0C9B20A5C52
:10078000DFF8F034C9B2CB1883F89220491CC9B203
:100790000629F3DB7047DFF8180C7047DFF8D41434
:1007A00081F83B007047DFF8CC0490F83B007047BD
:1007B000DFF8000C807910F080007047DFF8B41487
:1007C000C1F8B8007047DFF8AC04D0F8B800704743
:1007D000DFF8A01481F8BC007047DFF8980490F8A7
:1007E000BC007047DFF88C1481F8BD007047DFF85B
:1007F000840490F8BD007047DFF8781481F8BE00DB
:100800007047DFF8700490F8BE007047DFF864149A
:10081000C1F8C0007047DFF85C04D0F8C000704732
:10082000DFF8501481F8C4007047DFF8480490F8EE
:10083000C4007047DFF83C1481F8C5007047DFF84A
:10084000340490F8C5007047DFF8281481F8C6001A
:100850007047DFF8200490F8C6007047DFF81414E2
:10086000C1F8C8007047DFF80C04D0F8C800704722
:100870000400FA05DFF8FC1381F8CC007047DFF8BC
:10088000F40390F8CC007047DFF8E81381F8CD004E
:100890007047DFF8E00390F8CD00704700E100E01A
:1008A000DFF8D01381F8CE00704700000CED00E0B7
:1008B000DFF8C00390F8CE00704700006060004091
:1008C000DFF8B013C1F8D0007047DFF8A803D0F804
:1008D000D0007047DFF89C1381F8D4007047000007
:1008E000D00A0020DFF88C0390F8D4007047000095
:1008F00030600040DFF87C1381F8D5007047DFF8E6
:10090000740390F8D5007047DFF8681381F8D600BB
:100910007047DFF8600390F8D6007047D549C1F8FA
:10092000D8007047D348D0F8D8007047D14981F833
:10093000DC007047CF4890F8DC007047CD4981F863
:10094000DD007047CB4890F8DD007047C94981F859
:10095000DE007047C74890F8DE007047C549C1F80F
:10096000E0007047C348D0F8E0007047C14981F803
:10097000E4007047BF4890F8E4007047BD4981F833
:10098000E5007047BB4890F8E5007047B94981F829
:10099000E6007047B74890F8E600704700200DE089
:1009A0000021DFF8D02AC0B222F820100021DFF8A1
:1009B000C42AC0B212EB80029170401CC0B203285E
:1009C000EEDB7047D40A0020D20A002080B5202137
:1009D0005FF0804002F0CAFB1823002240215FF044
:1009E000804002F0B3FB01BD00B585B002A8DFF87E
:1009F000881A092202F0C0FBFFF7E8FF00F096FC1E
:100A00000B20FFF76DFB1120FFF76AFBFFF731FCAE
:100A1000FFF780FC06236A46092102A800F06AFF5E
:100A20006846FFF7BBFD0021012000F094FC002088
:100A3000FFF70EFD0520FFF71FFD0020FFF730FD3B
:100A400001210A20FFF749FCDFF8300AFFF795FC87
:100A500005B000BD5C51000080B5DFF8240A0088B5
:100A600000284ED0DFF8180A0088401EDFF8101A60
:100A70000880DFF8100A0078002809D100F042F859
:100A800001210A20FFF729FCDFF8FC09FFF775FCBC
:100A9000DFF8F0090078012833D100F095F8FFF76E
:100AA000F0FCDFF8E8190870DFF8C40D8078DFF893
:100AB000C01D09790818001DDFF8D4190880DFF877
:100AC000D409DFF8D41908602021DFF8D00902F03A
:100AD00033FB002004E000BF491C0A29FBDB401C5B
:100AE000B0F5FA7F01DA0021F7E70121002000F0DC
:100AF00032FC01210A20FFF7F0FBDFF8780DFFF749
:100B00003CFC01BD10B5DFF898090478FFF7A5FC9F
:100B1000C0B200280CD00120DFF88819087000212D
:100B2000022000F0A4FF0120DFF87C19087003E028
:100B30000020DFF870190870DFF8680900780028D5
:100B400016D0022000F0B4FF002811D00120DFF8F9
:100B50005C190870DFF850090078C04310F00100FC
:100B6000DFF8441908704B21022000F080FF29E0D3
:100B7000E4B2022C0ED0062C02D0FF2C22D121E0B0
:100B80000021022000F073FF4FF48271012000F079
:100B90006EFF17E000F06BFA00280DD00021022054
:100BA00000F065FF4FF48271012000F060FF01202A
:100BB000DFF8D018087004E040F23111022000F094
:100BC00056FFFFE710BD000038B5FFF746FC0400F4
:100BD000DFF8E0078078DFF8DC17DFF8D8279278B5
:100BE0005118C9790818C51C012000F061FF0028C0
:100BF00004D00020DFF88C18087017E0EDB229004F
:100C000089B2DFF8AC0800F07BFADFF8A817EDB284
:100C100069184979C0B2884204D10620DFF88C18DF
:100C2000087003E0EE20DFF88418087000F0F2F995
:100C3000DFF83C0C8078DFF8381C09790818C51CEF
:100C4000EDB2290089B2DFF84C0800F059FADFF85C
:100C5000201CEDB269184871E4B2002C04D00020C9
:100C6000DFF82018087003E00020DFF8181808707B
:100C700031BD00000809002072B6704762B67047A7
:100C800038B505000C00FFF7E8FB0021DFF80C2C5D
:100C90001180C0B2002835D0FFF7E9FBEDB26D2D11
:100CA00004D1DFF8FC1BDFF8FC2B1160C0B2012877
:100CB00004D01ED3032813D009D31AE0012004F86E
:100CC000020CDFF8980BDFF8DC1B086095E10220CE
:100CD00004F8020CDFF8A00BDFF8C81B08608CE1F9
:100CE000032004F8020CDFF8940BDFF8B81B08604F
:100CF00083E1012004F8020CDFF8600BDFF8A41B8D
:100D000008607AE1EDB2002D7BD0012D00F07F80EC
:100D1000022D00F08280032D00F08580062D00F06A
:100D20008880072D00F08B80082D00F08E80092D23
:100D300000F091800B2D00F094800C2D00F0978036
:100D40000D2D00F09A800E2D00F09D800F2D00F0EB
:100D5000A080102D00F0A380112D00F0A680122D90
:100D600000F0A980132D00F0AC80142D00F0AF80AE
:100D7000152D00F0B280162D00F0B580212D00F069
:100D8000B880222D00F0BB80232D00F0BE80242DE2
:100D900000F0C180252D00F0C480262D00F0C78012
:100DA000282D00F0CA80292D00F0CD802A2D00F0DA
:100DB000D0802B2D00F0D3802C2D00F0D6802D2D4F
:100DC00000F0D9802E2D00F0DC802F2D00F0DF8088
:100DD000302D00F0E280312D00F0E580322D00F062
:100DE000E880332D00F0EB803B2D00F0EE806C2D81
:100DF00000F0F1806D2D00F0F480C82D00F0F78038
:100E0000FBE0DFF8A40ADFF89C1A0860F5E0DFF8E1
:100E10004C0ADFF8901A0860EFE0DFF85C0ADFF8B0
:100E2000841A0860E9E0DFF8540ADFF8781A0860ED
:100E3000E3E0DFF8780ADFF86C1A0860DDE0DFF83D
:100E4000700ADFF8601A0860D7E0DFF8680ADFF898
:100E5000541A0860D1E0DFF8600ADFF8481A086029
:100E6000CBE0DFF8440ADFF83C1A0860C5E0DFF8A1
:100E70004C0ADFF8301A0860BFE0DFF8440ADFF8F8
:100E8000241A0860B9E0DFF83C0ADFF8181A086095
:100E9000B3E0DFF8340ADFF80C1A0860ADE0DFF8E1
:100EA0002C0ADFF8001A0860A7E0DFF8240ADFF850
:100EB000F4190860A1E0DFF81C0ADFF8E8190860FF
:100EC0009BE0DFF8140ADFF8DC19086095E0DFF832
:100ED0000C0ADFF8D01908608FE0DFF8CC09DFF8E2
:100EE000C419086089E0DFF8F809DFF8B81908606C
:100EF00083E0DFF8F009DFF8AC1908607DE0DFF887
:100F0000E809DFF8A019086077E0DFF8E009DFF80A
:100F10009419086071E0DFF8D809DFF888190860D3
:100F20006BE0DFF8840BDFF87C19086065E0DFF820
:100F30007C0BDFF8701908605FE0DFF89C0BDFF8CE
:100F40006419086059E0DFF8940BDFF8581908605D
:100F500053E0DFF88C0BDFF84C1908604DE0DFF848
:100F6000840BDFF84019086047E0DFF87C0BDFF8FE
:100F70003419086041E0DFF8740BDFF828190860C5
:100F80003BE0DFF86C0BDFF81C19086035E0DFF898
:100F9000640BDFF8101908602FE0DFF85C0BDFF856
:100FA0000419086029E0DFF8540BDFF8F81808602E
:100FB00023E0DFF84C0BDFF8EC1808601DE0DFF8E9
:100FC000440BDFF8E018086017E0DFF83C0BDFF8AF
:100FD000D418086011E0DFF8340BDFF8C818086097
:100FE0000BE0DFF8BC08DFF8BC18086005E0DFF8AC
:100FF000200BDFF8B0180860FFE7FFF73DFE200088
:10100000DFF8A01809688847FFF738FEDFF88C087A
:10101000008832BD80B5E7488078052813D1E548BF
:10102000C07ADFF8F01ADFF84828D072C0B2FFF7B4
:1010300027FEDFF83C180871DFF834080079DFF884
:101040003018087312E0DB48C079DFF8CC1ADFF8FB
:101050002028D071C0B2FFF713FEDFF81418087112
:10106000DFF80C080079DFF80818087201BD80B5B8
:10107000FFF71BFACF49897801290AD1C0B2CD49BF
:10108000897911F03F01884201D101202BE0002035
:1010900029E0DFF8A00C007810F03F00C5498979FD
:1010A00011F03F0188421DD1DFF8880C4078C1491A
:1010B000C979884216D1DFF87C0C8078BD49097A5D
:1010C00088420FD1DFF86C0CC078BA49497A88425F
:1010D00008D1DFF8600C0079B649897A884201D1DD
:1010E000012000E0002002BD4A0900206209002022
:1010F0008809002094090020680900209709002031
:1011000010B40022002303E0DBB21C5C62405B1CD5
:101110001C00E4B2A4B289B28C42F5D31000C0B274
:1011200010BC704700B587B003A8DFF8A81C0922DF
:1011300002F022F8062301AA092103A800F0DAFB35
:101140006846DFF8941C0A6802600020FFF720F967
:101150000020FFF725F90020FFF726F90020FFF710
:1011600027F95FF08140FFF763F90020FFF768F986
:101170000020FFF7E9FA0020FFF7F9F90020FFF758
:10118000EBFA0020FFF7F0FA3120FFF715F9002005
:10119000FFF71CF90020FFF71EF90020FFF720F9E8
:1011A0000020FFF722F90020FFF729F90020FFF7C0
:1011B0002BF90020FFF72DF9C020FFF72FF9312080
:1011C000FFF764F90020FFF76BF90120FFF772F9D0
:1011D0000520FFF751F90020FFF744F90020FFF741
:1011E00037F90020FFF7B6F90020FFF7B8F9012022
:1011F000FFF76AF90020FFF7D1FA0020FFF76EF938
:101200000020FFF775F90020FFF77CF90020FFF7B9
:1012100083F90020FFF78AF90020FFF791F90020F9
:10122000FFF7A9F901A8FFF7B9F90020FFF7EFF9D7
:101230006846FFF7D9F90020FFF7FCF90020FFF717
:101240009BFADFF8B00BFFF708FADFF8AC0BFFF7FB
:101250000EFA0020FFF733FADFF8A00BFFF711FAC0
:10126000DFF8FC0CFFF717FA5FF07E50FFF71DFA6E
:10127000FB20FFF72EFA0020FFF735FA0020FFF7DA
:101280003CFA0120FFF743FA0020FFF74AFADFF8A3
:10129000300CFFF793FA3120FFF79AFAFA20FFF7A4
:1012A000A1FAC020FFF7A8FADFF8180CFFF7AEFA92
:1012B0003120FFF7B5FAFA20FFF7BCFAC020FFF79C
:1012C000C3FADFF89C0CFFF7C9FA3120FFF7D2FA16
:1012D000FA20FFF7D9FAC020FFF7E2FA0020FFF763
:1012E000EFFAFB20FFF7F6FAFA20FFF703FBC02026
:1012F000FFF70AFB5FF07E50FFF710FBFB20FFF7C4
:1013000015FBFA20FFF71AFBC020FFF71FFB5FF069
:101310007E50FFF723FBFB20FFF728FBFA20FFF7A7
:101320002DFBC020FFF732FB07B000BD80B50823BE
:1013300003224FF49661DFF8100D01F059FF0022EF
:101340000121DFF8040D01F0B1FF0321DFF8F80CF3
:1013500001F0B1FF01BD80B5C0B2002808D0C9B20C
:10136000002905D00321DFF8E00C01F0A4FF1CE008
:10137000C0B2002808D1C9B2002905D00221DFF887
:10138000C80C01F098FF10E0C0B2002808D0C9B224
:10139000002905D10121DFF8B00C01F08CFF04E039
:1013A0000021DFF8A40C01F086FF01BDBC0900207C
:1013B0009A0900205C0A002080B5DFF8B4040079A7
:1013C000022856DBDFF8180C0078002802D001282C
:1013D00004D04EE00120DFF8081C08702B4800788C
:1013E000002808D0FF2000F03BFA28480078401E73
:1013F0002649087017E02648008800280FD02648A4
:101400000068007800F02CFA23480068401C22494C
:1014100008601F480088401E1D49088003E0022024
:10142000DFF8BC1B0870DFF8B80B007802281FD16A
:10143000002004E000BF491C0A29FBDB401CB0F57A
:10144000FA7F01DA0021F7E72021144801F071FE4C
:1014500000210120FFF77FFF0020DFF8841B0870C8
:1014600002210A20FEF739FFDFF8980CFEF785FF0E
:10147000FFE701BDA80A0020405B00004C5B0000B4
:10148000CC0A0020DA0A0020585B0000DD0A0020A8
:10149000C80A0020F5090020C00A002000600040B2
:1014A000D80A0020DE0A002004010020D90A00200A
:1014B000610A002010B5DFF8900B01F0F5FE040082
:1014C000DFF8440C0078002804D0022800F02F81B7
:1014D00010D3C1E1E4B2FF2C0BD10120DFF82C1CAA
:1014E00008700120DFF8201C08701421002000F093
:1014F000BEFAB1E1002000F0DBFA002804D0FF20A2
:10150000DFF80C1C08700DE1E4B2FF2C07D1DFF806
:10151000FC0B0078401CDFF8F41B087002E1E4B219
:10152000200001285AD002280AD006282FD081286E
:1015300000F0C980822878D0862800F09D80E9E0FC
:10154000DFF8C80B007802281CDB0120DFF8CC157F
:1015500088700220DFF8B81B08700020DFF8B41B89
:101560000880DFF8B00B0088411CDFF8A82B118041
:10157000DFF8A81580B2401844710220DFF8881BFC
:10158000087003E0FF20DFF8881B0870CAE0DFF86E
:101590007C0B007802281CDB0120DFF880158870A6
:1015A0000620DFF86C1B08700020DFF8681B08803D
:1015B000DFF8600B0088411CDFF8582B1180DFF842
:1015C0005C1580B2401844710220DFF83C1B0870A3
:1015D00003E0FF20DFF8381B0870A3E0DFF82C0BD6
:1015E000007802281CDB0120DFF83015887001200C
:1015F000DFF81C1B08700020DFF8181B0880DFF8DC
:10160000140B0088411CDFF80C2B1180DFF80C153F
:1016100080B2401844710220DFF8EC1A087003E031
:10162000FF20DFF8EC1A08707CE0DFF8E00A0078B1
:1016300002281CDB0520DFF8E41488700220DFF8A4
:10164000D01A08700020DFF8CC1A0880DFF8C40A2E
:101650000088411CDFF8BC2A1180DFF8C01480B27A
:10166000401844710220DFF8A01A087003E0FF2040
:10167000DFF89C1A087055E0DFF8900A007802281D
:101680001CDB0520DFF8941488700620DFF8801A30
:1016900008700020DFF87C1A0880DFF8780A0088DC
:1016A000411CDFF8702A1180DFF8701480B24018F6
:1016B00044710220DFF8501A087003E0FF20DFF8C1
:1016C000501A08702EE0DFF8440A007802281CDB6C
:1016D0000520DFF8481488700120DFF8341A0870FC
:1016E0000020DFF8301A0880DFF8280A0088411C43
:1016F000DFF8202A1180DFF8241480B240184471EA
:101700000220DFF8041A087003E0FF20DFF8001A57
:10171000087007E0FF20DFF8F81908700320DFF8F1
:10172000E81908701421002000F0A1F994E00020CD
:1017300000F0BEF9002804D0FF20DFF8D4190870AB
:101740003DE0DFF8D0090088411CDFF8C82911808E
:10175000DFF8C81380B240184471DFF8C003807806
:10176000012816D1DFF8AC090088042803D1E4B2BF
:10177000DFF8A4090480DFF8A0090088001DDFF865
:101780009419098888421ADA0320DFF87C19087056
:1017900015E0DFF880090088082803D1E4B2DFF8FB
:1017A00078090480DFF8700900880830DFF86419D0
:1017B0000988884203DA0320DFF84C1908701421E5
:1017C000002000F054F9DFF840090078032842D1E6
:1017D000002000F06DF90020DFF8401908700020AB
:1017E000DFF8241908700020DFF8201908700020A5
:1017F000DFF82419088000F043F800210020FFF7EB
:10180000AAFD02210A20FEF768FDDFF81409FEF7A1
:10181000B4FDDFF808038278DFF80819DFF8740DEB
:1018200001F04EFD03210A20FEF757FDDFF8640D9D
:10183000FEF7A3FDDFF8D8080278DFF8101DDFF807
:10184000540D01F03DFD04210A20FEF746FDDFF8AE
:10185000440DFEF792FDFFE710BD0000271F0000BA
:1018600080B5C0B20100DFF8C00801F015FD01BD70
:10187000F0090020305B0000651F0000971F00008A
:1018800080B5FFF7F9F9DFF8980D0088401CDFF804
:10189000901D0880FFF7F2F901BD0000CE0A00207C
:1018A00001300000BC0A00200B1F0000E91F0000EF
:1018B0004D2000008F2000002D2100005125000048
:1018C00099250000252600009D26000049270000DC
:1018D00083270000C72700001D280000652800009E
:1018E000A1280000E9280000792A0000B92A000098
:1018F000292B0000F0B40023002489B2002901D173
:101900000020A3E000250AE0EDB2AE5C403E202EB0
:1019100004D2EDB2AE5C403EEDB2AE546D1C2E0072
:10192000F6B2B6B289B28E42EED3002501E0D21CE7
:10193000001D89B2002900F08880DBB29E5C16F0A1
:101940000306DBB29E54DBB29E5CE4B2275C56EA2F
:101950008706DBB29E546D1C491E89B2002901D155
:10196000012073E0DBB29E5C16F0FC06DBB29E54F5
:10197000DBB29E5CE4B227187F78C7F301173E43C1
:10198000DBB29E54DBB29E18767816F00F06DBB2FF
:101990009F187E70DBB29E187678E4B227187F78A5
:1019A00056EA0716DBB29F187E706D1C491E89B27D
:1019B000002901D1012049E0DBB29E18767816F0AB
:1019C000F006DBB29F187E70DBB29E187678E4B228
:1019D0002718BF78C7F383073E43DBB29F187E709A
:1019E000DBB29E18B67816F03F06DBB29F18BE70C9
:1019F000DBB29E18B678E4B22718BF7856EA87168D
:101A0000DBB29F18BE706D1C491E89B2002901D13E
:101A100001201BE0DBB29E18B67816F0C006DBB2E0
:101A20009F18BE70DBB29E18B678E4B22718FF7814
:101A300017F03F073E43DBB29F18BE70491E89B2C4
:101A400000297FF474AF012000E00020F0BC704753
:101A5000817800290AD10188002907D00188491E10
:101A600001800188002901D1012181707047C0B235
:101A7000032816DADFF8E82DC0B222F8201089B268
:101A8000002907D00021DFF8D82DC0B212EB80006A
:101A9000817006E00121DFF8C82DC0B212EB800092
:101AA0008170704700000000492B0000712B00007E
:101AB000DFF8AC1DC0B211EB80018978012908D193
:101AC0000021DFF89C2DC0B212EB80008170012054
:101AD00000E0002070470000AD2B0000E92B000063
:101AE000F12B0000072C0000312C00006F2C0000AF
:101AF000CD2C00002B2D0000692D0000612E000070
:101B0000B92E0000152F0000952F0000CB2F0000EC
:101B100031300000FD090020F90900205C0A002096
:101B200038B50400FE20DFF8BC1D09880855DFF831
:101B3000B40D0088401CDFF8AC1D0880E320DFF8FE
:101B4000A41D09880855DFF89C0D0088401CDFF8AB
:101B5000941D08807D20DFF88C1D09880855DFF86A
:101B6000840D0088401CDFF87C1D0880DFF8740DB0
:101B70000588681CDFF86C1D0880FEF782FCADB29A
:101B800028550720DFF85C1D09880855DFF8540D3B
:101B90000088401CDFF84C1D08800020DFF8441D41
:101BA00009880855DFF83C0D0088401CDFF8341D1B
:101BB00008800020DFF82C1D09880855DFF8240D67
:101BC0000088401CDFF81C1D08800020DFF8141D71
:101BD00009880855DFF80C0D0088401CDFF8041D4B
:101BE00008800020DFF8FC1C09880855DFF8F40C99
:101BF0000088401CDFF8EC1C08807020DFF8E41C33
:101C000009880855DFF8DC0C0088401CDFF8D41C7C
:101C100008800020DFF8CC1C09880855DFF8C40CC8
:101C20000088401CDFF8BC1C08800020DFF8B41CD2
:101C300009880855DFF8AC0C0088401CDFF8A41CAC
:101C40000880DFF8A00C0588681CDFF8981C088065
:101C5000FEF717FCADB228550720DFF8881C09886D
:101C60000855DFF8800C0088401CDFF8781C0880DD
:101C7000DFF8700C0588681CDFF8681C0880FEF728
:101C800072FC80B2000AADB22855DFF8580C058806
:101C9000681CDFF8501C0880FEF765FCADB22855C3
:101CA0000020DFF8401C09880855DFF8380C008850
:101CB000401CDFF8301C08806020DFF8281C0988F1
:101CC0000855DFF8200C0088401CDFF8181C08803D
:101CD000DE20DFF8101C09880855DFF8080C0088A2
:101CE000401CDFF8001C08806020DFF8F81B098822
:101CF0000855DFF8F00B0088401CDFF8E81B08806F
:101D0000DE20DFF8E01B09880855DFF8D80B0088D3
:101D1000401CDFF8D01B08800120DFF8C81B0988B1
:101D20000855DFF8C00B0088401CDFF8B81B08809E
:101D300031BD00000000002080B5DFF8741D097877
:101D400051F04001DFF8682D1170C0B2FEF702FCBF
:101D500001BD81B0002106E0C9B2421AD2786B46BB
:101D6000C9B2CA54491CC9B20429F5DB009801B0B4
:101D70007047CA78DFF86C3B1B881A54DFF8642B75
:101D80001288521CDFF85C3B1A808A78DFF8543BDB
:101D90001B881A54DFF84C2B1288521CDFF8443B86
:101DA0001A804A78DFF83C3B1B881A54DFF8342B42
:101DB0001288521CDFF82C3B1A800978DFF8242B9C
:101DC00012881154DFF81C0B0088401CDFF8141B2C
:101DD00008807047645B0000945B0000DFF8D40C5F
:101DE0008078052802D1DFF83C0D01E0DFF8B40D62
:101DF00070470000000016440000C8C20000F04315
:101E000080B5FEF752FBDFF8AC1C8978052903D1B9
:101E10000521744A917002E00121724A9170DFF845
:101E2000481D0978002903D001216E4A517010E045
:101E300006216C4A5170DFF87C1C8979090604D5AB
:101E40000121DFF8282D117003E00021DFF81C2D9F
:101E5000117064498978052926D16248407850F08C
:101E6000800060494871DFF8400D007810F03F00B5
:101E7000DFF8F81C097850EAC1105A498871DFF878
:101E8000280D40785749C871DFF81C0D80785549F6
:101E90000872DFF8140DC07852494872DFF8080D57
:101EA0000079504988720AE04E4949784D4A51718B
:101EB000DFF8B81C097850EAC1104A49887101BDA1
:101EC000000096430000C84310B50400FFF798FFD8
:101ED000DFF8540D0078DFF80C1A09880855DFF890
:101EE000040A0088401CDFF8FC190880DFF8C00BEA
:101EF0000078DFF8F01909880855DFF8E80900884C
:101F0000401CDFF8E019088010BD10B50400200067
:101F1000FFF7DAFFDFF8100D0078002802D120006B
:101F2000FFF7FEFD10BD38B504002000FFF7CCFF21
:101F3000DFF8F40C0078002811D1FEF72DFA00909C
:101F4000DFF8A0090588681CDFF898190880FEF7FB
:101F500038FAADB2285569462000FFF70AFF31BDB7
:101F60000000F0411CB504002000FFF7ADFFDFF8D2
:101F7000B80C007800280DD1FEF75EFA0190FEF74C
:101F800063FA009001A92000FFF7F3FE69462000E4
:101F9000FFF7EFFE13BD30B583B004002000FFF75C
:101FA00093FFDFF8840C0078002818D1FEF744FA7C
:101FB0000190FEF7F1F9009001A92000FFF7D9FE8A
:101FC000DFF820090588681CDFF818190880FEF77B
:101FD000F8F9ADB2285569462000FFF7CAFE37BDB3
:101FE000DC0A0020F009002038B504002000FFF7CB
:101FF0006BFFDFF8340C0078002823D1FFF7EEFEEA
:1020000005002878DFF8DC1809880855DFF8D408BF
:102010000088401CDFF8CC1808806878DFF8C41806
:1020200009880855DFF8BC080088401CDFF8B418A0
:1020300008802878FEF734FA6878FEF73BFA062025
:10204000FFF77AFE31BD00000050004038B50400B3
:102050002000FFF739FFDFF8D00B0078002815D1FA
:10206000DFF880080588681CDFF878180880FEF71C
:102070001CFAADB22855DFF86C080588681CDFF83B
:1020800064180880FEF71BFAADB2285531BD10B5B3
:1020900004002000FFF718FFDFF88C0B0078002801
:1020A0002FD16E20DFF83C1809880855DFF8340876
:1020B0000088401CDFF82C180880FA20DFF824186C
:1020C00009880855DFF81C080088401CDFF8141840
:1020D0000880FA20DFF80C1809880855DFF8040892
:1020E0000088401CDFF8FC170880FA20DFF8F4179E
:1020F00009880855DFF8EC070088401CDFF8E41772
:10210000088010BD705B0000DB0A0020E10A00209F
:10211000D80A0020CA0A0020D60A0020DA0A0020C5
:102120007C5B00001C5B00000050004038B50400E0
:102130002000FFF7C9FEDFF8F00A0078002840F021
:102140000482DFF8A0070588681CDFF8981708806C
:10215000FEF7BFF9ADB22855DFF888070588681C7F
:10216000DFF880170880FEF745F9ADB228556E20DC
:10217000DFF8701709880855DFF868070088401CE9
:10218000DFF860170880DFF85C070588681CDFF857
:1021900054170880FEF715F9ADB22855FEF7FCF884
:1021A000009069462000FFF7E4FDDFF83807058856
:1021B000681CDFF830170880FEF735F9ADB22855F6
:1021C000DFF820070588681CDFF818170880FEF77D
:1021D0000EFBADB228556E20DFF8081709880855A8
:1021E000DFF800070088401CDFF8F8160880DFF8E9
:1021F000F4060588681CDFF8EC160880FEF7EDFA97
:10220000ADB22855FEF7DFFA009069462000FFF7CF
:10221000B0FDDFF8D0060588681CDFF8C816088016
:10222000FEF7EFFAADB22855DFF8B8060588681C4E
:10223000DFF8B0160880FEF702FBADB228556E201D
:10224000DFF8A01609880855DFF898060088401CBA
:10225000DFF890160880DFF88C060588681CDFF828
:1022600084160880FEF7E1FAADB22855FEF7D3FADE
:10227000009069462000FFF77CFDDFF868060588BE
:10228000681CDFF860160880FEF7E3FAADB2285547
:10229000DFF850060588681CDFF848160880FEF74E
:1022A000F8FAADB228556E20DFF8381609880855BF
:1022B000DFF830060088401CDFF828160880DFF8B9
:1022C00024060588681CDFF81C160880FEF7D7FA7C
:1022D000ADB22855FEF7C7FA009069462000FFF717
:1022E00048FDDFF800060588681CDFF8F81508804F
:1022F000FEF7DEFAADB22855DFF8E8050588681C60
:10230000DFF8E0150880FEF7FAFAADB22855002094
:10231000DFF8D01509880855DFF8C8050088401C8B
:10232000DFF8C0150880DFF8BC050588681CDFF8F9
:10233000B4150880FEF7D6FAADB22855FEF7C5FAF7
:10234000009069462000FFF714FDDFF89805058826
:10235000681CDFF890150880FEF7DBFAADB228554F
:10236000DFF880050588681CDFF878150880FEF71F
:10237000E9FAADB228550020DFF86815098808553C
:10238000DFF860050088401CDFF858150880DFF88A
:1023900054050588681CDFF84C150880FEF7CAFA5A
:1023A000ADB22855FEF7BEFA009069462000FFF74F
:1023B000E0FCDFF830050588681CDFF82815088088
:1023C000FEF7C8FAADB22855DFF818050588681C75
:1023D000DFF810150880FEF7D5FAADB228550020B9
:1023E000DFF8001509880855DFF8F8040088401C5C
:1023F000DFF8F0140880DFF8EC040588681CDFF8CB
:10240000E4140880FEF7B6FAADB22855FEF7AAFA32
:10241000009069462000FFF7ACFCDFF8C80405888F
:10242000681CDFF8C0140880FEF7B4FAADB2285576
:10243000FA20DFF8B01409880855DFF8A8040088EE
:10244000401CDFF8A01408800020DFF898140988E9
:102450000855DFF890040088401CDFF888140880D5
:10246000FA20DFF8801409880855DFF8780400881E
:10247000401CDFF8701408807F20DFF8681409889A
:102480000855DFF860040088401CDFF85814088005
:10249000A020DFF8501409880855DFF848040088A8
:1024A000401CDFF8401408800020DFF83814098849
:1024B0000855DFF830040088401CDFF82814088035
:1024C0000020DFF8201409880855DFF81804008878
:1024D000401CDFF8101408803020DFF80814098849
:1024E0000855DFF800040088401CDFF8F813088066
:1024F000DFF8000C90F88C00DFF8E8130988085525
:10250000DFF8E0030088401CDFF8D8130880DFF80C
:10251000E40B90F88D00DFF8CC1309880855DFF83C
:10252000C4030088401CDFF8BC130880DFF8C40B2C
:1025300090F88E00DFF8AC1309880855DFF8A40383
:102540000088401CDFF89C13088031BD045B00004C
:1025500010B5040000212000FFF7B6FCDFF8C80624
:102560000078002814D1FEF716F800210DE0C9B25A
:102570000A5CDFF870331B881A55DFF8682312886D
:10258000521CDFF860331A80491CC9B21829EEDBEF
:1025900010BD0000940A002070B504000021200046
:1025A000FFF792FCDFF880060078002837D1FEF7AD
:1025B00005F80500FEF715F80600FEF725F80021DE
:1025C0000AE0C9B24A5DC74B1B881A55C54A128832
:1025D000521CC44B1A80491CC9B20629F1DB0021E8
:1025E0000AE0C9B28A5DBF4B1B881A55BD4A1288E2
:1025F000521CBC4B1A80491CC9B20C29F1DB0021CA
:102600000AE0C9B20A5CB74B1B881A55B54A128852
:10261000521CB44B1A80491CC9B20329F1DB70BDAE
:10262000CC0A002038B5040000212000FFF74CFC44
:10263000DFF8F405007800282FD1FEF70BF8002111
:102640000AE0C9B20A5CA74B1B881A55A54A128832
:10265000521CA44B1A80491CC9B20329F1DBA148C2
:102660000588681C9F490880FDF7ABFEADB2285570
:10267000FDF7F8FF009069462000FFF77AFBFDF7B1
:10268000FBFF009069462000FFF773FBFEF71CF884
:10269000009069462000FFF76CFB31BD3EB5040099
:1026A0002000FFF711FCDFF88005007800284AD1F0
:1026B000FDF7ECFF0290FDF7F3FF0190FDF7FAFF45
:1026C000009088480588681C86490880FEF706F84F
:1026D000ADB2285583480588681C82490880FEF7FA
:1026E00007F8ADB228557F480588681C7D490880E9
:1026F000FDF7D1FEADB2285502A92000FFF739FB46
:1027000001A92000FFF735FB69462000FFF731FBE8
:1027100074480588681C73490880FDF7F3FFADB263
:102720002855FA206F49098808556E480088401CD2
:102730006C4908806B480588681C6A490880FDF769
:10274000EBFFADB2285537BD10B504002000FFF7F0
:10275000BBFBDFF8D4040078002811D1FDF7F1FFAE
:1027600000210AE0C9B20A5C5E4B1B881A555D4A1B
:102770001288521C5B4B1A80491CC9B20329F1DB39
:1027800010BD10B504002000FFF79EFBDFF8980491
:102790000078002816D1FFF721FB00210AE0C9B21A
:1027A0000A5C504B1B881A554E4A1288521C4D4BDE
:1027B0001A80491CC9B21829F1DBFDF7DCFE112093
:1027C000FFF7BAFA10BD38B504002000FFF77CFB14
:1027D000DFF85404007800281FD1FFF7FFFA050046
:1027E00000200AE0C0B2415D3E4A128811553D49C1
:1027F0000988491C3B4A1180401CC0B21528F1DBF6
:102800002800FDF7CBFEA81DFDF7DBFE15F1120039
:10281000FDF7EAFE1220FFF78FFA31BD10B5040074
:102820002000FFF751FBDFF800040078002816D1E4
:10283000FFF7D4FA00210AE0C9B20A5C294B1B88D1
:102840001A55284A1288521C264B1A80491CC9B2B4
:102850000329F1DBFDF765FF1320FFF76DFA10BDCB
:10286000A80A002010B5040000212000FFF72CFB6F
:10287000DFF8B4030078002811D1FDF7D8FE00215D
:102880000AE0C9B20A5C174B1B881A55154A128810
:10289000521C144B1A80491CC9B22029F1DB10BD0F
:1028A00010B504002000FFF70FFBDF480078002878
:1028B00016D1FFF793FA00210AE0C9B20A5C094B6E
:1028C0001B881A55074A1288521C064B1A80491C4D
:1028D000C9B22029F1DBFDF79AFE1620FFF72CFA8A
:1028E00010BD0000CE0A0020F8B504002000FFF75C
:1028F000EBFACD480078002840F0BD80FFF76EFA73
:102900000500002649E0F6B2705DDFF8EC17098893
:102910000855DFF8E4070088401CDFF8DC17088062
:10292000FA20DFF8D41709880855DFF8CC070088AB
:10293000401CDFF8C41708807F20DFF8BC17098827
:102940000855DFF8B4070088401CDFF8AC17088092
:10295000A020DFF8A41709880855DFF89C07008835
:10296000401CDFF8941708800020DFF88C170988D6
:102970000855DFF884070088401CDFF87C170880C2
:102980000020DFF8741709880855DFF86C07008805
:10299000401CDFF864170880761CF6B2042E6ADA51
:1029A000F6B2705DF42804D0ADD3F62843D021D31D
:1029B000A9E7F6B2705DDFF8401709880855DFF81F
:1029C00038070088401CDFF8301708803920DFF80E
:1029D000281709880855DFF820070088401CDFF811
:1029E00018170880FDF730FD009069462000FFF7BA
:1029F000C0F9D1E7F6B2705DDFF8FC16098808551A
:102A0000DFF8F4060088401CDFF8EC160880272069
:102A1000DFF8E41609880855DFF8DC060088401C5A
:102A2000DFF8D4160880FDF707FD00906946200006
:102A3000FFF79FF9B0E7F6B2705DDFF8BC160988C2
:102A40000855DFF8B4060088401CDFF8AC16088093
:102A5000DFF8A4060788781CDFF89C160880FDF7CD
:102A6000B0FCBFB23855FDF797FC009069462000D6
:102A7000FFF77FF990E7F1BD10B582B004002000A8
:102A8000FFF722FADFF87406007800280ED1FFF76E
:102A9000A5F9FFF75EF9009069462000FFF769F994
:102AA0000098FDF702FE2220FFF746F913BD000053
:102AB000E00A00205C0A002030B583B0040020004A
:102AC000FFF702FA5848007800282AD1FFF786F964
:102AD0000500681CFFF73DF90190681DFFF739F903
:102AE00000902878DFF8101609880855DFF80806E6
:102AF0000088401CDFF80016088001A92000FFF7BD
:102B000038F969462000FFF734F92878FDF7BEFC54
:102B10000198FDF7B6FD0098FDF7BDFD2320FFF7F6
:102B20000BF937BD690A002080B5FFF7CDF9DFF852
:102B3000CC050078002806D1FDF72EFCFDF7A1FD9D
:102B40002420FFF7F9F801BD80B5FFF7BDF9DFF8E4
:102B5000AC050078002806D1FDF71EFCFDF79BFDB3
:102B60002520FFF7E9F801BDDE0A0020040100205E
:102B700080B5FFF7A9F92C480078002810D12B4820
:102B8000007810F0BF0029490870FDF711FE0028F9
:102B900003D08020FDF7DEFC02E04020FDF7DAFCE8
:102BA00001BD0000650A00200000002010B582B0C1
:102BB00004002000FFF788F9DFF8400500780028BE
:102BC00011D1FDF739FC009069462000FFF7D1F8DC
:102BD000FFF704F9FFF7BDF800900098FDF7B4FD8A
:102BE0002820FFF7A9F813BD80B5FFF76DF901BDE7
:102BF00080B5FFF769F9DFF804050078002801D1F6
:102C0000FDF779FA01BD80B5FFF75EF9DFF8EC0456
:102C10000078002806D1FDF7BFFBFDF7A8FC2B20AC
:102C2000FFF78AF801BD0000DF0A0020E00A00205B
:102C300010B504002000FFF747F9DFF8C004007862
:102C4000002813D1FFF7CAF80178DFF8AC24128806
:102C50001155DFF8A4140988491CDFF89C24118061
:102C60000078FDF7A9FB2C20FFF766F810BD10B522
:102C700082B004002000FFF727F9DFF88004007815
:102C8000002822D1FDF764FD00900098DFF8701451
:102C900000F030FB12D80098DFF8681400F03CFB1D
:102CA0000CD2FFF79BF8FFF754F80090FDF758FDA2
:102CB000009069462000FFF75CF806E0DFF8480462
:102CC000009069462000FFF754F813BD10B582B09C
:102CD00004002000FFF7F8F8DFF82004007800284F
:102CE00022D1FDF735FD00900098DFF8201400F0A8
:102CF00001FB12D80098DFF8181400F00DFB0CD27D
:102D0000FFF76CF8FFF725F80090FDF731FD009014
:102D100069462000FFF72DF806E0DFF8EC0300908D
:102D200069462000FFF725F813BD10B50400200008
:102D3000FFF7CAF8DFF8C4030078002813D1FFF7C3
:102D40004DF80178DFF8B02312881155DFF8A81389
:102D50000988491CDFF8A02311800078FDF7C3FC27
:102D60002F20FEF7E9FF10BD38B50400DFF88C0313
:102D70000078002873D1FDF70EFD00210DE0C9B2E7
:102D80000A5CDFF874331B881A55DFF86C2312884D
:102D9000521CDFF864331A80491CC9B20629EEDBE5
:102DA000DFF854030588681CDFF84C130880FDF732
:102DB00090FBADB22855DFF840030588681CDFF8AA
:102DC00038130880FDF7EFFCADB22855DFF8280373
:102DD0000588681CC8490880FDF785FBADB22855F9
:102DE000C5480588681CC4490880FDF786FBADB25C
:102DF0002855C1480588681CBF490880FDF79BFB22
:102E0000ADB22855BC480588681CBB490880FDF751
:102E10007EFBADB22855B8480588681CB6490880C5
:102E2000FDF77FFBADB22855B3480588681CB24951
:102E30000880FDF78AFBADB22855FDF7ACFC0021F8
:102E40000AE0C9B20A5CAC4B1B881A55AA4A128820
:102E5000521CA94B1A80491CC9B20629F1DB31BDAD
:102E600010B504002000FFF72FF8A44800780028D0
:102E700021D1FEF7B3FF01789F4A128811559E4970
:102E80000988491C9C4A118041789B4A1288115537
:102E900099490988491C984A11808178964A128874
:102EA000115595490988491C934A1180FDF7C2FBC9
:102EB0003120FEF741FF10BD38B504002000FFF7B8
:102EC00003F88E480078002823D18B480588681CB9
:102ED00089490880FDF78EFAADB22855FA20864957
:102EE0000988085584480088401C83490880FA20D6
:102EF00081490988085580480088401C7E4908801F
:102F0000FA207D49098808557B480088401C7A4989
:102F1000088031BD38B504002000FEF7D5FF7748A2
:102F20000078002835D1FEF759FF0500287872494E
:102F30000988085570480088401C6F4908806878E7
:102F40006D49098808556C480088401C6A4908800A
:102F5000A87869490988085567480088401C66496F
:102F60000880E87864490988085563480088401C4F
:102F7000614908802878FDF738FA6878FDF73FFA4C
:102F8000A878FDF741FAE878FDF743FA3320FEF719
:102F9000D3FE31BD10B504002000FEF795FF574861
:102FA0000078002810D1FEF719FF0178524A1288E4
:102FB000115551490988491C4F4A11800078FDF785
:102FC0005BFA3B20FEF7B8FE10BD10B504002000F0
:102FD000FEF77AFF49480078002810D1FEF7FEFE80
:102FE0000178454A1288115543490988491C424ACB
:102FF00011800078FDF736FA6C20FEF79DFE10BDBB
:1030000010B504002000FEF75FFF3C480078002860
:103010000DD1FEF7E3FE0178374A12881155364983
:103020000988491C344A11800078FDF711FA10BD57
:1030300010B504002000FEF747FF30480078002854
:1030400025D1FEF7CBFE01782B4A128811552A496B
:103050000988491C284A11804178274A128811554D
:1030600025490988491C244A11808178224A1288FE
:10307000115521490988491C1F4A1180C0781E49F1
:10308000098808551C480088401C1B49088010BD51
:1030900080B500208DF800001E4800F00FF98DF873
:1030A00000009DF8000010F00700022801D1FEF793
:1030B00083F99DF8000010F00700042801D1FEF705
:1030C000F9F901BD10B501215FF0804000F051F821
:1030D00011480088401C10490880002406E00F4871
:1030E000E4B210EB8400FEF7B3FC641CE4B2032CE2
:1030F000F5DB10BD08090020CE0A0020DF0A002001
:10310000000040400100A040000010410000984134
:103110000100A84100500040D00A0020A80A002069
:103120000180012070470171012070470172012068
:1031300070470177007F704780F8201090F82000DA
:1031400070470268531C03601170704710B4848B81
:10315000640601D5002007E0048914F470640C4370
:1031600014431C430481012010BC704701800120DE
:10317000704781810120704762B38B0708D0521ECF
:1031800011F8013B00F8013B00F024808B07F6D1D9
:10319000830740F0208000BF103A07D330B4B1E875
:1031A0003810103AA0E83810F9D230BC530724BFC9
:1031B000B1E80810A0E8081044BF51F8043B40F8FB
:1031C000043BD20724BF31F8022B20F8022B44BF66
:1031D0000B7803707047083A07D3B1E80810083A33
:1031E00040F8043B40F804CBF7D25307E4E7000073
:1031F00070B4264C2488A4B214F460656D12002DBE
:103200000BD0022D0DD00AD3042D0ED00BD3062DDA
:103210000FD00CD3072D0ED00FE001250DE00225B5
:103220000BE0042509E0082507E0102505E020252E
:1032300003E0402501E08025FFE7154C2488A4B277
:10324000E40700D56D00134C6E0194FBF6F494FB7B
:10325000F1F404854FF400666D0196FBF5F50D4E13
:10326000754395FBF4F494FBF1F1B1F5006151F471
:10327000084181840021017113F03C0112F0030226
:1032800011430173007D70BC7047000004200040B2
:10329000442400400024F400027D920602D501700F
:1032A000012000E00020704700787047002A00D01D
:1032B0000174007E7047017101207047007A7047E9
:1032C0000CB41CB5044604A801900A46009401AB56
:1032D000694607487844183000F030F8009A002119
:1032E000117000285CBF0098001B16BC5DF80CFB39
:1032F00053FEFFFF4FF0807C1CEB400F94BF1CEB94
:10330000410F05E040EA010C5FEA4C0C01D281421A
:10331000704718BF884270474FF0807C1CEB400F0D
:1033200094BF1CEB410F05E040EA010C5FEA4C0C36
:1033300001D28842704718BF814270472DE9F04F93
:1033400080460FF23060A5B015461E46D0E9002336
:10335000CDE91223002004910D900DF1500A6FF079
:10336000004900E065190020ADF8020012AB4FF0F3
:10337000FF3229460DF1020001F093F80446012CBA
:1033800004DA2878441EA441E443E40FBDF80200A7
:1033900025280CBFA4F1010BA346BBF1010F0EDBE6
:1033A0002F4617F8011B0498C0470028049000F02E
:1033B000F3800D98401CBBF1010B0D90F1D1BDF8CD
:1033C0000200252807D100200790089009900A9054
:1033D0000B900C9005E00028C4D10D98D2E240F08B
:1033E000010015F8011F2029F9D023290DD02B2920
:1033F00004D02D2906D030290AD00CE040F002007C
:1034000080B2EEE740F00400FAE740F00800F7E78A
:1034100040F01000F4E72A290ED13168316051F8EC
:10342000042B3160002A0F9204D5514240F0040071
:103430000F9180B26D1C11E000210F9109E00F99EE
:10344000494505D001EB810302EB430130390F916F
:103450006D1C2A78A2F130010A29F0D329782E298F
:1034600003D04FF0FF310E911DE015F8011F2A29FE
:1034700007D1316831606D1C51F8042B31600E9218
:1034800011E000210E9109E00E99494505D001EBAC
:10349000810302EB430130390E916D1C2A78A2F1B1
:1034A00030010A29F0D3ADF840000FF2D04029785E
:1034B00001F008F808B115F8010B8DF842009DF8ED
:1034C0004200682802BF29786829622005D06C284C
:1034D00004BF28786C2803D171208DF842006D1C40
:1034E00014A8069015F8014BB4F125002AD01C3819
:1034F00000F0D480001F022840F2D080133800F082
:10350000F580093800F0CA80801E00F05C81401E02
:1035100000F03581401E022840F2C080001F00F0FC
:103520002E81401F00F08B80401E00F0DF80401E87
:1035300035D0C01E0BD0801E00F0D880C01E00F019
:10354000D58063E125208DF85000012067E19DF8CA
:1035500042006C283068306014D050F8047B306032
:1035600005970E9C002C04D5384600F0B7FF0446A2
:1035700006E022460021384600F0CCFF00B1C41B13
:1035800008944DE150F8042B306002A9404600F049
:1035900033FA002840F144814FF0FF30F2E1316806
:1035A00031603C2451F8040B31600021CDE9020167
:1035B00014A80590DDE90201069F11B908B90E9A19
:1035C000B2B10206120FA0EB02123032D2B2631E69
:1035D0003A2AA8BF27320009DA5540EA01700909E2
:1035E00008BF00281C4603D0059AE3199A42E8D385
:1035F000E0190590C4F13C010E980891814209DA66
:10360000401A0A904FF6EF71BDF840000840ADF83F
:10361000400005E1002840F103819DF8400000F0E2
:103620001400102840F0FC800F98079A801A0A9A1C
:10363000801A441A012CC0F2F3800A94F0E09DF83D
:10364000420062281AD0682806D06A280CD06C285C
:103650001CD0712808D019E03068306050F8041B85
:1036600030600D980880DBE03068306050F8042B43
:1036700030600D98C117C2E90001D1E030683060B8
:1036800050F8041B30600D980870C9E03068306055
:1036900050F8041B30600D980860C1E03068C01D10
:1036A00020F007023260D2E9000108323260CDE931
:1036B0000201002902D507982D210AE0BDF840003B
:1036C000810702D507982B2103E0C00705D507988D
:1036D000202100F80A10401C079014A80799081828
:1036E0000590214602A800F091FB99E09DF8420068
:1036F0006C280DD0712818BF6A2809D13068C01D08
:1037000020F007023260D2E900010832326005E0A1
:103710003168316051F8040B31600021CDE90201BC
:103720009DF84200682803D1DDE9020180B20BE078
:10373000622803D1DDE90201C0B205E0742818BF98
:103740007A2804D1DDE902010021CDE902019DF8CA
:10375000400000072ED5DDE90201002908BF00283E
:1037600028D044F02000782824D10798302100F890
:103770000A10401C411C079100F80A401AE09DF80D
:103780004200314600F001F9CDE90201002902DAD8
:1037900007982D210AE0BDF84000810702D507985F
:1037A0002B2103E0C00705D50798202100F80A1057
:1037B000401C079014A8079908180590214602A8F4
:1037C00000F0A0FA2CE09DF842006C2809D00120FE
:1037D00007903068306050F8041B30608DF850104E
:1037E0001EE03068306001AA50F8041B3060ADF86C
:1037F00004100020ADF8060002A94FF0FF300E9033
:10380000404600F0F9F800280AD5C5E625208DF8D5
:103810005000012007901CB18AF801400220079057
:103820000F980799401A0A99401A0899401A0B995B
:10383000401A0999401A0C99441A9DF84000400713
:1038400010D42020012C8DF800000BDB274601232B
:103850006A4602A9404600F000FE00287FF49CAEB4
:103860007F1EF4D1DDF81CB0BBF1000F14AF0DD0FA
:1038700017F8011B0498C047002804903FF48CAE51
:103880000D98401CBBF1010B0D90F1D130208DF84B
:1038900000000A9F012F0ADB01236A4602A9404665
:1038A00000F0DBFD00287FF477AE7F1EF4D1DDF859
:1038B00020B0059FBBF1000F0DD017F8011B049835
:1038C000C047002804903FF467AE0D98401CBBF140
:1038D000010B0D90F1D130208DF800000B9F012FCE
:1038E0000ADB01236A4602A9404600F0B6FD002823
:1038F0007FF452AE7F1EF4D105980899DDF824B00C
:103900000F18BBF1000F0DD017F8011B0498C0472A
:10391000002804903FF440AE0D98401CBBF1010B11
:103920000D90F1D130208DF800000C9F012F0ADBA3
:1039300001236A4602A9404600F08FFD00287FF46B
:103940002BAE7F1EF4D19DF8400040077FF50BADF4
:103950002020012C8DF80000FFF605AD01236A46FA
:1039600002A9404600F079FD00287FF415AE641EE0
:10397000F4D1F8E40000000000000000686A6C74F4
:103980007A4C000025B0BDE8F08F622826D0682868
:103990001DD06A2808D06C2827D0712804D074283C
:1039A00023D07A280CD020E00868C01D20F0070042
:1039B0000860D0E9002308300860194610467047B7
:1039C0000A680A6052F8040B0A60002170470A680E
:1039D0000A6052F8040B0A6000B20BE00A680A6041
:1039E00052F8040B0A6040B204E00A680A6052F818
:1039F000040B0A60C11770472DE9F44F0D4694B0CF
:103A0000D5F830A0BAF1000F804648BF6FF0004AE9
:103A100000F0ACFD696B401801900FF66C20D0E906
:103A20000023CDE9022395F83800400702D401981D
:103A3000412805D240200DF110090190002609E02F
:103A400000F09AFD5FEA0009F8D14FF0FF3056E12F
:103A5000AAEB040ABAF1010FC0F2CE8014980188D3
:103A600002AA0DF1010000F0DFFD0028044600F17C
:103A7000DE801498008810B9641E00F1D880A24539
:103A8000C0F2BA80686901992218914280F0A28040
:103A90006E634042296A401AA969401A696A401A4D
:103AA000E969401AA96A461A95F83800400710D407
:103AB0002020012E8DF800000BDB374601236A46DB
:103AC0002946404600F0C9FC002840F0B0807F1E27
:103AD000F4D1D5F814B0BBF1000F4F460DD017F854
:103AE000011BA868C0470028A86000F0A080E86A11
:103AF000401CBBF1010BE862F1D130208DF80000D1
:103B00002F6A012F0ADB01236A462946404600F04E
:103B1000A4FC002840F08B807F1EF4D1D5F818B0AB
:103B2000EF68BBF1000F0CD017F8011BA868C04765
:103B30000028A8607BD0E86A401CBBF1010BE8625A
:103B4000F2D130208DF800006F6A012F09DB0123CC
:103B50006A462946404600F080FC002867D17F1E57
:103B6000F5D1E868A969D5F81CB00F18BBF1000FB2
:103B70000CD017F8011BA868C0470028A86056D0D1
:103B8000E86A401CBBF1010BE862F2D130208DF8ED
:103B90000000AF6A012F09DB01236A46294640462F
:103BA00000F05BFC002842D17F1EF5D195F838006B
:103BB00040070DD52020012E8DF8000008DB0123E1
:103BC0006A462946404600F048FC80BB761EF6D186
:103BD00000266E61224668690DF101014844FFF735
:103BE000CBFA6869201868611498801C1490801EB4
:103BF000008800287FF42CAF686B6969401A296A35
:103C0000401AA969401A696A401AE969401AA96A02
:103C1000A0EB010A95F83800400710D4BAF1010F63
:103C20000DDB5446A8682021C047A86010B94FF0AA
:103C3000FF365DE0E86A401C641EE862F2D16B6901
:103C40004A462946404600F008FC0028EFD12C6A7D
:103C5000012C0ADBA8683021C0470028A860E6D004
:103C6000E86A401C641EE862F4D1AB69EA68294640
:103C7000404600F0F2FB0028D9D16C6A012C0ADB27
:103C8000A8683021C0470028A860D0D0E86A401C4E
:103C9000641EE862F4D1E868A969EB690A1829464C
:103CA000404600F0DAFB0028C1D1AC6A012C0ADBE7
:103CB000A8683021C0470028A860B8D0E86A401C36
:103CC000641EE862F4D195F8380040070ED5BAF1C9
:103CD000010F0BDBA8682021C0470028A860A6D0F0
:103CE000E86A401CBAF1010AE862F3D16E616E63C2
:103CF00004A881451CBF484600F0A4FC304615B01E
:103D0000BDE8F08F2DE9FA4E05460A462F696F2A65
:103D100008BF082405D041F02000782814BF0A24E9
:103D200010243C26D5E90001642A18BF692A81467F
:103D30008A4605D1002903DAD9F100096AEB4A0A5B
:103D4000BAF1000F08BFB9F1000F0CD1286B50B9C0
:103D5000082C36D195F83800000732D530203B26A4
:103D600087F83B002DE0E31748465146224600F015
:103D7000A9FCA4FB0023A9EB02023032D2B2A6F1C7
:103D8000010B3A2A5E4603DB9DF80030513B9A183E
:103D90000BF8072081465FEA010A08BFB9F1000F5E
:103DA00003D0E868F1198842DDD3082C09D195F8D1
:103DB0003800000705D5F05D302802D0761E30208F
:103DC000F055C6F13C00A861F119E960296B884201
:103DD00008DA081A28624FF6EF71288F0840288702
:103DE000BDE8F38E00290ED595F8381001F01401C6
:103DF000102908D1696B6A69891A2A6A891A0E1A08
:103E0000012EA8BF2E62BDE8F38E00002DE9F24F0F
:103E100004468EB0D4E90001CDE9020104AF9DF85B
:103E2000380040F0200BBBF1610F0AD0206B002856
:103E300048BF062004D408BFBBF1670F01D10120A1
:103E400020636168C1F30A5040F2FF7290421CD1B6
:103E5000080304BF2068002809D10320A0619DF851
:103E6000380061381A2836D30FF2306108E0032099
:103E7000A0619DF8380061381A2829D30FF2146127
:103E8000E0680322FFF778F9BEE1012816DA204640
:103E900000F08FFC012811DB00250020BBF1610F31
:103EA00020D1E168302201F8012B4A1CE2609DF824
:103EB0003820612A0CBF782258220FE0626840F255
:103EC000FE3161F31E52451A62604FF0FF30E5E7A4
:103ED0000FF2BC51D4E70FF2C051D1E70A7061690B
:103EE000891C616110B90026002584E1BBF1610FD6
:103EF00040F09880206B00284CBF2126461CD4E956
:103F000000ABDDE902010022002300F073FC36B2B1
:103F10003ABF8BF00040CDE902A0CDE902AB06F13B
:103F200001082D1FB8F1010F8DF810200DF11107B8
:103F300036DBDDE902010022002300F073FC2FD202
:103F40001C2102A800F086FCDDE9020100F008FD5A
:103F5000A8F10708B8F1010F814609DB00F02CFD3C
:103F600002460B46DDE9020100F03EFDCDE902010B
:103F7000F81D072105E009F00F0200F8012D4FEAB6
:103F80002919B9F1010F01DB491EF4D5491E5CBFA7
:103F9000002200F8012DF9D5C71DB8F1010FC8DACC
:103FA0000DF11100391AB142B8BF0E4636B23000D9
:103FB0000DF111072FD4884206DA04A94118497877
:103FC0000829A8BF0F2100DA002104AA821800E006
:103FD000761E12F80139401E8B42F9D00F2904D108
:103FE00004A941184A78521C4A70002802D504AF2F
:103FF000761C2D1D36B2701E0DD4C1190A783032D0
:10400000D2B23A2A03DB9DF838303A3B9A18401E68
:1040100001F80129F2D5206B002840F1EC80701ED8
:104020002063E8E0DDE902010022002300F0E2FB6A
:104030003CBF81F00041CDE902012DB247F297501B
:1040400068434B49DFF82C9190FBF1F52DB2C5F197
:10405000070ABAF1010F90461CDBDDE902675FEA4F
:10406000CA7007D542464B463046394600F07CFDC3
:1040700006460F464046494642464B464FEA6A0AC4
:1040800000F072FDBAF1000F80468946E7D1CDE914
:10409000026724E0CAF1000A0026374F14E05FEA05
:1040A000CA7007D542464B463046394600F05CFDA3
:1040B00006460F464046494642464B4600F054FDF0
:1040C0004FEA6A0A80468946BAF1000FE7D1DDE976
:1040D000020132463B4600F019FECDE90201BBF178
:1040E000660F0CBF05F10A000620216BDFF88C90EB
:1040F0004618142EA8BF132630208DF810000DF19D
:104100001107012E3CDBDDE9020100F03FFC07F165
:10411000080104220A23B0FBF3F303EB8307A0EBAF
:104120004700303001F8010C0A20B3FBF0F000EB3F
:104130008007A3EB47033033521E01F8023DE9D15B
:10414000083E012E01F10807DBDBDDE9020100F08A
:104150001DFC00F03BFC02460B46DDE9020100F0CD
:1041600043FC00224B4600F0FFFCCDE90201CAE708
:10417000A0860100000024400000F03F84D7974152
:104180000DF11100381A0DF1110702E0401E6D1EED
:104190007F1C39783029F9D0BBF1660F02D12DB2DE
:1041A000691C04E0BBF1650F0CBF01210021226BEB
:1041B0008E1836B2B042B8BF064636B231001AD4B5
:1041C000814204DAC85D3528A8BF392000DA3020E2
:1041D000CA19521E00E0761E12F80139491E8342A8
:1041E000F9D0392802D1C85D401CC855002902D534
:1041F0007F1E761C6D1C2DB29DF83810009533B2D1
:104200003A46204600F003F80FB0BDE8F08F2DE9E4
:10421000F04786B006468A4690461D4600F0BFFE2F
:10422000012D406A376B90F8009002DA01250FF2F9
:1042300070284AF02000BDF93840662808BF641C89
:1042400012D0672876D114F1040F79DBBC4277DAFB
:1042500096F83800641C000702D4BD42B8BF2F4650
:1042600024B23F1B48BF002724B2F068B169012C7B
:1042700021DA4A1C30230B54012F03DA96F8381048
:10428000090702D502F80090521CB261E742B8BF9C
:104290007C4224B26142E7197162AF42B8BF3D4629
:1042A000B3692DB2F5612A4641461818FEF764FF3E
:1042B000781BB062BAE00818A54216DA2A464146D1
:1042C000FEF75AFFB1696918601B012FB161706276
:1042D00003DA96F83800000705D5F06801F8009079
:1042E000F069401CF061B762A0E022464146FEF74B
:1042F00043FFB06920182D1B012F03DA96F8381000
:10430000090703D5F16800F80190401C2DB2B06197
:10431000AF42B8BF3D46F068B3692DB22A4604EB00
:1043200008011818FEF728FFB0692818B061781B3B
:1043300070627BE0BAF1610F14D14FF0700A16E0A1
:10434000BD4204DA96F83810090758BF2F467F1E81
:1043500048BF0027BAF1670F14BF4FF0450A4FF06E
:10436000650A04E0BAF1410F08BF4FF0500AB16985
:10437000F0684A1CB261012F18F8013B0B5403DAB4
:1043800096F83810090715D5531CB36102F8009050
:10439000012F0FDB6D1E2DB2AF42B8BF3D462DB2CF
:1043A0002A4641461818FEF7E7FEB0692818B061A2
:1043B000781B7062F068B1690918200081F800A0CC
:1043C00004D42B20487001F1020804E02D224A7029
:1043D00001F102086442002502AF08E00A226846A3
:1043E00000F0F6FD019807F8010B6D1C009C21B24E
:1043F0000129F3DA022D06DA4AF02000652804BF0D
:10440000302008F8010B4DB9302008F8010B07E007
:104410006D1E02A8285C303008F8010B012DF7DA78
:10442000F068B1690818A8EB0000F06196F8380050
:1044300000F0140010280DD17069B1690818716A74
:104440000818F1690818B16A0818716B8842BCBF76
:10445000081A306206B0BDE8F087F8B504460D468C
:1044600016461F46002077B116F8011BA868A04722
:10447000A86030B1E86A401CE86200207F1EF3D1DA
:10448000F2BD4FF0FF30F2BD000000000000000060
:104490006E616E004E414E00696E6600494E4600E8
:1044A0003000F8B504460D4616461F4600F098FD4C
:1044B0003B4632462946204601B0BDE8F04000F0B8
:1044C000A6BD00000278C9B28A421AB11CBF10F81A
:1044D000012FF9E718BF00207047000000F1010329
:1044E000810704D010F8011B89B18107FAD1026855
:1044F000B2F10131914311F0803F04BF50F8042F15
:10450000F6E710F8011B11B110F8011BFBE7C01A08
:1045100070470000C9B2830706D0521E22D310F89C
:10452000013B9942F7D11FE0083A13D302F104028C
:1045300041EA012141EA014150F8043B121F21BF29
:104540004B40A3F1013C2CEA030C1CF0803FF3D05C
:10455000C9B2001F083210F8013B521E28BF91EA71
:10456000030FF8D818BF0120401E704780B500F037
:1045700037FD012002BD000070B5054605F10F00B2
:10458000C408C046C046E400A54232D2082C04D27A
:10459000082402E0083000F055F8224802681100B3
:1045A0000CD1011D0A6802B31368A34238BF111D64
:1045B000F8D310E01D68A5420DD2191D0B68002B21
:1045C000F8D11268011D00E0191D0B6893420CD050
:1045D0001D68A542F8D361B10D682A68A2F10803ED
:1045E000A3420AD26A680A600FE000F033FD002897
:1045F000D0D1C046C046002070BD63190B60121BAD
:104600006E685E600B681A602C60096800291DBF27
:104610004A68002A091D00210160C046C04605F114
:10462000080070BDB40A002070B504460D46164659
:1046300000F0D6FC324629462046BDE8704000F026
:10464000D9BC000000B9704738B5A0F10804206853
:10465000082833D310F0070F30D1C046C0461848A1
:10466000416809B18C4203D26160446017E0194689
:104670004B680BB1A342FAD30B685D18AC421BD355
:10468000A54204D12268D2180A600C4607E04A68A5
:104690001AB123681B199A420ED362604C6061689C
:1046A00051B1226813198B4206D1002303600868B8
:1046B0008018206048686060C046C04631BD000078
:1046C000B40A00201B4213D1094236D12AB18446D4
:1046D000B0FBF2F002FB10C2704700F0D1BCFCD37B
:1046E0000022002370470B000200002100207047C9
:1046F000904271EB030CF6D370B5B1FA81F4B3FAC2
:1047000083F52C1BA340C4F1200532FA05F6334390
:10471000A2405FF00046E64002E05B085FEA32023A
:10472000841A71EB030524BF204629467641F4D351
:1047300002000B003000002170BD012ACFD970B5F6
:10474000140C20D0B1FA81F4B2FA82F5C4F120043D
:104750006419B4F12006D6D3B2405FF00044F440AF
:10476000002502E052085FEA3303C61A71EB020E1D
:1047700024BF3046714664416D41F3D302000B0003
:104780002000290070BD0C46B1FBF2F102FB11457F
:104790002D0445EA1045B5FBF2F402FB145580B236
:1047A00040EA0545B5FBF2F002FB105240EA044036
:1047B00070BD30B4436803F0004201211B031B0BA2
:1047C000436004BF0368002B08D10DE00368DD0FD0
:1047D00045EA440444605B000360491E4468E30208
:1047E000F4D523031B0B436043681A434260084619
:1047F00030BC70474FF4001C1CEB410F94BF1CEB06
:10480000430F09E041EA030C50EA4C0C52EA0C0C4D
:1048100003D2994208BF9042704714BF8B42824234
:10482000704700004FF4001C1CEB410F94BF1CEBC1
:10483000430F09E041EA030C50EA4C0C52EA0C0C1D
:1048400003D28B4208BF8242704714BF9942904204
:104850007047000070B504460D466068C0F30A500A
:1048600040F2FF71884207D16068000304BF2068EE
:10487000002817D0022070BD20B92046FFF799FF0D
:10488000012866DA012D0FDB40F2FF71091A8D4213
:104890000AD36068002847BF00202F4900202F4915
:1048A000C4E90001012070BD4142A942616806DAF5
:1048B0006FF31E51401941EA0050606040E0401E15
:1048C00063684519012205F1350062F31F5335284D
:1048D00001F00041636003D361600020206070BD7F
:1048E000002015F11F0F04DA206823600022203514
:1048F00062606A4212D0401E25688041C2F12003E6
:10490000C0439D4045EAD07025686668D54006FAE8
:1049100003F32B4323606368D340636062680A43F8
:10492000B0F1004F626003D80DD12078C0070AD5DE
:104930002068401C2060206828B96068401C6060C6
:104940004FF0FF3070BD6068884204BF20680028C7
:10495000F6D1002070BD00BF0000F0FF0000F07F26
:10496000F446400D40EAC120490006D200F014F898
:10497000004248BF6FF00040604700F00DF84FF074
:10498000004188428CBF084640426047400D40EAE3
:10499000C120490080F00D8040F00040490DA1F594
:1049A0008061491C05D4D1F11F0154BFC840C01714
:1049B00070474FF000007047010040F10980F44655
:1049C000404200F005F851F000416047010000BF8F
:1049D00009D0B0FA80F18840C91CC1F5846109058D
:1049E00001EBD02140057047F0B44FF0004591EA4B
:1049F000030F44BF6B4000F045BB00BF841A71EB4E
:104A0000030604D26E40001BB141121973414FF4EA
:104A1000001C1CEB410F34BF7CEB430684E00C0D03
:104A2000A4EB1356362E7DDC012E43DC45EAC3236E
:104A300043EA525312BFD20292025B08240545EAB0
:104A4000C12141EA5051D2EBC020994125D407D170
:104A5000B0FA80F610FA06F164D00020203608E0A3
:104A6000B1FA81F6B140C6F1200220FA02F21143F8
:104A7000B0404FEAF474B4EB465434F001064FEA08
:104A800074040AD8D6F50016760D04F00044F04000
:104A900061FA06F25040F1404840C00A40EA4150F5
:104AA00021F0004128BF5FEA500550F1000044EBBF
:104AB000D12137E045EAC323DB0A45EAC121C90A0F
:104AC000B6F120050EDD42EA0242120CC5F12006C5
:104AD00003FA06F6EB4042EA06056D42984161F1A1
:104AE00000010DE062FA06F5F240554063FA06FC5B
:104AF00082EA0C02F3405A406D42904161EB03019F
:104B000011F4801F05D1641E620502D06D00404182
:104B1000494121F48011430875F1004350F1000030
:104B200041EB0451F0BC70471CEB410F15D223F050
:104B3000004352EA43060BD04FEA4C0CBCEB410F4A
:104B400004D80C0D661E342EB7DDEBE7801A9941B0
:104B500050EA410608BF0021E4E708BF1CEB430F01
:104B600028BF6FF00001DDE7B0B581EA030C0CF05F
:104B7000004C40F2FF7515EA11541DBF15EA13579A
:104B8000AC42AF4239E0E41923EA455343F48013C1
:104B9000C90241F0004141EA505EC7021100A7FB83
:104BA000020200284FF00000EEFB01204FF0000150
:104BB000E3FB072118BF42F00102401800214941E0
:104BC000E3FB0E01A4F580640F0302D252004041C2
:104BD000494154F101046CDD470872F1004250F183
:104BE000000051EB0451A1F580115CBF41EA0C01BA
:104BF000B0BD4CEA05510020B0BD05EA1357AC42E8
:104C000014BFAF4241E050EA410E1CBF52EA430ECE
:104C100002E061460020B0BD24423C441BD15FEA63
:104C2000070EF6D0090302BF01460020AEF1140EB4
:104C3000B1FA81F7AEEB070401FA07FE0C37C7F1B2
:104C4000200100FA07F7C8404EEA000E23EA455358
:104C500043F48013A2E733F00043B3FA83F704BFB1
:104C6000B2FA82FE77440B3FE41BB7F1200E2FBF50
:104C700002FA0EF3BB40C7F1200E22FA0EFE38BF37
:104C800043EA0E03BA40641C82E750EA410E14BFA7
:104C900052EA430E6FF000014FF4001717EB430F79
:104CA0008ABF194617EB410FB5E74CEA05510020C2
:104CB000B0BDD4F10104B4F120070FDAC4F120072C
:104CC000520828BF42F0010210FA07F501FA07F76F
:104CD000E1BF2A43E0403843E1400FE0352C98DC47
:104CE000C7F1200452EA400220FA07F218BF42F04E
:104CF000010231FA07F0A1400A43002172F100429B
:104D000050F1000051EB0C01B0BD00002DE9F04165
:104D100040F2FF7581EA030C0CF0004C15EA1154C7
:104D20001DBF15EA1357AC42AF42E9E0BC41C1F3E5
:104D30001301C3F31303801A994143F4801304D27F
:104D4000641E4000494180185941C90241EA50514E
:104D5000B1FBF3F603FB1611A2FB0675D7EBC020DF
:104D6000A94102D2761E80185941C90241EA505128
:104D7000B1FBF3FE03FB1E11A2FB0E75D7EBC020A7
:104D8000A94103D2AEF1010E80185941890241EACE
:104D90009051760546EA8E2EB1FBF3F603FB161111
:104DA000A2FB0675D7EB8020A94102D2761E80189F
:104DB0005941C90241EA50514EEA060EB1FBF3F6E1
:104DC00003FB1611A2FB0675D7EBC020A94102D246
:104DD000761E80185941C90241EA5051B1FBF3F7E0
:104DE00003FB1711A2FB0735D3EBC020A94167F1E4
:104DF00000070CBF004247F0010766F3D5274FEAD2
:104E00001E31B80814F5806414DDBD0775F1004249
:104E100050EB0E5051EB045111F5801F5CBF41EA7D
:104E20000C01BDE8F0814CF07F6141F0E0410020D1
:104E3000BDE8F081BD076D0840EA0E5041F48011D5
:104E4000D4F10104B4F120060ADAC4F1200602000C
:104E5000E04001FA06F3E1401843B24015430EE08A
:104E6000342C14DCC6F1200445EA40056D0820FA14
:104E700006F2154321FA06F0A1400D43002175F119
:104E8000004250F1000051EB0C01BDE8F081002020
:104E90005FEA0C01BDE8F081CFB992185B41B3FA2B
:104EA00083F704BFB2FA82F6BF190B3FB7F12006B1
:104EB0002FBF02FA06F3BB40C7F1200622FA06F61E
:104EC00038BF3343BA401CB1E419641E2FE77F4258
:104ED00031F00041B1FA81F404BFB0FA80F6A419B0
:104EE0000B3CB4F120062FBF00FA06F1A140C4F13B
:104EF000200620FA06F638BF3143A0403C1B16E7D7
:104F0000AC421ABF05EA1357AF4214E050EA41061B
:104F10001CBF52EA4306BFE750EA410730466146EC
:104F20001CBF41EA0551BDE8F08152EA430C08BFBD
:104F3000C143BDE8F08100204FF4001616EB410F8D
:104F400098BF16EB430F08BF16EB410F24BFC143B8
:104F500005E016EB430F0CBF61464CEA0551BDE876
:104F6000F081000080B5134800F0F6F80FF24C0213
:104F70000FF244010160426241600FF24402826319
:104F800081600FF24402C16001614161816181620F
:104F9000C16201634163C2630164416401BD10B534
:104FA000044800F0D9F80446206808B9FFF7DAFF92
:104FB000204610BD08000020000000002E00000068
:104FC00066616C7365000000747275650000000016
:104FD00091FBF2F303FB1211C0E9003170470000AE
:104FE00080B5DFF80C0000F0B7F8806902BD000062
:104FF0009800002030B430B90FF24800D0E90045E5
:10500000C2E900451BE00170012030BC704730B49C
:1050100031B90FF23800D0E90045C3E900450EE090
:105020001AB930BC6FF00100704708B10A780280ED
:105030000978481E804130BCC043C00F7047002033
:1050400030BC7047000000000000000000000000BD
:10505000000000000749086808B1002070470648B2
:10506000C008C00008600549C908C900091A0160E4
:10507000704700BFC40A00200F0500200809002067
:1050800070470000841A71EB030603D2001BB14184
:10509000121973414FF4001C1CEB410F34BF7CEB21
:1050A000430443E00C0DA4EB1356352E50DC45EAC7
:1050B000C323DB0A45EAC121C912B6F120050DDD83
:1050C00063FA05F6EB4086EA0305124218BF45F085
:1050D0000105C01851F100010CD213E062FA06F587
:1050E000F2405540F3415A40B340F3405A408018D3
:1050F000594107D349085FEA30005FEA350528BF08
:1051000045F0010501F58011420875F1004250F1AA
:10511000000041EB0451F0BC4FF4001C1CEB410FAC
:1051200038BF70470020090D090570471CEB410F7F
:1051300010D252EA43060BD0BCEB410F05D80C0D40
:10514000AB43661E342EB5DD02E0AB4380185941F7
:10515000F0BC7047F0BC70477047000000000000D2
:10516000000000000000000000000000000000003F
:1051700000000000000000005F00000000000000D0
:105180000000000000000000070000000000000018
:105190000700000000000000140000007F00000075
:1051A000140000007F000000140000002400000034
:1051B0002A0000007F0000002A000000120000000A
:1051C000230000001300000008000000640000003D
:1051D0006200000036000000490000005500000099
:1051E0002200000050000000000000000500000048
:1051F00003000000000000000000000000000000AC
:105200001C0000002200000041000000000000001F
:105210000000000041000000220000001C0000000F
:1052200000000000080000002A0000001C00000030
:105230002A0000000800000008000000080000002C
:105240003E00000008000000080000000000000010
:1052500050000000300000000000000000000000CE
:10526000080000000800000008000000080000001E
:1052700008000000000000003000000030000000C6
:1052800000000000000000002000000010000000EE
:105290000800000004000000020000003E000000C2
:1052A0005100000049000000450000003E000000E1
:1052B00000000000420000007F00000040000000ED
:1052C00000000000420000006100000051000000EA
:1052D00049000000460000002100000041000000DD
:1052E000450000004B0000003100000018000000E5
:1052F00014000000120000007F00000010000000F9
:1053000027000000450000004500000045000000A7
:10531000390000003C0000004A0000004900000085
:105320004900000030000000010000007100000092
:105330000900000005000000030000003600000026
:10534000490000004900000049000000360000004C
:10535000060000004900000049000000290000008C
:105360001E000000000000003600000036000000B3
:1053700000000000000000000000000056000000D7
:1053800036000000000000000000000000000000E7
:10539000080000001400000022000000410000008E
:1053A00014000000140000001400000014000000AD
:1053B0001400000041000000220000001400000062
:1053C00008000000000000000200000001000000D2
:1053D000510000000900000006000000320000003B
:1053E0004900000079000000410000003E0000007C
:1053F0007E000000110000001100000011000000FC
:105400007E0000007F00000049000000490000000D
:1054100049000000360000003E000000410000008E
:105420004100000041000000220000007F00000059
:105430004100000041000000220000001C000000AC
:105440007F00000049000000490000004900000002
:10545000410000007F00000009000000090000007A
:1054600001000000010000003E00000041000000BB
:105470004100000051000000320000007F000000E9
:105480000800000008000000080000007F00000085
:1054900000000000410000007F000000410000000B
:1054A000000000002000000040000000410000005B
:1054B0003F000000010000007F0000000800000025
:1054C0001400000022000000410000007F000000E6
:1054D00040000000400000004000000040000000CC
:1054E0007F00000002000000040000000200000035
:1054F0007F0000007F0000000400000008000000A2
:10550000100000007F0000003E000000410000008D
:1055100041000000410000003E0000007F0000004C
:10552000090000000900000009000000060000005A
:105530003E0000004100000051000000210000007A
:105540005E0000007F00000009000000190000005C
:10555000290000004600000046000000490000004D
:105560004900000049000000310000000100000077
:10557000010000007F0000000100000001000000A9
:105580003F0000004000000040000000400000001C
:105590003F0000001F00000020000000400000004D
:1055A000200000001F0000007F000000200000001D
:1055B00018000000200000007F00000063000000D1
:1055C0001400000008000000140000006300000048
:1055D0000300000004000000780000000400000048
:1055E00003000000610000005100000049000000BD
:1055F0004500000043000000000000000000000023
:105600007F00000041000000410000000200000097
:10561000040000000800000010000000200000004E
:1056200041000000410000007F0000000000000079
:105630000000000004000000020000000100000063
:1056400002000000040000004000000040000000D4
:10565000400000004000000040000000000000008A
:105660000100000002000000040000000000000033
:10567000200000005400000054000000540000000E
:10568000780000007F000000480000004400000097
:105690004400000038000000380000004400000012
:1056A000440000004400000020000000380000001A
:1056B0004400000044000000480000007F0000009B
:1056C00038000000540000005400000054000000A6
:1056D00018000000080000007E0000000900000023
:1056E000010000000200000008000000140000009B
:1056F00054000000540000003C0000007F00000047
:105700000800000004000000040000007800000011
:1057100000000000440000007D0000004000000088
:1057200000000000200000004000000044000000D5
:105730003D00000000000000000000007F000000AD
:1057400010000000280000004400000000000000DD
:10575000410000007F000000400000000000000049
:105760007C0000000400000018000000040000009D
:10577000780000007C000000080000000400000029
:105780000400000078000000380000004400000021
:105790004400000044000000380000007C000000CD
:1057A00014000000140000001400000008000000B5
:1057B00008000000140000001400000018000000A1
:1057C0007C0000007C0000000800000004000000D5
:1057D0000400000008000000480000005400000021
:1057E00054000000540000002000000004000000ED
:1057F0003F000000440000004000000020000000C6
:105800003C000000400000004000000020000000BC
:105810007C0000001C000000200000004000000090
:10582000200000001C0000003C00000040000000C0
:1058300030000000400000003C0000004400000078
:1058400028000000100000002800000044000000B4
:105850000C0000005000000050000000500000004C
:105860003C00000044000000640000005400000000
:105870004C00000044000000000000000800000090
:1058800036000000410000000000000000000000A1
:10589000000000007F000000000000000000000089
:1058A0000000000041000000360000000800000079
:1058B0000000000008000000080000002A000000AE
:1058C0001C00000008000000080000001C00000090
:1058D0002A000000080000000800000080B5002237
:1058E0000221002000F04CF8D72000F07FF80223BE
:1058F00001220021022000F053F807230022072193
:10590000072000F05DF84FF410411448FDF708FC43
:10591000A4211248FDF707FC00211048FDF706FC02
:1059200000210F48FDF7FCFBEB210D48FDF7FBFBC9
:1059300000210B48FDF7FAFB00210A48FDF7F0FBB8
:10594000FF210848FDF7EFFB00210648FDF7EEFBBD
:1059500020210248FDF7EDFB01BD00000060004082
:10596000306000406060004080B5FFF7B7FFFBF794
:105970003BF8FBF713F8FBF7D5FBFBF76DF8FCE7FB
:10598000064B1B889BB213F0200353F040030343E4
:105990000B431343014803800120704788250040D2
:1059A00010F0070011F0030150EAC10013F00701E5
:1059B00050EA41100F4908800F48028001207047CB
:1059C00010B410F0070454EAC00411F0070054EAC0
:1059D000801412F0070054EA402413F0070054EA40
:1059E000003406480480012010BC704701498885B6
:1059F0000120704700200040442400400420004063
:105A000019E050F8041BCB0744BFA9F10103591852
:105A1000121F0023042A41F8043BF9D25FEA827C7A
:105A20000B4604D54FF0000CA1F800C09B1CD10719
:105A300044BF0021197050F8042B002AE1D17047AF
:105A400030B5016842688468091801EB5203D20737
:105A500048BF4C440C30994200D130BD11F9012BA4
:105A600011F8015B002A04F8015B02D5521CF9D140
:105A7000F1E7521EF4D5EEE710B507497944183125
:105A8000064C7C44163404E00A68081D5118884707
:105A90000146A142F8D110BD08000000240000001A
:105AA00061FFFFFFDC01000008090020000000008A
:105AB00091FFFFFFE800000024000000000000202C
:105AC00000F00BF8002801D0FFF7D6FF0020C046F9
:105AD000C046FFF749FF00F002F80120704700F0D0
