:1000000008050020515300005D5300005D530000BF
:100010005D5300005D5300005D53000000000000D0
:100020000000000000000000000000005D53000020
:100030005D530000000000005D5300005D530000B0
:100040005D5300005D5300005D5300005D530000F0
:100050005D5300005D5300005D5300005D530000E0
:100060005D5300005D53000000000000A728000061
:100070005D5300005D5300005D5300005D530000C0
:100080005D530000732800005D5300005D530000C5
:100090005D5300005D5300005D5300005D530000A0
:1000A0005D5300005D5300005D5300005D53000090
:1000B0005D5300005D5300005D5300005D53000080
:1000C0005D5300005D5300005D5300005D53000070
:1000D0005D5300005D5300005D5300000000000010
:1000E000012110F01F029140DFF8F02740B24009D3
:1000F00042F8201070470321B0FBF1F00100481EC8
:100100000029FBD170470021DFF8D4271180DFF8E8
:10011000D01709888142FAD3704780B58021DFF873
:10012000C40702F0F9FB1E20FFF7E5FF0221DFF80C
:10013000B80702F0EEFB0120FFF7E5FF0221DFF830
:10014000A80702F0E9FB0120FFF7DDFF0221DFF83D
:10015000980702F0DEFB0120FFF7D5FF8021DFF8D2
:10016000840702F0D6FB2021DFF8780702F0D1FBEC
:1001700001BD38B504008021DFF8680702F0CCFB30
:100180000120FFF7B8FF2021DFF8580702F0C1FB7C
:100190000120FFF7B0FF00250BE04021DFF8440706
:1001A00002F0BAFB0121DFF8400702F0B2FB640065
:1001B0006D1C082D0CDA0121DFF82C0702F0ACFBD6
:1001C0002006EAD54021DFF81C0702F0A2FBE9E790
:1001D0008021DFF8100702F09CFB31BD38B5040028
:1001E0008021DFF8000702F097FB0120FFF783FF73
:1001F0002021DFF8F00602F08FFB0120FFF77BFFE4
:1002000000250BE04021DFF8DC0602F085FB012130
:10021000DFF8D40602F07DFB64006D1C082D0CDABB
:100220000121DFF8C40602F077FB2006EAD5402161
:10023000DFF8B00602F06DFBE9E72021DFF8A40645
:1002400002F067FB8021DFF89C0602F062FB31BD03
:1002500080B5FFF762FFE220FFF7C0FFA120FFF7A4
:10026000BDFFA220FFF7BAFFC020FFF7B7FF2F2086
:10027000FFF7B4FF6420FFF746FFA420FFF7AEFFAF
:100280008120FFF7ABFF2020FFF7A8FF2320FFF717
:10029000A5FFAF20FFF7A2FFA620FFF79FFFB0202A
:1002A000FFF79CFF1020FFF799FF0020FFF796FF54
:1002B0004020FFF793FF01BD38B504000D00EDB2FB
:1002C000DFF894070580E4B2DFF89007048020008F
:1002D000C0B2000950F01000C0B2FFF77FFF14F069
:1002E0000F00FFF77BFF55F0B000C0B2FFF776FFBD
:1002F00031BD38B500240025002507E00020FFF7B8
:1003000038FF641CE4B2842CF8DB6D1CEDB2082DC0
:1003100006DA2900C9B20020FFF7CEFF0024F1E77A
:1003200031BD38B5040000250FE0DFF83407E4B232
:100330000521EDB201FB045110EB8100B0F52070F6
:100340000068C0B2FFF715FF6D1CEDB2052DECDBA8
:100350000020FFF70EFF31BD10B5040003E0207848
:10036000FFF7DFFF641C20780028F8D110BDDFF80C
:100370001C1B08607047DFF8140B00687047DFF83B
:100380000C1B48607047DFF8040B40687047DFF8CB
:10039000FC1A88607047DFF8F40A80687047DFF85D
:1003A000EC1AC8607047DFF8E40AC0687047DFF8ED
:1003B000DC1A81F830007047DFF8D00A90F830007E
:1003C0007047DFF8C81A81F831007047DFF8BC0ABF
:1003D00090F831007047DFF8B41A81F832007047A6
:1003E000DFF8A80A90F832007047DFF8A01A81F809
:1003F00033007047DFF8940A90F833007047DFF855
:100400008C1A81F834007047DFF8800A90F83400C5
:100410007047DFF8781A81F835007047DFF86C0A0A
:1004200090F835007047DFF8641A81F8360070479D
:10043000DFF8580A90F836007047DFF8501A81F854
:1004400037007047DFF8440A90F837007047DFF84C
:100450003C1A08617047DFF8340A00697047DFF81A
:100460002C1A08617047DFF8240A40697047DFF8EA
:100470001C1A81F83D007047DFF8100A90F83D0023
:100480007047DFF8081A81F83C007047DFF8FC0974
:1004900090F83C007047DFF8F41981F83B00704792
:1004A000DFF8E80990F83B007047DFF8E01981F8C1
:1004B00038007047DFF8D40990F838007047DFF84B
:1004C000CC1981F839007047DFF8C00990F839007D
:1004D0007047DFF8B81981F83A007047DFF8AC09C7
:1004E00090F83A007047DFF8A41981F83F00704790
:1004F000DFF8980990F83F007047DFF8901981F80D
:1005000041007047DFF8840990F841007047DFF838
:100510007C1981F842007047DFF8700990F84200BA
:100520007047DFF8681981F844007047DFF85C090C
:1005300090F844007047DFF8541981F8450070477F
:10054000DFF8480990F844007047DFF8401981F857
:1005500043007047DFF8340990F843007047DFF834
:100560002C1981F846007047DFF8200990F8460002
:100570007047DFF8181981F83E007047DFF80C1952
:10058000C86170470021002108E0C9B20A5CDFF8A9
:10059000FC38C9B2CB1883F84720491CC9B21829C6
:1005A000F3DB7047DFF8780B70470021002108E08B
:1005B000C9B20A5CDFF8D438C9B2CB1883F85F201F
:1005C000491CC9B20629F3DB7047DFF8580B7047A6
:1005D0000021002108E0C9B20A5CDFF8B038C9B2D6
:1005E000CB1883F88520491CC9B20C29F3DB70476E
:1005F000DFF8340B70470021002108E0C9B20A5C23
:10060000DFF88838C9B2CB1883F89120491CC9B2E9
:100610000329F3DB7047DFF8140B7047002100213A
:1006200008E0C9B20A5CDFF86438C9B2CB1883F8B5
:100630006520491CC9B22029F3DB7047DFF8F00AB6
:1006400070470021002108E0C9B20A5CDFF83C389D
:10065000C9B2CB1883F89420491CC9B20329F3DB33
:100660007047DFF8D00A7047DFF82018C1F8A00003
:100670007047DFF81808D0F8A0007047DFF80C18B2
:10068000C1F8A4007047DFF80408D0F8A400704750
:10069000DFF8F817C1F8AC007047DFF8F007D0F8C2
:1006A000AC007047DFF8E417C1F8B0007047DFF81E
:1006B000DC07D0F8B0007047DFF8D017C1F8B400FD
:1006C0007047DFF8C807D0F8B4007047DFF8BC17F0
:1006D000C1F8A8007047DFF8B407D0F8A800704749
:1006E000DFF8A81781F8B8007047DFF8A00790F886
:1006F000B8007047DFF8941781F8B9007047DFF849
:100700008C0790F8B9007047DFF8801781F8BA00BD
:100710007047DFF8780790F8BA007047DFF86C1779
:1007200081F8BB007047DFF8640790F8BB007047A2
:100730000021002108E0C9B20A5CDFF85037C9B2D5
:10074000CB1883F8BC20491CC9B20329F3DB7047DE
:10075000DFF8E4097047DFF8341788617047DFF885
:100760002C0780697047DFF82407406A7047DFF87C
:100770001C07C06A7047002108E0C9B20A5CDFF8B4
:100780000C37C9B2CB1883F89720491CC9B2062987
:10079000F3DB7047DFF8680D7047DFF8F01681F87B
:1007A00040007047DFF8E40690F840007047DFF83B
:1007B000540D807910F08000704700200DE000217A
:1007C000DFF8602DC0B222F820100021DFF8542D90
:1007D000C0B212EB80029170401CC0B20328EEDB65
:1007E000704780B520215FF0804002F0AFF81823F9
:1007F000002240215FF0804002F098F801BD80B5F2
:10080000FFF7EFFF00F0FAFB0B20FFF769FC112068
:10081000FFF766FCFFF71CFDFFF76BFD00210120D1
:1008200000F001FC0020FFF722FE0520FFF733FE59
:100830000020FFF744FE01210A20FFF73DFDDFF80D
:10084000E80CFFF789FD01BD80B5DFF8F0080088EE
:10085000002842D0DFF8E4080088401EDFF8DC18EA
:100860000880DFF8C80C0078002809D100F03EF8B5
:1008700001210A20FFF720FDDFF8C408FFF76CFD17
:10088000DFF8A80C0078012827D100F090F8FFF7D6
:1008900007FEDFF8B0180870DFF8940C8078DFF8F6
:1008A000901C09790818001DDFF89C180880DFF8F3
:1008B0009C08DFF89C1808602021DFF8980802F0F7
:1008C0002BF80121002000F0AEFB01210A20FFF7E8
:1008D000F3FCDFF8600CFFF73FFD01BD00E100E035
:1008E000AA0A0020306000406060004010B5DFF8C8
:1008F00068080478FFF7C0FDC0B200280CD00120C2
:10090000DFF8581808700021022000F030FE0120A6
:10091000DFF84C18087003E00020DFF8401808707A
:10092000DFF838080078002816D0022000F040FEDA
:10093000002811D00120DFF82C180870DFF82008FB
:100940000078C04310F00100DFF8141808704A2145
:10095000022000F00CFE29E0E4B2022C0ED0062C9E
:1009600002D0FF2C22D121E00021022000F0FFFD67
:1009700040F20111012000F0FAFD17E000F070FADA
:1009800000280DD00021022000F0F1FD40F20111FD
:10099000012000F0ECFD0120DFF8901B087004E05E
:1009A00040F23111022000F0E2FDFFE710BD38B542
:1009B000FFF762FD0400DFF84C0B8078DFF8441B82
:1009C000DFF8402B92785118C9790818C51C01200E
:1009D00000F0EEFD002804D00020DFF8501B087066
:1009E00017E0EDB2290089B2DFF84C0B00F050FAA5
:1009F000DFF8101BEDB269184979C0B2884204D102
:100A00000620DFF86017087003E0EE20DFF85417C7
:100A1000087000F0F5F9DFF8180B8078DFF8101B8C
:100A200009790818C51CEDB2290089B2DFF81C0746
:100A300000F02EFADFF8F81AEDB269184871E4B246
:100A4000002C04D00020DFF8E41A087003E0002036
:100A5000DFF8D81A087031BDAE0A0020AC0A0020B9
:100A60003C49000072B6704762B6704738B5050061
:100A70000C00FFF701FD0021DFF82C2B1180C0B224
:100A8000002835D0FFF702FDEDB26D2D04D1DFF85F
:100A9000AC1ADFF8AC2A1160C0B2012804D01ED312
:100AA000032813D009D31AE0012004F8020CDFF860
:100AB000940ADFF88C1A086095E1022004F8020C11
:100AC000DFF8840ADFF8781A08608CE1032004F864
:100AD000020CDFF8780ADFF8681A086083E1012069
:100AE00004F8020CDFF85C0ADFF8541A08607AE1B7
:100AF000EDB2002D7BD0012D00F07F80022D00F0A3
:100B00008280032D00F08580062D00F08880072D5F
:100B100000F08B80082D00F08E80092D00F0918070
:100B20000B2D00F094800C2D00F097800D2D00F01F
:100B30009A800E2D00F09D800F2D00F0A080102DCA
:100B400000F0A380112D00F0A680122D00F0A980E6
:100B5000132D00F0AC80142D00F0AF80152D00F0A7
:100B6000B280162D00F0B580212D00F0B880222D26
:100B700000F0BB80232D00F0BE80242D00F0C1804A
:100B8000252D00F0C480262D00F0C780282D00F010
:100B9000CA80292D00F0CD802A2D00F0D0802B2D89
:100BA00000F0D3802C2D00F0D6802D2D00F0D980C0
:100BB0002E2D00F0DC802F2D00F0DF80302D00F096
:100BC000E280312D00F0E580322D00F0E880332DF9
:100BD00000F0EB803B2D00F0EE806C2D00F0F180FA
:100BE0006D2D00F0F480C82D00F0F780FBE0DFF8F9
:100BF000E809DFF84C190860F5E0DFF84809DFF88C
:100C000040190860EFE0DFF84009DFF834190860A8
:100C1000E9E0DFF83809DFF828190860E3E0DFF8D9
:100C20008C09DFF81C190860DDE0DFF8B009DFF897
:100C300010190860D7E0DFF8A809DFF80419086088
:100C4000D1E0DFF8A009DFF8F8180860CBE0DFF8A2
:100C50008809DFF8EC180860C5E0DFF88C09DFF8D8
:100C6000E0180860BFE0DFF88409DFF8D4180860F6
:100C7000B9E0DFF87C09DFF8C8180860B3E0DFF8F6
:100C80007409DFF8BC180860ADE0DFF86C09DFF824
:100C9000B0180860A7E0DFF86409DFF8A41808605E
:100CA000A1E0DFF85C09DFF8981808609BE0DFF846
:100CB0005409DFF88C18086095E0DFF84C09DFF87C
:100CC000801808608FE0DFF81009DFF874180860FA
:100CD00089E0DFF83809DFF86818086083E0DFF89A
:100CE0003009DFF85C1808607DE0DFF82809DFF8DC
:100CF0005018086077E0DFF82009DFF84418086032
:100D000071E0DFF81809DFF8381808606BE0DFF8E9
:100D10001009DFF82C18086065E0DFF80809DFF833
:100D2000201808605FE0DFF80009DFF81418086099
:100D300059E0DFF8F808DFF80818086053E0DFF83A
:100D4000F008DFF8FC1708604DE0DFF8E808DFF88E
:100D5000F017086047E0DFF8E008DFF8E417086004
:100D600041E0DFF8D808DFF8D81708603BE0DFF88B
:100D7000D008DFF8CC17086035E0DFF8C808DFF8E6
:100D8000C01708602FE0DFF8E00ADFF8B41708604A
:100D900029E0DFF8F40ADFF8A817086023E0DFF89D
:100DA000EC0ADFF89C1708601DE0DFF8E40ADFF8C2
:100DB0009017086017E0DFF8DC0ADFF88417086096
:100DC00011E0DFF8D40ADFF8781708600BE0DFF8ED
:100DD0006C07DFF86C17086005E0DFF8C00ADFF881
:100DE00060170860FFE7FFF73DFE2000DFF85017AF
:100DF00009688847FFF738FEDFF8AC07008832BD86
:100E000080B5DFF800078078052814D1DFF8F406F4
:100E1000C07ADFF8241BDFF81827D072C0B2FFF7C2
:100E200025FEDFF80C170871DFF804070079DFF8FA
:100E30000017087313E0DFF8CC06C079DFF8FC1A5E
:100E4000DFF8EC26D071C0B2FFF710FEDFF8E01635
:100E50000871DFF8DC060079DFF8D416087201BDEE
:100E600080B5FFF731FBDFF89C16897801290BD19B
:100E7000C0B2DFF89016897911F03F01884201D1A4
:100E8000012002E0002000E0012002BD080900204E
:100E900010B40022002303E0DBB21C5C62405B1C48
:100EA0001C00E4B2A4B289B28C42F5D31000C0B2E7
:100EB00010BC704780B50020FFF759FA0020FFF7FB
:100EC0005EFA0020FFF763FA0020FFF768FA5FF090
:100ED0008140FFF7BCFA0020FFF7C1FA5FF08140C4
:100EE000FFF739FC0020FFF749FB0020DFF8741BF7
:100EF00008620020DFF86C1B48620020DFF8641BEA
:100F000088620020DFF85C1BC8620020FFF74FFA00
:100F10000020FFF756FA0020FFF75DFA0020FFF7E8
:100F200064FA0020FFF76BFA0020FFF772FA002046
:100F3000FFF779FA0020FFF780FA0020FFF7B5FAF3
:100F40000020FFF7BCFA0020FFF7C3FA0520FFF7E7
:100F5000A2FA0020FFF795FA0020FFF788FA002098
:100F6000FFF707FB0120FFF7BEFA0020FFF715FC93
:100F70000020FFF7C2FA0020FFF7C9FA0020FFF7B0
:100F8000D0FA0020FFF7D7FA0020FFF7DEFA0020A2
:100F9000FFF7E5FA0020FFF7F5FA0020FFF705FB61
:100FA0000020FFF73BFB0020FFF725FB0020FFF7A9
:100FB00048FB0020FFF7DFFB0020FFF755FB002078
:100FC000FFF75CFB0020FFF781FB0020FFF760FBD1
:100FD0000020FFF767FB0020FFF76EFBFB20FFF709
:100FE0007FFB0020FFF786FB0120FFF78DFB012030
:100FF000FFF794FB0020FFF79BFB01BD80B50823A2
:1010000003224FF49661DFF88C0B01F0A5FC00225F
:101010000121DFF8800B01F0FDFC0321DFF8740BE8
:1010200001F0FDFC01BD80B5C0B2002808D0C9B2F6
:10103000002905D00321DFF85C0B01F0F0FC1CE077
:10104000C0B2002808D1C9B2002905D00221DFF8BA
:10105000440B01F0E4FC10E0C0B2002808D0C9B293
:10106000002905D10121DFF82C0B01F0D8FC04E0A8
:101070000021DFF8200B01F0D2FC01BD80B5DFF8C4
:10108000B004007902284ADBDFF8480A007800281B
:1010900002D0012804D042E00120DFF8381A08709D
:1010A00028480078002808D0FF2000F020FA2548C2
:1010B0000078401E2349087017E023480088002864
:1010C0000FD023480068007800F011FA204800682B
:1010D000401C1F4908601C480088401E1A490880AF
:1010E00003E00220DFF8EC190870DFF8E809007867
:1010F000022813D12021174801F00BFC0021012008
:10110000FFF791FF0020DFF8CC19087002210A20B8
:10111000FFF7D2F8DFF8A00BFFF71EF9FFE701BDDC
:101120004F090020670900208D090020990900203F
:101130006D0900209C090020C4090020A40A002099
:101140002C530000B70A0020A00A0020CD0900207F
:10115000980A002000600040B20A0020B80A00206F
:1011600004010020B30A002010B5DFF8280A01F0BE
:101170004FFC0400DFF8BC0A0078002804D00228E5
:1011800000F0238110D3B1E1E4B2FF2C0BD1012098
:10119000DFF8A41A08700120DFF8981A08700A21F5
:1011A000002000F0E4F9A1E1002000F001FA00289D
:1011B00004D0FF20DFF8041B087001E1E4B2FF2C2B
:1011C00007D1DFF8740A0078401CDFF86C1A087049
:1011D000F6E0E4B22000012856D002280AD0062802
:1011E0002DD0812800F0BF80822872D0862800F0A0
:1011F0009580DDE0DFF8400A007802281ADB012044
:10120000C04988700220DFF8B41A08700020DFF8A7
:10121000FC1A0880DFF8F40A0088411CDFF8EC2A89
:101220001180B84980B2401844710220DFF8041AD6
:10123000087003E0FF20DFF8841A0870C0E0DFF8D0
:10124000F809007802281ADB0120AE4988700620D0
:10125000DFF8681A08700020DFF8B01A0880DFF89D
:10126000AC0A0088411CDFF8A42A1180A54980B28D
:10127000401844710220DFF8BC19087003E0FF2019
:10128000DFF8381A08709BE0DFF8AC090078022814
:101290001ADB01209B4988700120DFF8201A0870B2
:1012A0000020DFF8681A0880DFF8600A0088411C17
:1012B000DFF8582A1180934980B240184471022007
:1012C000DFF87019087003E0FF20DFF8F0190870EC
:1012D00076E0DFF86409007802281ADB05208949E6
:1012E00088700220DFF8D41908700020DFF81C1A7B
:1012F0000880DFF8180A0088411CDFF8102A1180E6
:10130000804980B2401844710220DFF82819087023
:1013100003E0FF20DFF8A419087051E0DFF8180996
:10132000007802281ADB0520764988700620DFF84D
:101330008C1908700020DFF8D4190880DFF8CC0978
:101340000088411CDFF8C42911806E4980B2401822
:1013500044710220DFF8DC18087003E0FF20DFF89A
:101360005C1908702CE0DFF8D008007802281ADB3E
:101370000520644988700120DFF8401908700020BA
:10138000DFF888190880DFF884090088411CDFF83D
:101390007C2911805B4980B2401844710220DFF83B
:1013A0009418087003E0FF20DFF81019087007E0B8
:1013B000FF20DFF8081908700320DFF8781808709C
:1013C0000A21002000F0D3F890E0002000F0F0F8AF
:1013D000002804D0FF20DFF8E41808703BE0DFF8B5
:1013E0002C090088411CDFF824291180454980B26E
:1013F0004018447143488078012816D1DFF80C0961
:101400000088042803D1E4B2DFF8280B0480DFF859
:10141000240B0088001DDFF8F418098888421ADAC6
:101420000320DFF81018087015E0DFF8E0080088E6
:10143000082803D1E4B2DFF8FC0A0480DFF8F40ADC
:1014400000880830DFF8C4180988884203DA0320CE
:10145000DFF8E01708700A21002000F088F8DFF8B4
:10146000D4070078032840D1002000F0A1F8002024
:101470002E4908700020DFF8BC1708700020DFF844
:10148000B81708700020DFF8AC1A088000F03CF8AC
:1014900000210020FFF7C7FD02210A20FEF70CFF04
:1014A000DFF8380BFEF758FF16488278DFF8301B5C
:1014B000DFF8C00B01F0B8FA03210A20FEF7FCFEAA
:1014C000DFF8B00BFEF748FFDFF8F0070278DFF82F
:1014D000141BDFF8A00B01F0A7FA04210A20FEF785
:1014E000EBFEDFF8900BFEF737FFFFE710BD80B58E
:1014F000C0B20100DFF8440701F082FA01BD00002C
:101500009F090020340A002080B5FFF7ABFADFF80E
:10151000AC0B0088401CDFF8A41B0880FFF7A4FA7E
:1015200001BD0000800A002020530000B40A002002
:10153000C809002010530000390A0020E3270000EA
:10154000940A0020691A0000A31A0000DD1A0000A6
:10155000817800290AD10188002907D00188491E15
:1015600001800188002901D1012181707047C0B23A
:10157000032816DADFF8782DC0B222F8201089B2DD
:10158000002907D00021DFF8682DC0B212EB8000DF
:10159000817006E00121DFF8582DC0B212EB800007
:1015A0008170704700000000A60A0020991B00000F
:1015B000DFF83C1DC0B211EB80018978012908D108
:1015C0000021DFF82C2DC0B212EB800081700120C9
:1015D00000E0002070470000471A0000F11B0000E7
:1015E000411C0000C11C0000C91C0000111D0000AE
:1015F000AB1D00002D1E0000F31E0000391F00006F
:10160000811F0000E91F0000312000007920000048
:10161000C1200000BD220000F52200005B23000075
:101620007923000097230000CD230000032400004D
:101630000B24000013240000312400006B24000060
:10164000C72400002325000038B50400FE20DFF881
:10165000781D09880855DFF8700D0088401CDFF8F8
:10166000681D0880E320DFF8601D09880855DFF851
:10167000580D0088401CDFF8501D08807D20DFF8E1
:10168000481D09880855DFF8400D0088401CDFF828
:10169000381D0880DFF8300D0588681CDFF8281D2C
:1016A0000880FEF7FDFEADB228550720DFF8181DB3
:1016B00009880855DFF8100D0088401CDFF8081D68
:1016C00008800020DFF8001D09880855DFF8F80CB5
:1016D0000088401CDFF8F01C08800020DFF8E81CC0
:1016E00009880855DFF8E00C0088401CDFF8D81C9A
:1016F00008800020DFF8D01C09880855DFF8C80CE6
:101700000088401CDFF8C01C08801420DFF8B81CDB
:1017100009880855DFF8B00C0088401CDFF8A81CC9
:1017200008807020DFF8A01C09880855DFF8980CA5
:101730000088401CDFF8901C08800020DFF8881C1F
:1017400009880855DFF8800C0088401CDFF8781CF9
:1017500008800020DFF8701C09880855DFF8680C45
:101760000088401CDFF8601C0880DFF85C0C0588EE
:10177000681CDFF8541C0880FEF792FEADB22855B5
:101780000420DFF8441C09880855DFF83C0C008869
:10179000401CDFF8341C0880DFF8900C008880B211
:1017A000000ADFF8241C09880855DFF81C0C0088A3
:1017B000401CDFF8141C0880DFF8700C0088DFF88C
:1017C000081C09880855DFF8000C0088401CDFF869
:1017D000F81B08800220DFF8F01B09880855DFF8A5
:1017E000E80B0088401CDFF8E01B08806020DFF871
:1017F000D81B09880855DFF8D00B0088401CDFF89B
:10180000C81B0880DE20DFF8C01B09880855DFF8F8
:10181000B80B0088401CDFF8B01B08806020DFF8A0
:10182000A81B09880855DFF8A00B0088401CDFF8CA
:10183000981B0880DE20DFF8901B09880855DFF828
:10184000880B0088401CDFF8801B08800120DFF82F
:10185000781B09880855DFF8700B0088401CDFF8FA
:10186000681B088031BD00007525000080B5DFF8D9
:10187000EC0C007850F04000DFF8E01C0870C0204D
:10188000FEF777FE01BD000041260000A126000002
:10189000FD2600007B270000AF2700001328000072
:1018A00081B0002106E0C9B2421AD2786B46C9B2B3
:1018B000CA54491CC9B20429F5DB009801B070472D
:1018C000CA78DFF8043B1B881A54DFF8FC2A128818
:1018D000521CDFF8F43A1A808A78DFF8EC3A1B8859
:1018E0001A54DFF8E42A1288521CDFF8DC3A1A8016
:1018F0004A78DFF8D43A1B881A54DFF8CC2A1288C9
:10190000521CDFF8C43A1A800978DFF8BC2A128822
:101910001154DFF8B40A0088401CDFF8AC1A0880C4
:10192000704707488078052802D1DFF8340C01E0C1
:10193000DFF8080D70470000D5090020D10900200C
:10194000340A002080B5FEF7BFFDDFF8181C897847
:10195000052903D10521604A917002E001215E4A08
:101960009170DFF8041C0978002903D001215A4A3C
:10197000517010E00621584A5170DFF8E81B897950
:10198000090604D50121DFF8E42B117003E00021E2
:10199000DFF8D82B117050498978052926D14E4897
:1019A000407850F080004C494871DFF8C40B007853
:1019B00010F03F00DFF8B41B097850EAC110464927
:1019C0008871DFF8AC0B40784349C871DFF8A00B91
:1019D000807841490872DFF8980BC0783E49487218
:1019E000DFF88C0B00793C4988720AE03A49497863
:1019F000394A5171DFF8741B097850EAC110364931
:101A0000887101BD10B50400FFF79CFFDFF8880C5A
:101A10000078DFF8B41909880855DFF8AC090088A8
:101A2000401CDFF8A4190880DFF8300B0078DFF8DD
:101A3000981909880855DFF890090088401CDFF8DC
:101A40008819088010BD10B504002000FFF7DAFFE8
:101A5000DFF8440C0078002802D12000FFF7F4FDE5
:101A600010BD00000809002038B504002000FFF771
:101A7000C9FFDFF8240C0078002811D1FEF77BFCA9
:101A80000090DFF844090588681CDFF83C190880DD
:101A9000FEF792FCADB2285569462000FFF710FF13
:101AA00031BD1CB504002000FFF7ACFFDFF8E80BE8
:101AB000007800280DD1FEF7CEFC0190FEF7D3FC94
:101AC000009001A92000FFF7FBFE69462000FFF708
:101AD000F7FE13BDB60A0020C809002030B585B056
:101AE00004002000FFF78EFFDFF8AC0B0078002821
:101AF0004ED1FEF7B0FC0490FEF73DFC0390FEF7DC
:101B000042FC0290FEF747FC0190FEF74CFC00906F
:101B100004A92000FFF7D4FEDFF8AC080588681C94
:101B2000DFF8A4180880FEF747FCADB2285503A9DA
:101B30002000FFF7C5FEDFF890080588681CDFF875
:101B400088180880FEF742FCADB2285502A9200093
:101B5000FFF7B6FEDFF870080588681CDFF8681824
:101B60000880FEF73DFCADB2285501A92000FFF723
:101B7000A7FEDFF854080588681CDFF84C180880B9
:101B8000FEF738FCADB2285569462000FFF798FEF5
:101B900005B030BD0050004038B504002000FFF70C
:101BA00031FFDFF8F40A0078002820D1FFF7B9FEF2
:101BB00005002878DFF8101809880855DFF80808AC
:101BC0000088401CDFF8001808806878DFF8F817F4
:101BD00009880855DFF8F0070088401CDFF8E8178F
:101BE00008802878FEF76BFC6878FEF772FC31BD40
:101BF00038B504002000FFF705FFDFF89C0A0078E5
:101C0000002815D1DFF8C0070588681CDFF8B81771
:101C10000880FEF759FCADB22855DFF8AC070588FF
:101C2000681CDFF8A4170880FEF758FCADB22855F1
:101C300031BD0000B50A0020BB0A00200050004062
:101C400010B504002000FFF7DDFEDFF84C0A007835
:101C500000282FD12820DFF8701709880855DFF8F1
:101C600068070088401CDFF8601708802920DFF82B
:101C7000581709880855DFF850070088401CDFF81E
:101C8000481708802A20DFF8401709880855DFF830
:101C900038070088401CDFF8301708802B20DFF859
:101CA000281709880855DFF820070088401CDFF84E
:101CB0001817088010BD000038530000B20A002039
:101CC00080B5FFF79FFE01BD10B504000021200084
:101CD000FFF798FEDFF8C0090078002814D1FEF75E
:101CE00061FC00210DE0C9B20A5CDFF8DC361B881C
:101CF0001A55DFF8D4261288521CDFF8CC361A8029
:101D0000491CC9B21829EEDB10BD0000A20A002050
:101D100070B5040000212000FFF774FEDFF8780999
:101D20000078002840D1FEF750FC0500FEF760FC6B
:101D30000600FEF770FC00210DE0C9B24A5DDFF835
:101D400088361B881A55DFF880261288521CDFF867
:101D500078361A80491CC9B20629EEDB00210DE055
:101D6000C9B28A5DDFF860361B881A55DFF858263D
:101D70001288521CDFF850361A80491CC9B20C294F
:101D8000EEDB00210DE0C9B20A5CDFF83C361B88AF
:101D90001A55DFF834261288521CDFF82C361A80C8
:101DA000491CC9B20329EEDB70BD38B5040000211F
:101DB0002000FFF727FEDFF8E0080078002834D184
:101DC000FEF74FFC00210DE0C9B20A5CDFF8F835E0
:101DD0001B881A55DFF8F0251288521CDFF8E83509
:101DE0001A80491CC9B20329EEDBDFF8DC0505883F
:101DF000681CDFF8D4150880FEF7DEFAADB228556E
:101E0000FEF737FC009069462000FFF759FDFEF70A
:101E10003AFC009069462000FFF752FDFEF75BFC9C
:101E2000009069462000FFF74BFD31BD3EB5040030
:101E30002000FFF7E7FDDFF860080078002857D1A1
:101E4000FEF72BFC0290FEF732FC0190FEF739FC06
:101E50000090DFF874050588681CDFF86C150880B1
:101E6000FEF743FCADB22855DFF85C050588681C19
:101E7000DFF854150880FEF742FCADB22855DFF8B4
:101E800048050588681CDFF840150880FEF712FB3E
:101E9000ADB2285502A92000FFF712FD01A92000CC
:101EA000FFF70EFD69462000FFF70AFDDFF8180571
:101EB0000588681CDFF810150880FEF72AFCADB213
:101EC0002855FA20DFF8001509880855DFF8F804CE
:101ED0000088401CDFF8F0140880DFF8EC04058867
:101EE000681CDFF8E4140880FEF71DFCADB228552D
:101EF00037BD10B504002000FFF784FDDFF8980718
:101F00000078002814D1FEF723FC00210DE0C9B2AF
:101F10000A5CDFF8B4341B881A55DFF8AC24128849
:101F2000521CDFF8A4341A80491CC9B20329EEDB25
:101F300010BD0000B00A002010B504002000FFF71B
:101F400061FDDFF854070078002818D1FFF7E9FC9D
:101F500000210DE0C9B20A5CDFF86C341B881A5509
:101F6000DFF864241288521CDFF85C341A80491CA4
:101F7000C9B21829EEDBFEF705FBFFF777FC10BDB1
:101F800038B504002000FFF73DFDDFF80C070078AE
:101F9000002821D1FFF7C5FC050000200DE0C0B2EC
:101FA000415DDFF8242412881155DFF81C140988DC
:101FB000491CDFF814241180401CC0B21528EEDB48
:101FC0002800FEF7F2FAA81DFEF702FB15F1120039
:101FD000FEF711FBFFF74AFC31BD0000445300003F
:101FE000FC520000E452000010B504002000FFF78E
:101FF00009FDDFF8A4060078002818D1FFF791FC4E
:1020000000210DE0C9B20A5CDFF8BC331B881A5509
:10201000DFF8B4231288521CDFF8AC331A80491C55
:10202000C9B20329EEDBFEF783FBFFF71FFC10BDEF
:1020300010B5040000212000FFF7E4FCDFF858068B
:102040000078002814D1FEF7F9FA00210DE0C9B29A
:102050000A5CDFF874331B881A55DFF86C2312888A
:10206000521CDFF864331A80491CC9B22029EEDB08
:1020700010BD00006C0A002010B504002000FFF71E
:10208000C1FCDFF814060078002815D1FFF749FCE1
:1020900000210AE0C9B20A5CCB4B1B881A55CA4A18
:1020A0001288521CC84B1A80491CC9B22029F1DB86
:1020B000FEF7B4FAFFF7DAFB10BD0000A40A002017
:1020C000F8B504002000FFF79DFCDFF8CC05007890
:1020D000002840F0F280FFF724FC0500002637E0DE
:1020E000F6B2705DB84909880855B7480088401CA9
:1020F000B5490880FA20B44909880855B2480088D3
:10210000401CB14908807F20AF4909880855AE4876
:102110000088401CAC490880A020AB4909880855BC
:10212000A9480088401CA84908800020A6490988C1
:102130000855A5480088401CA34908800020A249F2
:1021400009880855A0480088401C9F490880761CD3
:10215000F6B2042E80F2B180F6B2705DF4280AD097
:10216000BED3F6283DD021D3F82870D054D3F92817
:1021700000F08880B4E7F6B2705D9349098808558D
:1021800091480088401C9049088039208E49098870
:1021900008558D480088401C8B490880FEF763F97C
:1021A000009069462000FFF78BFBD0E7F6B2705D28
:1021B00085490988085584480088401C8249088060
:1021C00027208149098808557F480088401C7E499E
:1021D0000880FEF740F9009069462000FFF770FB89
:1021E000B5E7F6B2705D78490988085576480088E9
:1021F000401C7549088074480788781C724908801B
:10220000FEF7DAF8BFB23855FEF7B5F80090694628
:102210002000FFF755FB9AE7F6B2705D6A4909881E
:10222000085569480088401C674908806648078847
:10223000781C65490880FEF7C9F8BFB23855FEF72B
:10224000A2F8009069462000FFF73AFB7FE7F6B25C
:10225000705D5D49098808555B480088401C5A49F3
:10226000088059480788781C57490880FEF7B8F855
:10227000BFB23855FEF78FF8009069462000FFF78F
:102280001FFB64E7F6B2705D4F49098808554E4858
:102290000088401C4C4908804B480788781C4A49F4
:1022A0000880FEF7A7F8BFB23855FEF77CF800901B
:1022B00069462000FFF704FB49E7F1BD10B582B085
:1022C00004002000FFF79EFBDFF80C0600780028D2
:1022D0000DD1FFF726FBFFF7E3FA009069462000D7
:1022E000FFF7EEFA0098FEF7E7F9FFF7BFFA13BD24
:1022F000800A002030B583B004002000FFF782FB85
:10230000DFF894030078002826D1FFF70AFB0500C8
:10231000681CFFF7C5FA0190681DFFF7C1FA00902D
:10232000287829490988085527480088401C2649EB
:10233000088001A92000FFF7C3FA69462000FFF7D3
:10234000BFFA2878FEF7B1F80198FEF7A1F90098D6
:10235000FEF7A8F9FFF78AFA37BD80B5FFF752FB01
:10236000DFF874050078002805D1FEF704F8FEF7C1
:102370008FF9FFF77BFA01BD80B5FFF743FBDFF86C
:1023800058050078002805D1FDF7F5FFFEF78AF91A
:10239000FFF76CFA01BD80B5FFF734FBBE4800784B
:1023A000002810D1BD48007810F0BF00BB4908706C
:1023B000FEF7FDF9002803D08020FEF7DAF802E0EE
:1023C0004020FEF7D6F801BDA60A002010B582B065
:1023D00004002000FFF716FBDFF8FC04007800285B
:1023E0000ED1FEF738F8009069462000FFF768FA32
:1023F000FFF797FAFFF754FA00900098FEF7ABF951
:1024000013BD80B5FFF7FEFA01BD80B5FFF7FAFAFC
:1024100001BD80B5FFF7F6FADFF8BC0400780028AC
:1024200003D1FDF7A8FFFEF7A9F801BDA80A002017
:1024300010B504002000FFF7E5FA9748007800285F
:1024400012D1FFF76EFA0178DFF890241288115547
:10245000DFF888140988491CDFF88024118000788F
:10246000FDF7A5FFFFF702FA10BD10B582B004001A
:102470002000FFF7C7FA88480078002822D1FEF72D
:102480006EF900900098DFF8581400F0E7FA12D8BF
:102490000098DFF8501400F0F3FA0CD2FFF741FA7D
:1024A000FFF7FEF90090FEF75EF900906946200004
:1024B000FFF706FA06E0DFF83004009069462000D6
:1024C000FFF7FEF913BD10B582B004002000FFF73E
:1024D00099FA71480078002822D1FEF740F900905F
:1024E0000098DFF8081400F0B9FA12D80098DFF865
:1024F000001400F0C5FA0CD2FFF713FAFFF7D0F979
:102500000090FEF734F9009069462000FFF7D8F9F3
:1025100006E0DFF8D403009069462000FFF7D0F909
:1025200013BD10B504002000FFF76CFA5A4800787C
:10253000002812D1FFF7F5F90178DFF8A0231288FF
:102540001155DFF898130988491CDFF89023118092
:102550000078FEF7CFF8FFF789F910BDBA0A00201E
:10256000410A0020340A0020B80A0020040100209B
:102570000000002038B504004748007800285CD1EE
:10258000FEF708F900210DE0C9B20A5CDFF84C3310
:102590001B881A55DFF844231288521CDFF83C339D
:1025A0001A80491CC9B20629EEDBCC480588681C94
:1025B000CA490880FDF79CFFADB22855C748058879
:1025C000681CC6490880FEF7EDF8ADB22855C3482F
:1025D0000588681CC1490880FDF794FFADB22855F5
:1025E000BE480588681CBD490880FDF795FFADB25F
:1025F0002855BA480588681CB8490880FDF7AAFF25
:10260000ADB22855B5480588681CB4490880FDF767
:102610008DFFADB22855B1480588681CAF490880C8
:10262000FDF78EFFADB22855AC480588681CAB4954
:102630000880FDF799FFADB2285531BD3D0A002055
:1026400010B504002000FFF7DDF9134800780028DA
:1026500020D1FFF766F90178A04A128811559F49E9
:102660000988491C9D4A118041789C4A128811555D
:102670009A490988491C994A11808178974A128899
:10268000115596490988491C944A1180FDF7D9FFD4
:10269000FFF7ECF810BD0000B90A0020BA0A0020CC
:1026A00038B504002000FFF7ADF98B48007800280A
:1026B00023D18A480588681C88490880FDF7A4FE54
:1026C000ADB2285585480588681C84490880FDF707
:1026D000A5FEADB2285581480588681C7F49088051
:1026E000FDF7A6FEADB228557C480588681C7B49DD
:1026F0000880FDF7A7FEADB2285531BD38B50400FE
:102700002000FFF77FF974480078002834D1FFF7E4
:1027100008F9050028787149098808556F4800882C
:10272000401C6E49088068786C49098808556B48D8
:102730000088401C69490880A878684909880855BC
:1027400066480088401C65490880E8786349098824
:10275000085562480088401C604908802878FDF7C9
:102760004EFE6878FDF755FEA878FDF75CFEE87828
:10277000FDF763FEFFF77AF831BD10B504002000C5
:10278000FFF740F95448007800280FD1FFF7C9F847
:102790000178524A1288115550490988491C4F4AFC
:1027A00011800078FDF777FEFFF760F810BD10B5D7
:1027B00004002000FFF726F94748007800280FD1D1
:1027C000FFF7AFF80178454A128811554349098847
:1027D000491C424A11800078FDF753FEFFF746F886
:1027E00010BD10B504002000FFF70CF93A4800783E
:1027F00000280DD1FFF795F80178384A1288115555
:1028000036490988491C354A11800078FDF72FFEAA
:1028100010BD10B504002000FFF7F4F82E48007832
:10282000002825D1FFF77DF801782C4A1288115530
:102830002A490988491C294A11804178274A128867
:10284000115526490988491C244A11808178234A58
:102850001288115521490988491C204A1180C078E5
:102860001E49098808551D480088401C1B490880DE
:1028700010BD80B500208DF800001E4800F0D2F891
:102880008DF800009DF8000010F00700022801D12B
:10289000FEF7F4FB9DF8000010F00700042801D1BA
:1028A000FEF762FC01BD10B501215FF0804000F031
:1028B00050F811480088401C0F490880002406E0A9
:1028C0000E48E4B210EB8400FEF742FE641CE4B252
:1028D000032CF5DB10BD0000B90A0020A60A002079
:1028E000000040400100A04000001041000098415D
:1028F0000100A84100500040AA0A0020800A0020E0
:102900000180012070470171012070470172012090
:1029100070470177007F704780F8201090F8200002
:1029200070470268531C03601170704710B4848BA9
:10293000640601D5002007E0048914F470640C4398
:1029400014431C430481012010BC70470180012006
:10295000704781810120704770B4264C2488A4B24E
:1029600014F460656D12002D0BD0022D0DD00AD32A
:10297000042D0ED00BD3062D0FD00CD3072D0ED067
:102980000FE001250DE002250BE0042509E00825F4
:1029900007E0102505E0202503E0402501E0802523
:1029A000FFE7154C2488A4B2E40700D56D00134C52
:1029B0006E0194FBF6F494FBF1F404854FF4006689
:1029C0006D0196FBF5F50D4E754395FBF4F494FB04
:1029D000F1F1B1F5006151F40841818400210171E8
:1029E00013F03C0112F0030211430173007D70BC2F
:1029F0007047000004200040442400400024F400FC
:102A0000027D920602D50170012000E0002070478F
:102A100000787047002A00D00174007E7047017171
:102A200001207047007A70470CB41CB5044604A816
:102A300001900A46009401AB694607487844183073
:102A400000F030F8009A0021117000285CBF009857
:102A5000001B16BC5DF80CFBCBFEFFFF4FF0807C2B
:102A60001CEB400F94BF1CEB410F05E040EA010C4A
:102A70005FEA4C0C01D28142704718BF8842704710
:102A80004FF0807C1CEB400F94BF1CEB410F05E026
:102A900040EA010C5FEA4C0C01D28842704718BF33
:102AA000814270472DE9F04F80460FF23060A5B0AB
:102AB00015461E46D0E90023CDE9122300200491DB
:102AC0000D900DF1500A6FF0004900E065190020EB
:102AD000ADF8020012AB4FF0FF3229460DF10200B3
:102AE00001F093F80446012C04DA2878441EA4412E
:102AF000E443E40FBDF8020025280CBFA4F1010B4C
:102B0000A346BBF1010F0EDB2F4617F8011B0498FB
:102B1000C0470028049000F0F3800D98401CBBF1E2
:102B2000010B0D90F1D1BDF80200252807D100203E
:102B30000790089009900A900B900C9005E00028EF
:102B4000C4D10D98D2E240F0010015F8011F2029F0
:102B5000F9D023290DD02B2904D02D2906D03029D6
:102B60000AD00CE040F0020080B2EEE740F0040032
:102B7000FAE740F00800F7E740F01000F4E72A29F0
:102B80000ED13168316051F8042B3160002A0F9268
:102B900004D5514240F004000F9180B26D1C11E049
:102BA00000210F9109E00F99494505D001EB810300
:102BB00002EB430130390F916D1C2A78A2F13001EC
:102BC0000A29F0D329782E2903D04FF0FF310E9136
:102BD0001DE015F8011F2A2907D1316831606D1CED
:102BE00051F8042B31600E9211E000210E9109E0A2
:102BF0000E99494505D001EB810302EB43013039C1
:102C00000E916D1C2A78A2F130010A29F0D3ADF89B
:102C100040000FF2D040297801F008F808B115F80B
:102C2000010B8DF842009DF84200682802BF297808
:102C30006829622005D06C2804BF28786C2803D14D
:102C400071208DF842006D1C14A8069015F8014BF8
:102C5000B4F125002AD01C3800F0D480001F0228CF
:102C600040F2D080133800F0F580093800F0CA80B7
:102C7000801E00F05C81401E00F03581401E02285D
:102C800040F2C080001F00F02E81401F00F08B80BA
:102C9000401E00F0DF80401E35D0C01E0BD0801ECD
:102CA00000F0D880C01E00F0D58063E125208DF8AB
:102CB0005000012067E19DF842006C2830683060C8
:102CC00014D050F8047B306005970E9C002C04D57E
:102CD000384600F0B7FF044606E022460021384699
:102CE00000F0CCFF00B1C41B08944DE150F8042B58
:102CF000306002A9404600F033FA002840F14481D8
:102D00004FF0FF30F2E1316831603C2451F8040BA0
:102D100031600021CDE9020114A80590DDE902012E
:102D2000069F11B908B90E9AB2B10206120FA0EBB4
:102D300002123032D2B2631E3A2AA8BF27320009EB
:102D4000DA5540EA0170090908BF00281C4603D083
:102D5000059AE3199A42E8D3E0190590C4F13C01C1
:102D60000E980891814209DA401A0A904FF6EF71E5
:102D7000BDF840000840ADF8400005E1002840F1F2
:102D800003819DF8400000F01400102840F0FC8002
:102D90000F98079A801A0A9A801A441A012CC0F2D6
:102DA000F3800A94F0E09DF8420062281AD0682867
:102DB00006D06A280CD06C281CD0712808D019E0E5
:102DC0003068306050F8041B30600D980880DBE0FC
:102DD0003068306050F8042B30600D98C117C2E99C
:102DE0000001D1E03068306050F8041B30600D986D
:102DF0000870C9E03068306050F8041B30600D98EE
:102E00000860C1E03068C01D20F007023260D2E9DE
:102E1000000108323260CDE90201002902D507988D
:102E20002D210AE0BDF84000810702D507982B212B
:102E300003E0C00705D50798202100F80A10401CC0
:102E4000079014A8079908180590214602A800F0D9
:102E500091FB99E09DF842006C280DD0712818BFB5
:102E60006A2809D13068C01D20F007023260D2E91B
:102E700000010832326005E03168316051F8040B1E
:102E800031600021CDE902019DF84200682803D19C
:102E9000DDE9020180B20BE0622803D1DDE9020125
:102EA000C0B205E0742818BF7A2804D1DDE9020118
:102EB0000021CDE902019DF8400000072ED5DDE993
:102EC0000201002908BF002828D044F020007828FB
:102ED00024D10798302100F80A10401C411C0791AA
:102EE00000F80A401AE09DF84200314600F001F96E
:102EF000CDE90201002902DA07982D210AE0BDF888
:102F00004000810702D507982B2103E0C00705D5B3
:102F10000798202100F80A10401C079014A8079970
:102F200008180590214602A800F0A0FA2CE09DF8B0
:102F300042006C2809D0012007903068306050F8BA
:102F4000041B30608DF850101EE03068306001AA1C
:102F500050F8041B3060ADF804100020ADF80600F6
:102F600002A94FF0FF300E90404600F0F9F800281B
:102F70000AD5C5E625208DF85000012007901CB128
:102F80008AF80140022007900F980799401A0A9981
:102F9000401A0899401A0B99401A0999401A0C993D
:102FA000441A9DF84000400710D42020012C8DF8D1
:102FB00000000BDB274601236A4602A9404600F0C9
:102FC00000FE00287FF49CAE7F1EF4D1DDF81CB01B
:102FD000BBF1000F14AF0DD017F8011B0498C047C8
:102FE000002804903FF48CAE0D98401CBBF1010BFF
:102FF0000D90F1D130208DF800000A9F012F0ADBDF
:1030000001236A4602A9404600F0DBFD00287FF458
:1030100077AE7F1EF4D1DDF820B0059FBBF1000F25
:103020000DD017F8011B0498C047002804903FF406
:1030300067AE0D98401CBBF1010B0D90F1D1302013
:103040008DF800000B9F012F0ADB01236A4602A9BD
:10305000404600F0B6FD00287FF452AE7F1EF4D14A
:1030600005980899DDF824B00F18BBF1000F0DD0BA
:1030700017F8011B0498C047002804903FF440AEA5
:103080000D98401CBBF1010B0D90F1D130208DF853
:1030900000000C9F012F0ADB01236A4602A940466B
:1030A00000F08FFD00287FF42BAE7F1EF4D19DF839
:1030B000400040077FF50BAD2020012C8DF800006B
:1030C000FFF605AD01236A4602A9404600F079FDEE
:1030D00000287FF415AE641EF4D1F8E4000000006F
:1030E00000000000686A6C747A4C000025B0BDE8EE
:1030F000F08F622826D068281DD06A2808D06C2856
:1031000027D0712804D0742823D07A280CD020E04E
:103110000868C01D20F007000860D0E900230830CF
:1031200008601946104670470A680A6052F8040B96
:103130000A60002170470A680A6052F8040B0A60AE
:1031400000B20BE00A680A6052F8040B0A6040B251
:1031500004E00A680A6052F8040B0A60C11770475D
:103160002DE9F44F0D4694B0D5F830A0BAF1000F18
:10317000804648BF6FF0004A00F0ACFD696B401814
:1031800001900FF66C20D0E90023CDE9022395F8D9
:103190003800400702D40198412805D240200DF1A3
:1031A00010090190002609E000F09AFD5FEA00098D
:1031B000F8D14FF0FF3056E1AAEB040ABAF1010F43
:1031C000C0F2CE801498018802AA0DF1010000F02F
:1031D000DFFD0028044600F1DE801498008810B955
:1031E000641E00F1D880A245C0F2BA8068690199D6
:1031F0002218914280F0A2806E634042296A401AF0
:10320000A969401A696A401AE969401AA96A461A06
:1032100095F83800400710D42020012E8DF80000CA
:103220000BDB374601236A462946404600F0C9FCBD
:10323000002840F0B0807F1EF4D1D5F814B0BBF167
:10324000000F4F460DD017F8011BA868C047002893
:10325000A86000F0A080E86A401CBBF1010BE862A6
:10326000F1D130208DF800002F6A012F0ADB0123F5
:103270006A462946404600F0A4FC002840F08B80B6
:103280007F1EF4D1D5F818B0EF68BBF1000F0CD059
:1032900017F8011BA868C0470028A8607BD0E86A1F
:1032A000401CBBF1010BE862F2D130208DF8000028
:1032B0006F6A012F09DB01236A462946404600F068
:1032C00080FC002867D17F1EF5D1E868A969D5F890
:1032D0001CB00F18BBF1000F0CD017F8011BA86829
:1032E000C0470028A86056D0E86A401CBBF1010B1B
:1032F000E862F2D130208DF80000AF6A012F09DBBF
:1033000001236A462946404600F05BFC002842D172
:103310007F1EF5D195F8380040070DD52020012EED
:103320008DF8000008DB01236A462946404600F07C
:1033300048FC80BB761EF6D100266E612246686985
:103340000DF10101484400F031FD68692018686101
:103350001498801C1490801E008800287FF42CAFE5
:10336000686B6969401A296A401AA969401A696A32
:10337000401AE969401AA96AA0EB010A95F83800D9
:10338000400710D4BAF1010F0DDB5446A868202184
:10339000C047A86010B94FF0FF365DE0E86A401CF6
:1033A000641EE862F2D16B694A462946404600F045
:1033B00008FC0028EFD12C6A012C0ADBA868302118
:1033C000C0470028A860E6D0E86A401C641EE86296
:1033D000F4D1AB69EA682946404600F0F2FB0028C8
:1033E000D9D16C6A012C0ADBA8683021C0470028BB
:1033F000A860D0D0E86A401C641EE862F4D1E86896
:10340000A969EB690A182946404600F0DAFB002852
:10341000C1D1AC6A012C0ADBA8683021C047002862
:10342000A860B8D0E86A401C641EE862F4D195F840
:10343000380040070ED5BAF1010F0BDBA868202138
:10344000C0470028A860A6D0E86A401CBAF1010A6B
:10345000E862F3D16E616E6304A881451CBF4846E3
:1034600000F0E0FC304615B0BDE8F08F2DE9FA4ED3
:1034700005460A462F696F2A08BF082405D041F087
:103480002000782814BF0A2410243C26D5E9000126
:10349000642A18BF692A81468A4605D1002903DAC1
:1034A000D9F100096AEB4A0ABAF1000F08BFB9F175
:1034B000000F0CD1286B50B9082C36D195F8380084
:1034C000000732D530203B2687F83B002DE0E3177C
:1034D00048465146224600F0E5FCA4FB0023A9EB38
:1034E00002023032D2B2A6F1010B3A2A5E4603DB69
:1034F0009DF80030513B9A180BF8072081465FEA8F
:10350000010A08BFB9F1000F03D0E868F119884239
:10351000DDD3082C09D195F83800000705D5F05DFA
:10352000302802D0761E3020F055C6F13C00A8614C
:10353000F119E960296B884208DA081A28624FF607
:10354000EF71288F08402887BDE8F38E00290ED53B
:1035500095F8381001F01401102908D1696B6A69D7
:10356000891A2A6A891A0E1A012EA8BF2E62BDE88E
:10357000F38E00002DE9F24F04468EB0D4E900012D
:10358000CDE9020104AF9DF8380040F0200BBBF1FB
:10359000610F0AD0206B002848BF062004D408BF62
:1035A000BBF1670F01D1012020636168C1F30A50AC
:1035B00040F2FF7290421CD1080304BF206800282B
:1035C00009D10320A0619DF8380061381A2836D34C
:1035D0000FF2306108E00320A0619DF838006138E7
:1035E0001A2829D30FF21461E068032200F0DEFBF1
:1035F000BEE1012816DA204600F0CBFC012811DBE1
:1036000000250020BBF1610F20D1E168302201F8D4
:10361000012B4A1CE2609DF83820612A0CBF7822F9
:1036200058220FE0626840F2FE3161F31E52451AE3
:1036300062604FF0FF30E5E70FF2BC51D4E70FF2C4
:10364000C051D1E70A706169891C616110B9002617
:10365000002584E1BBF1610F40F09880206B0028C9
:103660004CBF2126461CD4E900ABDDE90201002253
:10367000002300F0AFFC36B23ABF8BF00040CDE93A
:1036800002A0CDE902AB06F101082D1FB8F1010F30
:103690008DF810200DF1110736DBDDE90201002263
:1036A000002300F0AFFC2FD21C2102A800F0C2FCC6
:1036B000DDE9020100F044FDA8F10708B8F1010FAF
:1036C000814609DB00F068FD02460B46DDE9020198
:1036D00000F07AFDCDE90201F81D072105E009F0AF
:1036E0000F0200F8012D4FEA2919B9F1010F01DB92
:1036F000491EF4D5491E5CBF002200F8012DF9D502
:10370000C71DB8F1010FC8DA0DF11100391AB14225
:10371000B8BF0E4636B230000DF111072FD48842E3
:1037200006DA04A9411849780829A8BF0F2100DA50
:10373000002104AA821800E0761E12F80139401E0A
:103740008B42F9D00F2904D104A941184A78521CA0
:103750004A70002802D504AF761C2D1D36B2701EAB
:103760000DD4C1190A783032D2B23A2A03DB9DF85F
:1037700038303A3B9A18401E01F80129F2D5206BE7
:10378000002840F1EC80701E2063E8E0DDE90201D2
:103790000022002300F01EFC3CBF81F00041CDE977
:1037A00002012DB247F2975068434B49DFF82C9144
:1037B00090FBF1F52DB2C5F1070ABAF1010F904661
:1037C0001CDBDDE902675FEACA7007D542464B465B
:1037D0003046394600F0B8FD06460F464046494699
:1037E00042464B464FEA6A0A00F0AEFDBAF1000FBE
:1037F00080468946E7D1CDE9026724E0CAF1000A94
:103800000026374F14E05FEACA7007D542464B46A0
:103810003046394600F098FD06460F464046494678
:1038200042464B4600F090FD4FEA6A0A80468946C0
:10383000BAF1000FE7D1DDE9020132463B4600F064
:1038400055FECDE90201BBF1660F0CBF05F10A0080
:103850000620216BDFF88C904618142EA8BF132683
:1038600030208DF810000DF11107012E3CDBDDE951
:10387000020100F07BFC07F1080104220A23B0FBDF
:10388000F3F303EB8307A0EB4700303001F8010CA2
:103890000A20B3FBF0F000EB8007A3EB47033033C3
:1038A000521E01F8023DE9D1083E012E01F1080740
:1038B000DBDBDDE9020100F059FC00F077FC024699
:1038C0000B46DDE9020100F07FFC00224B4600F0D0
:1038D0003BFDCDE90201CAE7A086010000002440BB
:1038E0000000F03F84D797410DF11100381A0DF117
:1038F000110702E0401E6D1E7F1C39783029F9D077
:10390000BBF1660F02D12DB2691C04E0BBF1650F5B
:103910000CBF01210021226B8E1836B2B042B8BF15
:10392000064636B231001AD4814204DAC85D352821
:10393000A8BF392000DA3020CA19521E00E0761ED6
:1039400012F80139491E8342F9D0392802D1C85DE5
:10395000401CC855002902D57F1E761C6D1C2DB257
:103960009DF83810009533B23A46204600F003F82F
:103970000FB0BDE8F08F2DE9F04786B006468A46C5
:1039800090461D4600F0FBFE012D406A376B90F813
:10399000009002DA01250FF270284AF02000BDF9EC
:1039A0003840662808BF641C12D0672876D114F10D
:1039B000040F79DBBC4277DA96F83800641C000704
:1039C00002D4BD42B8BF2F4624B23F1B48BF0027D8
:1039D00024B2F068B169012C21DA4A1C30230B545F
:1039E000012F03DA96F83810090702D502F8009083
:1039F000521CB261E742B8BF7C4224B26142E7196F
:103A00007162AF42B8BF3D46B3692DB2F5612A4637
:103A10004146181800F0CAF9781BB062BAE00818DD
:103A2000A54216DA2A46414600F0C0F9B169691884
:103A3000601B012FB161706203DA96F8380000074D
:103A400005D5F06801F80090F069401CF061B7629C
:103A5000A0E02246414600F0A9F9B06920182D1BCC
:103A6000012F03DA96F83810090703D5F16800F83A
:103A70000190401C2DB2B061AF42B8BF3D46F06826
:103A8000B3692DB22A4604EB0801181800F08EF92C
:103A9000B0692818B061781B70627BE0BAF1610FE1
:103AA00014D14FF0700A16E0BD4204DA96F83810CF
:103AB000090758BF2F467F1E48BF0027BAF1670F7E
:103AC00014BF4FF0450A4FF0650A04E0BAF1410F08
:103AD00008BF4FF0500AB169F0684A1CB261012F6B
:103AE00018F8013B0B5403DA96F83810090715D57E
:103AF000531CB36102F80090012F0FDB6D1E2DB235
:103B0000AF42B8BF3D462DB22A464146181800F0D4
:103B10004DF9B0692818B061781B7062F068B1691E
:103B20000918200081F800A004D42B20487001F16E
:103B3000020804E02D224A7001F1020864420025C7
:103B400002AF08E00A22684600F032FE019807F84A
:103B5000010B6D1C009C21B20129F3DA022D06DA5B
:103B60004AF02000652804BF302008F8010B4DB949
:103B7000302008F8010B07E06D1E02A8285C3030E9
:103B800008F8010B012DF7DAF068B1690818A8EB05
:103B90000000F06196F8380000F0140010280DD1F4
:103BA0007069B1690818716A0818F1690818B16A72
:103BB0000818716B8842BCBF081A306206B0BDE8B5
:103BC000F087F8B504460D4616461F46002077B12B
:103BD00016F8011BA868A047A86030B1E86A401C2D
:103BE000E86200207F1EF3D1F2BD4FF0FF30F2BD3E
:103BF00000000000000000006E616E004E414E00AB
:103C0000696E6600494E46003000F8B504460D4620
:103C100016461F4600F0D4FD3B4632462946204654
:103C200001B0BDE8F04000F0E2BD00000278C9B28A
:103C30008A421AB11CBF10F8012FF9E718BF002003
:103C40007047000000F10103810704D010F8011B48
:103C500089B18107FAD10268B2F10131914311F0C3
:103C6000803F04BF50F8042FF6E710F8011B11B194
:103C700010F8011BFBE7C01A70470000C9B28307A8
:103C800006D0521E22D310F8013B9942F7D11FE013
:103C9000083A13D302F1040241EA012141EA014149
:103CA00050F8043B121F21BF4B40A3F1013C2CEA0A
:103CB000030C1CF0803FF3D0C9B2001F083210F88B
:103CC000013B521E28BF91EA030FF8D818BF01200C
:103CD000401E704780B500F073FD012002BD00005A
:103CE00070B5054605F10F00C408C046C046E400A3
:103CF000A54232D2082C04D2082402E0083000F099
:103D000091F82248026811000CD1011D0A6802B323
:103D10001368A34238BF111DF8D310E01D68A542F7
:103D20000DD2191D0B68002BF8D11268011D00E09F
:103D3000191D0B6893420CD01D68A542F8D361B1E0
:103D40000D682A68A2F10803A3420AD26A680A60D1
:103D50000FE000F06FFD0028D0D1C046C046002023
:103D600070BD63190B60121B6E685E600B681A6091
:103D70002C60096800291DBF4A68002A091D00211E
:103D80000160C046C04605F1080070BD8C0A0020E5
:103D900070B504460D46164600F012FD324629461F
:103DA0002046BDE8704000F015BD000062B38B07EF
:103DB00008D0521E11F8013B00F8013B00F02480AE
:103DC0008B07F6D1830740F0208000BF103A07D35D
:103DD00030B4B1E83810103AA0E83810F9D230BC4D
:103DE000530724BFB1E80810A0E8081044BF51F8F9
:103DF000043B40F8043BD20724BF31F8022B20F8E3
:103E0000022B44BF0B7803707047083A07D3B1E820
:103E10000810083A40F8043B40F804CBF7D25307A7
:103E2000E4E7000000B9704738B5A0F10804206845
:103E3000082833D310F0070F30D1C046C0461848C9
:103E4000416809B18C4203D26160446017E01946B1
:103E50004B680BB1A342FAD30B685D18AC421BD37D
:103E6000A54204D12268D2180A600C4607E04A68CD
:103E70001AB123681B199A420ED362604C606168C4
:103E800051B1226813198B4206D1002303600868E0
:103E90008018206048686060C046C04631BD0000A0
:103EA0008C0A00201B4213D1094236D12AB1844624
:103EB000B0FBF2F002FB10C2704700F0D1BCFCD3A3
:103EC0000022002370470B000200002100207047F1
:103ED000904271EB030CF6D370B5B1FA81F4B3FAEA
:103EE00083F52C1BA340C4F1200532FA05F63343B9
:103EF000A2405FF00046E64002E05B085FEA320263
:103F0000841A71EB030524BF204629467641F4D379
:103F100002000B003000002170BD012ACFD970B51E
:103F2000140C20D0B1FA81F4B2FA82F5C4F1200465
:103F30006419B4F12006D6D3B2405FF00044F440D7
:103F4000002502E052085FEA3303C61A71EB020E45
:103F500024BF3046714664416D41F3D302000B002B
:103F60002000290070BD0C46B1FBF2F102FB1145A7
:103F70002D0445EA1045B5FBF2F402FB145580B25E
:103F800040EA0545B5FBF2F002FB105240EA04405E
:103F900070BD30B4436803F0004201211B031B0BCA
:103FA000436004BF0368002B08D10DE00368DD0FF8
:103FB00045EA440444605B000360491E4468E30230
:103FC000F4D523031B0B436043681A434260084641
:103FD00030BC70474FF4001C1CEB410F94BF1CEB2E
:103FE000430F09E041EA030C50EA4C0C52EA0C0C76
:103FF00003D2994208BF9042704714BF8B4282425D
:10400000704700004FF4001C1CEB410F94BF1CEBE9
:10401000430F09E041EA030C50EA4C0C52EA0C0C45
:1040200003D28B4208BF8242704714BF994290422C
:104030007047000070B504460D466068C0F30A5032
:1040400040F2FF71884207D16068000304BF206816
:10405000002817D0022070BD20B92046FFF799FF35
:10406000012866DA012D0FDB40F2FF71091A8D423B
:104070000AD36068002847BF00202F4900202F493D
:10408000C4E90001012070BD4142A942616806DA1D
:104090006FF31E51401941EA0050606040E0401E3D
:1040A00063684519012205F1350062F31F53352875
:1040B00001F00041636003D361600020206070BDA7
:1040C000002015F11F0F04DA20682360002220353C
:1040D00062606A4212D0401E25688041C2F120030E
:1040E000C0439D4045EAD07025686668D54006FA11
:1040F00003F32B4323606368D340636062680A4321
:10410000B0F1004F626003D80DD12078C0070AD506
:104110002068401C2060206828B96068401C6060EE
:104120004FF0FF3070BD6068884204BF20680028EF
:10413000F6D1002070BD00BF0000F0FF0000F07F4E
:10414000F446400D40EAC120490006D200F014F8C0
:10415000004248BF6FF00040604700F00DF84FF09C
:10416000004188428CBF084640426047400D40EA0B
:10417000C120490080F00D8040F00040490DA1F5BC
:104180008061491C05D4D1F11F0154BFC840C0173C
:1041900070474FF000007047010040F10980F4467D
:1041A000404200F005F851F000416047010000BFB7
:1041B00009D0B0FA80F18840C91CC1F584610905B5
:1041C00001EBD02140057047F0B44FF0004591EA73
:1041D000030F44BF6B4000F045BB00BF841A71EB76
:1041E000030604D26E40001BB141121973414FF413
:1041F000001C1CEB410F34BF7CEB430684E00C0D2C
:10420000A4EB1356362E7DDC012E43DC45EAC32396
:1042100043EA525312BFD20292025B08240545EAD8
:10422000C12141EA5051D2EBC020994125D407D198
:10423000B0FA80F610FA06F164D00020203608E0CB
:10424000B1FA81F6B140C6F1200220FA02F2114320
:10425000B0404FEAF474B4EB465434F001064FEA30
:1042600074040AD8D6F50016760D04F00044F04028
:1042700061FA06F25040F1404840C00A40EA41501D
:1042800021F0004128BF5FEA500550F1000044EBE7
:10429000D12137E045EAC323DB0A45EAC121C90A37
:1042A000B6F120050EDD42EA0242120CC5F12006ED
:1042B00003FA06F6EB4042EA06056D42984161F1C9
:1042C00000010DE062FA06F5F240554063FA06FC83
:1042D00082EA0C02F3405A406D42904161EB0301C7
:1042E00011F4801F05D1641E620502D06D004041AB
:1042F000494121F48011430875F1004350F1000059
:1043000041EB0451F0BC70471CEB410F15D223F078
:10431000004352EA43060BD04FEA4C0CBCEB410F72
:1043200004D80C0D661E342EB7DDEBE7801A9941D8
:1043300050EA410608BF0021E4E708BF1CEB430F29
:1043400028BF6FF00001DDE7B0B581EA030C0CF087
:10435000004C40F2FF7515EA11541DBF15EA1357C2
:10436000AC42AF4239E0E41923EA455343F48013E9
:10437000C90241F0004141EA505EC7021100A7FBAB
:10438000020200284FF00000EEFB01204FF0000178
:10439000E3FB072118BF42F0010240180021494108
:1043A000E3FB0E01A4F580640F0302D252004041EA
:1043B000494154F101046CDD470872F1004250F1AB
:1043C000000051EB0451A1F580115CBF41EA0C01E2
:1043D000B0BD4CEA05510020B0BD05EA1357AC4210
:1043E00014BFAF4241E050EA410E1CBF52EA430EF7
:1043F00002E061460020B0BD24423C441BD15FEA8C
:10440000070EF6D0090302BF01460020AEF1140EDC
:10441000B1FA81F7AEEB070401FA07FE0C37C7F1DA
:10442000200100FA07F7C8404EEA000E23EA455380
:1044300043F48013A2E733F00043B3FA83F704BFD9
:10444000B2FA82FE77440B3FE41BB7F1200E2FBF78
:1044500002FA0EF3BB40C7F1200E22FA0EFE38BF5F
:1044600043EA0E03BA40641C82E750EA410E14BFCF
:1044700052EA430E6FF000014FF4001717EB430FA1
:104480008ABF194617EB410FB5E74CEA05510020EA
:10449000B0BDD4F10104B4F120070FDAC4F1200754
:1044A000520828BF42F0010210FA07F501FA07F797
:1044B000E1BF2A43E0403843E1400FE0352C98DC6F
:1044C000C7F1200452EA400220FA07F218BF42F076
:1044D000010231FA07F0A1400A43002172F10042C3
:1044E00050F1000051EB0C01B0BD00002DE9F0418E
:1044F00040F2FF7581EA030C0CF0004C15EA1154F0
:104500001DBF15EA1357AC42AF42E9E0BC41C1F30D
:104510001301C3F31303801A994143F4801304D2A7
:10452000641E4000494180185941C90241EA505176
:10453000B1FBF3F603FB1611A2FB0675D7EBC02007
:10454000A94102D2761E80185941C90241EA505150
:10455000B1FBF3FE03FB1E11A2FB0E75D7EBC020CF
:10456000A94103D2AEF1010E80185941890241EAF6
:104570009051760546EA8E2EB1FBF3F603FB161139
:10458000A2FB0675D7EB8020A94102D2761E8018C7
:104590005941C90241EA50514EEA060EB1FBF3F609
:1045A00003FB1611A2FB0675D7EBC020A94102D26E
:1045B000761E80185941C90241EA5051B1FBF3F708
:1045C00003FB1711A2FB0735D3EBC020A94167F10C
:1045D00000070CBF004247F0010766F3D5274FEAFA
:1045E0001E31B80814F5806414DDBD0775F1004272
:1045F00050EB0E5051EB045111F5801F5CBF41EAA6
:104600000C01BDE8F0814CF07F6141F0E0410020F9
:10461000BDE8F081BD076D0840EA0E5041F48011FD
:10462000D4F10104B4F120060ADAC4F12006020034
:10463000E04001FA06F3E1401843B24015430EE0B2
:10464000342C14DCC6F1200445EA40056D0820FA3C
:1046500006F2154321FA06F0A1400D43002175F141
:10466000004250F1000051EB0C01BDE8F081002048
:104670005FEA0C01BDE8F081CFB992185B41B3FA53
:1046800083F704BFB2FA82F6BF190B3FB7F12006D9
:104690002FBF02FA06F3BB40C7F1200622FA06F646
:1046A00038BF3343BA401CB1E419641E2FE77F4280
:1046B00031F00041B1FA81F404BFB0FA80F6A419D8
:1046C0000B3CB4F120062FBF00FA06F1A140C4F163
:1046D000200620FA06F638BF3143A0403C1B16E7FF
:1046E000AC421ABF05EA1357AF4214E050EA410644
:1046F0001CBF52EA4306BFE750EA41073046614615
:104700001CBF41EA0551BDE8F08152EA430C08BFE5
:10471000C143BDE8F08100204FF4001616EB410FB5
:1047200098BF16EB430F08BF16EB410F24BFC143E0
:1047300005E016EB430F0CBF61464CEA0551BDE89E
:10474000F081000080B5134800F0F6F80FF24C023B
:104750000FF244010160426241600FF24402826341
:1047600081600FF24402C160016141618161816237
:10477000C16201634163C2630164416401BD10B55C
:10478000044800F0D9F80446206808B9FFF7DAFFBA
:10479000204610BD08000020000000002E00000090
:1047A00066616C736500000074727565000000003E
:1047B00091FBF2F303FB1211C0E9003170470000D6
:1047C00080B5DFF80C0000F0B7F8806902BD00008A
:1047D0009800002030B430B90FF24800D0E900450D
:1047E000C2E900451BE00170012030BC704730B4C5
:1047F00031B90FF23800D0E90045C3E900450EE0B9
:104800001AB930BC6FF00100704708B10A78028015
:104810000978481E804130BCC043C00F704700205B
:1048200030BC7047000000000000000000000000E5
:10483000000000000749086808B1002070470648DA
:10484000C008C00008600549C908C900091A01600C
:10485000704700BF9C0A00200F05002008090020B7
:1048600070470000841A71EB030603D2001BB141AC
:10487000121973414FF4001C1CEB410F34BF7CEB49
:10488000430443E00C0DA4EB1356352E50DC45EAEF
:10489000C323DB0A45EAC121C912B6F120050DDDAB
:1048A00063FA05F6EB4086EA0305124218BF45F0AD
:1048B0000105C01851F100010CD213E062FA06F5AF
:1048C000F2405540F3415A40B340F3405A408018FB
:1048D000594107D349085FEA30005FEA350528BF30
:1048E00045F0010501F58011420875F1004250F1D3
:1048F000000041EB0451F0BC4FF4001C1CEB410FD5
:1049000038BF70470020090D090570471CEB410FA7
:1049100010D252EA43060BD0BCEB410F05D80C0D68
:10492000AB43661E342EB5DD02E0AB43801859411F
:10493000F0BC7047F0BC70477047000000000000FA
:104940000000000000000000000000000000000067
:1049500000000000000000005F00000000000000F8
:104960000000000000000000070000000000000040
:104970000700000000000000140000007F0000009D
:10498000140000007F00000014000000240000005C
:104990002A0000007F0000002A0000001200000032
:1049A0002300000013000000080000006400000065
:1049B00062000000360000004900000055000000C1
:1049C0002200000050000000000000000500000070
:1049D00003000000000000000000000000000000D4
:1049E0001C00000022000000410000000000000048
:1049F0000000000041000000220000001C00000038
:104A000000000000080000002A0000001C00000058
:104A10002A00000008000000080000000800000054
:104A20003E00000008000000080000000000000038
:104A300050000000300000000000000000000000F6
:104A40000800000008000000080000000800000046
:104A500008000000000000003000000030000000EE
:104A60000000000000000000200000001000000016
:104A70000800000004000000020000003E000000EA
:104A80005100000049000000450000003E00000009
:104A900000000000420000007F0000004000000015
:104AA0000000000042000000610000005100000012
:104AB0004900000046000000210000004100000005
:104AC000450000004B00000031000000180000000D
:104AD00014000000120000007F0000001000000021
:104AE00027000000450000004500000045000000D0
:104AF000390000003C0000004A00000049000000AE
:104B000049000000300000000100000071000000BA
:104B1000090000000500000003000000360000004E
:104B20004900000049000000490000003600000074
:104B300006000000490000004900000029000000B4
:104B40001E000000000000003600000036000000DB
:104B500000000000000000000000000056000000FF
:104B6000360000000000000000000000000000000F
:104B700008000000140000002200000041000000B6
:104B800014000000140000001400000014000000D5
:104B9000140000004100000022000000140000008A
:104BA00008000000000000000200000001000000FA
:104BB0005100000009000000060000003200000063
:104BC0004900000079000000410000003E000000A4
:104BD0007E00000011000000110000001100000024
:104BE0007E0000007F000000490000004900000036
:104BF00049000000360000003E00000041000000B7
:104C00004100000041000000220000007F00000081
:104C10004100000041000000220000001C000000D4
:104C20007F0000004900000049000000490000002A
:104C3000410000007F0000000900000009000000A2
:104C400001000000010000003E00000041000000E3
:104C50004100000051000000320000007F00000011
:104C60000800000008000000080000007F000000AD
:104C700000000000410000007F0000004100000033
:104C80000000000020000000400000004100000083
:104C90003F000000010000007F000000080000004D
:104CA0001400000022000000410000007F0000000E
:104CB00040000000400000004000000040000000F4
:104CC0007F0000000200000004000000020000005D
:104CD0007F0000007F0000000400000008000000CA
:104CE000100000007F0000003E00000041000000B6
:104CF00041000000410000003E0000007F00000075
:104D00000900000009000000090000000600000082
:104D10003E000000410000005100000021000000A2
:104D20005E0000007F000000090000001900000084
:104D30002900000046000000460000004900000075
:104D4000490000004900000031000000010000009F
:104D5000010000007F0000000100000001000000D1
:104D60003F00000040000000400000004000000044
:104D70003F0000001F000000200000004000000075
:104D8000200000001F0000007F0000002000000045
:104D900018000000200000007F00000063000000F9
:104DA0001400000008000000140000006300000070
:104DB0000300000004000000780000000400000070
:104DC00003000000610000005100000049000000E5
:104DD000450000004300000000000000000000004B
:104DE0007F000000410000004100000002000000C0
:104DF0000400000008000000100000002000000077
:104E000041000000410000007F00000000000000A1
:104E1000000000000400000002000000010000008B
:104E200002000000040000004000000040000000FC
:104E300040000000400000004000000000000000B2
:104E4000010000000200000004000000000000005B
:104E50002000000054000000540000005400000036
:104E6000780000007F0000004800000044000000BF
:104E7000440000003800000038000000440000003A
:104E80004400000044000000200000003800000042
:104E90004400000044000000480000007F000000C3
:104EA00038000000540000005400000054000000CE
:104EB00018000000080000007E000000090000004B
:104EC00001000000020000000800000014000000C3
:104ED00054000000540000003C0000007F0000006F
:104EE000080000000400000004000000780000003A
:104EF00000000000440000007D00000040000000B1
:104F000000000000200000004000000044000000FD
:104F10003D00000000000000000000007F000000D5
:104F20001000000028000000440000000000000005
:104F3000410000007F000000400000000000000071
:104F40007C000000040000001800000004000000C5
:104F5000780000007C000000080000000400000051
:104F60000400000078000000380000004400000049
:104F70004400000044000000380000007C000000F5
:104F800014000000140000001400000008000000DD
:104F900008000000140000001400000018000000C9
:104FA0007C0000007C0000000800000004000000FD
:104FB0000400000008000000480000005400000049
:104FC0005400000054000000200000000400000015
:104FD0003F000000440000004000000020000000EE
:104FE0003C000000400000004000000020000000E5
:104FF0007C0000001C0000002000000040000000B9
:10500000200000001C0000003C00000040000000E8
:1050100030000000400000003C00000044000000A0
:1050200028000000100000002800000044000000DC
:105030000C00000050000000500000005000000074
:105040003C00000044000000640000005400000028
:105050004C000000440000000000000008000000B8
:1050600036000000410000000000000000000000C9
:10507000000000007F0000000000000000000000B1
:1050800000000000410000003600000008000000A1
:105090000000000008000000080000002A000000D6
:1050A0001C00000008000000080000001C000000B8
:1050B0002A000000080000000800000080B500225F
:1050C0000221002000F04CF8D72000F07FF80223E6
:1050D00001220021022000F053F8072300220721BB
:1050E000072000F05DF84FF410411448FDF708FC6C
:1050F000A4211248FDF707FC00211048FDF706FC2B
:1051000000210F48FDF7FCFBEB210D48FDF7FBFBF1
:1051100000210B48FDF7FAFB00210A48FDF7F0FBE0
:10512000FF210848FDF7EFFB00210648FDF7EEFBE5
:1051300020210248FDF7EDFB01BD000000600040AA
:10514000306000406060004080B5FFF7B7FFFBF7BC
:1051500056FBFBF732FBFBF7ADFEFBF775FBFCE7FD
:10516000064B1B889BB213F0200353F0400303430C
:105170000B431343014803800120704788250040FA
:1051800010F0070011F0030150EAC10013F007010D
:1051900050EA41100F4908800F48028001207047F3
:1051A00010B410F0070454EAC00411F0070054EAE8
:1051B000801412F0070054EA402413F0070054EA68
:1051C000003406480480012010BC704701498885DE
:1051D000012070470020004044240040042000408B
:1051E00019E050F8041BCB0744BFA9F1010359187B
:1051F000121F0023042A41F8043BF9D25FEA827CA3
:105200000B4604D54FF0000CA1F800C09B1CD10741
:1052100044BF0021197050F8042B002AE1D17047D7
:1052200030B5016842688468091801EB5203D2075F
:1052300048BF4C440C30994200D130BD11F9012BCC
:1052400011F8015B002A04F8015B02D5521CF9D168
:10525000F1E7521EF4D5EEE710B50749794418314D
:10526000064C7C44163404E00A68081D511888472F
:105270000146A142F8D110BD080000002400000042
:1052800061FFFFFFB40100000809002000000000DA
:1052900091FFFFFFCC000000240000000000002070
:1052A00000F00BF8002801D0FFF7D6FF0020C04621
:1052B000C046FFF749FF00F002F80120704700F0F8
:1052C00001B800000746384600F002F8FBE700008E
:1052D00080B5C046C046024A11001820ABBEFBE7AD
:1052E00026000200675F5263764D736754797065DC
:1052F00020697320253032780000000061646472F8
:105300005F73697A65206973202530327800000068
:10531000484152545F50524F4345535300000000E0
:10532000484152545F496E6974000000484152542C
:105330005F57414954000000584D545F444F4E455B
:10534000000000005243565F444F4E4500000000ED
:10535000C046C046C046C046FFF7A2FFFFF7FEBFEB
:1053600002E37D70DF00F8FFDC00FAFF8100D1006E
:0253700000013A
:040000050000535153
:00000001FF
